:2000000000400020AD3F010001C9011001C9011001C9011001C9011001C9011001C9011071
:1C00200001C9011001C9011001C9011001C9011001C9011001C901103FC9011089
:20003C0080B54FF4FC720FF278011A480EF0B0FB012119484174002202210270C17601BD55
:20005C002DE9F0410FF2502214493820136854689568D6681769D2F814C0D2F818E0D2F8F9
:20007C001C800B604C608D60CE600F61C1F814C0C1F818E0C1F81C8020322031401EE5D1DC
:20009C0050689368D46812680A6048608B60CC60BDE8F081480400215903002100C00021D1
:2000BC00410500217D0500212D06002170B51D46004C204787B2000010B5014800470000FD
:2000DC00D509000070B5614C6148254650358047022809D14034E1885E4A914204D1E97C5E
:2000FC00890601D4911DE18070BD70B557495A4A084650300378002B10D08379012B0DD181
:20011C00037C5B09DB0709D0097D544DC1746C7F20202043687790476C7770BDFF21C17420
:20013C00904770BD10B54E48484C804702280ED121464031CA88474B9A4208D1CA7C5209CE
:20015C00D20704D0227D920601D49A1DCA8010BD70B53E4843494030C07C4009C00707D032
:20017C003E4D41482C8B2043288388472C8370BD884770BD10B53B48344CAC388047214609
:20019C0053310A789309DB0705D04034A2730A7803231A430A7010BD2C4940310871182876
:2001BC0012D004DC0A280BD00B2804D10AE025280CD02A280CD02D4980004018C0687047DE
:2001DC002B4870472B4870472B4870472B4870472B48704770B504461C484E252D5CAE09AB
:2001FC00F60716D0067D3007000F052803D00120054202D00DE00220FAE7E80905D07006D1
:20021C0003D54868800F012803D05B085B0052085200062B03D01020022B11D011E0FB20F7
:20023C00024002232046FFF741FF002807DAC100611A2039497E1422114200D1002070BD93
:20025C00024303432046FFF731FF70BD4401002137CB000004140000EBC80000A800002142
:20027C00F5B4000053AD00002020000080DF00001D050021F9040021CD040021930400210F
:20029C006D04002110B5034CFFF716FF20680028FAD110BD0011044068610000F825F965B0
:2002BC00F9754500450045002600260057A3520052004C00401F401F401F3F000000000053
:2002DC00304000400140034007400F404F40CF40CF41CF43CF47CF4FCF3FCF2FCF1FCF0F6C
:2002FC00000000000000000000000F00080000003F00000040003F000000040068000E0093
:20031C00DC00060043001A00050000000000020000000000000000000400C00000000400B3
:20033C00C000000007000000000000000000000000000000000000003040004001400340A6
:20035C0007400F404F40CF40CF7FCF6FCF5FCF4FCF3FCF2FCF1FCF0F00000000000000009D
:20037C0050C00091007070C00091007082312100319110B10070018101B100A1823132910D
:20039C0010B101911110418141227740F106007051C0019130181039833108D01831416FD1
:2003BC003100319110B18314141683680070251050C00091F4C340C12014036F3110410497
:2003DC005082F0229840512622C082312100319110B163393110410482C08231210031919B
:2003FC0010B163393110A2C082312100319110B150101531051405920070676452C03110A6
:20041C0031066131C1026A6412C13110213971065131E1026A64007051C0019101CCE2C0CC
:20043C006A64676411C1C2C06A6450B054B0007140804022D6440022C94060B08180111EC9
:20045C00C944007054A064B0F0800022C9404012B09032B070C1DF6811C122C16A6470C1C0
:20047C00E46851C00191E2C0823160820200329110B130C2EE68538253395339B16460C347
:20049C00F4688012B09032B00070676401C122C16A6401C1C2C06A645382B164C012B09074
:2004BC0032B00070676472C281C06A6422C111C16A6402C011C16A6462C031C36A6462C3D2
:2004DC0011C16A6402C311C16A6453825339B164E2C36F6411221C4142C281C86A6452C24E
:2004FC0011C16A6472C2E1CE6A6402C281C86A6402C201C86A64B0C030690070676442C211
:20051C0001C86A6452C211C06A6472C2E1C06A6402C001C16A6462C001C36A6422C101C127
:20053C006A6462C301C16A6402C301C16A645382B16400708180111E5C4150B054B000712B
:20055C00408040225D4154A064B0F1800122514500700022514160B04E61000000000000AA
:20057C000000000000000000067305720B720E7250B00071818060B050A09280F0EFF1928C
:20059C0002936A6741228C458080F1C11004301601110114016CB561B661B761B861B9618D
:2005BC00BA61BB61BD61BF61C161C36126632D63F0C002043231412A121432160111211412
:2005DC00016CDA61C561E061C761CB61B561B561B561F461C561FA61C761CB61B561B56104
:2005FC00B561F461C561FA61C761CB61B561B561B561E761C561ED61C761CB61B561B56121
:20061C00B561CF61CF61CF61CF61CF61CF61C064CF61F964CF610665CF613265CF6174676A
:20063C00CF611166CF61C0644E65F964CF61066511663265CF618280E0DFF2926A67B0B044
:20065C00D661B1B00673057230B06C61D0CF6A6784C203C0C0C37C64207851788278E378B7
:20067C001579B6780062C0CF6A6784C203C0C0C37C64307861789278F3781579C678006250
:20069C00B0CF6A6784C203C0C0C37C6440787178A27803791579D678109221923292439281
:2006BC005492659256911FC0FF914039F00601101031101400927067CF61E3B054A0F08076
:2006DC0050221A4640800022BE461262E3A000C86091598150B0918041228E46A0CF6A6734
:2006FC0012828231823942398B641282F2062F101F312F141682D622334640C1346200C5AF
:20071C0020140D6F6D39DE10F4C34E0482C082312E006D39A2C082312D001A828A39FA0606
:20073C002082803180390BC00B18BC10AC18038239149B141082F0060110103110145181C2
:20075C0010140C14C622C94631D0C1266462021011C0013010C00118021882312100C126C2
:20077C00919103B013B063B053B041800122BE46B481C491D581B51C774E95186591F0803E
:20079C00102269428C623D9110B13E9110B1E08000228146E6228142E0B0951865910F926B
:2007BC005981F914F0805022114210228C464D6390CF6A6763B052A03082F2C0200402107E
:2007DC0011C0013010C00118021882312100C1269191919113B003B063B053B064B054B055
:2007FC00007141800122BE4663B064B0F08050221142B181C191D1819118619131B0A462D0
:20081C002967E0A059810582591480C0007163B0BA6A6962E3A0018262818231823D80EF61
:20083C00F19202936A6703A0007037824739873930828039F006021011C0013010C0011849
:20085C00021882312100C126819102B012B030824039F006021011C0013010C001180218E9
:20087C0082312100C126919103B013B063B053B0007153A062B052B041800122BE46A4816E
:20089C00C491D581B51CFE4E95186591F0801022F0428C62B481C491D4814518751C084FEB
:2008BC00F0801022F0428C623D9110B13E9110B1E08000221247E6221243E0B065910F92DC
:2008DC005981F914F0805022114210228C4630632967E0A0598105825914F0C0007162B038
:2008FC00226BF062A2808B64CF6112824239F2068B6050B00071CF6170CF6A674082418096
:20091C000122BE46A481C491D58195186591F18011228C46336B41800122BE46A481C491AB
:20093C00D581C51C1C4B95186591F08010223F438C6260CF6A67408241800122BE46B48169
:20095C00C491D58195186591F18011228C46506B41800122BE46B481C491D581C51CB44A55
:20097C0095186591F08010225C438C62E092D08200226B47C0B20070A080F022874330B033
:20099C0002C1623101C0A080001E8043F022814380F86031603981632010101A136F236E5A
:2009BC0011161216826B00702DE9F84FDFF81885DFF8181588F80000002008600921DFF891
:2009DC00100501700D2141804FF408718180DFF80405DFF8041501608A7EDFF80005027042
:2009FC00FF2ACB7E437008BFFF2B0D7F85704E7FC6708F7F0771C97F417115D1FF2D08BFE8
:200A1C00FF2E11D1FF2F08BFFF290DD1DFF8D0140A7802704A7842708A788270CA78C27025
:200A3C000A79027149794171DFF8B81402780A70FF2542784A7082788A70C278CA7002791E
:200A5C000A714079DFF8A02448710021DFF89C04057045708570C570057145711180DFF872
:200A7C009004DFF89014466BDFF88C247078087031781170B078DFF884140870716908791F
:200A9C00DFF87C14421E0A70F078DFF878140870B069DFF87414086008B915F0BFFEF069FA
:200ABC00DFF86844206008B915F0B8FE2068DFF8607401688847216851F8042F38469047D6
:200ADC00DFF85004DFF850143862DFF850047862306A086008B915F0A1FE706ADFF8401489
:200AFC00086008B915F09AFEDFF838B4DFF838649BF8040016F02AFD306008B900F045B9DB
:200B1C009BF80500DFF8247416F020FD386008B9306837E19BF80600DFF8144416F016FDA5
:200B3C00206020B9306816F019FD38682AE19BF80700DFF8009416F009FDC9F8000038B91E
:200B5C00306816F00BFD386816F008FD206819E1DFF8A4130A789BF80000DFF8DCA3921CFF
:200B7C00504380B216F0F2FCCAF8080058B9306816F0F4FC386816F0F1FC206816F0EEFC2C
:200B9C00D9F80000FEE0DC480078002800F00281BBF80210DFF8A4B3484380B216F0D6FCCB
:200BBC00CBF8040078B9306816F0D8FC386816F0D5FC206816F0D2FCD9F8000016F0CEFC3B
:200BDC00DAF80800DEE0CC48007816F0BFFCDC49086080B9306816F0C1FC386816F0BEFC93
:200BFC00D9F8000016F0BAFCDAF8080016F0B6FCDBF80400C6E0C04800781C21484316F0EF
:200C1C00A5FCD04A1060B0B9306816F0A7FC386816F0A4FC206816F0A1FCD9F8000016F09B
:200C3C009DFCDAF8080016F099FCDBF8040016F095FCC348A5E0B0480078400116F086FC53
:200C5C00C1490860D8B9306816F088FC386816F085FC206816F082FCD9F8000016F07EFCCF
:200C7C00DAF8080016F07AFCDBF8040016F076FCB348006816F072FCB249086882E09E4829
:200C9C000078000116F062FCB0490860F0B9306816F064FC386816F061FC206816F05EFC68
:200CBC00D9F8000016F05AFCDAF8080016F056FCDBF8040016F052FCA148006816F04EFCED
:200CDC00A049086816F04AFC9F485AE08A480078000116F03BFC9E49086018BB306816F0EA
:200CFC003DFC386816F03AFC206816F037FCD9F8000016F033FCDAF8080016F02FFCDBF81E
:200D1C00040016F02BFC8E48006816F027FC8D49086816F023FC8C48006816F01FFC8B4983
:200D3C0008682FE0744800783021484316F00EFC884A106070BB306816F010FC386816F03B
:200D5C000DFC206816F00AFCD9F8000016F006FCDAF8080016F002FCDBF8040016F0FEFB4D
:200D7C007748006816F0FAFB7649086816F0F6FB7548006816F0F2FB7449086816F0EEFBDB
:200D9C007348006816F0EAFB002015F047FD4FF4804192E03168012008713068057331686E
:200DBC004D73306885733168CD7330680574002031684D743268D072A0223168487103214F
:200DDC003068C28001720720316848720020326890722821306841820121C17600203168BE
:200DFC004877326882F85E00012031680877326882F85D00396808713868057339684D7369
:200E1C00386885733968CD7338680574002039684D743A68D072396848713A6890724FF47D
:200E3C00207039680022C88008818A7401213A68D17421680D732268557321688D732268FD
:200E5C00D57321680D740021226855742368D9720121226811710021236859712168C88065
:200E7C000881002088722168887405202268D0743948016888472A490A6805461068804713
:200E9C0027490A6852F8043F0020984718481D4BC16818780A88314902430A802846304985
:200EBC000A6890470C212F4800F05EF80F4800F05FF800F061F84FF4005198F80000BDE833
:200EDC00F44F0AF089BF00BF6E4F0020044F0020604E0020084F0020B63F00502C4E00203E
:200EFC00E81200503C4E00200C4F0020344E00204C9201006D4F00207B4F00206B4F002046
:200F1C00724F00206C4F0020F04E0020F44E00207C4B002069750100F84E0020797501001E
:200F3C00FC4E002034100020104F002000260020184F0020FC25002074250020684E0020AB
:200F5C00004F0020F4250020F8250020884E00208C4E0020904E00202C0E0020544F002085
:200F7C00300E0020F84D0020DFF800F0E5710110DFF800F01D6E0110DFF800F04D7101106B
:200F9C000EB5009016F089F8029000200190019803281FD20199880000EBC10010490858DC
:200FBC00C0B10199880000EBC1000D4908580099884209D1029815F094FE0199880000EBA5
:200FDC00C1000749401809E00198401C019001980328DFD3029815F084FE00200EBDC04695
:040FFC00A02300200E
:20100000B41200001810000015AB0110FDB301106DC00110FDAE011099B5011000000000F7
:08102000000000002D0000009B
:20102800B01200003C100000B1C00110A9BF011067C0011069B80110000000000000000035
:041048003000000074
:20104C00B012000060100000BDC00110CDB30110D9BD01106DB3011000000000000000005B
:04106C00310000004F
:20107000000000006C10002004000000000000000000000020000000E8C9011030000000AE
:2010900028100000741000200400000000000000000000000C000000D8CA01101800000089
:2010B0004C1000007C10002004000000000000000000000024000000F0CA0110180000000D
:2010D00000000000841000200400000000000000000000001000000018CA01102C00000019
:2010F0000010000094100020040000000000000000000000200000006CCA0110240000007D
:20111000FFFFFFFF9C1000200400000000000000000000002800000090CA0110240000003C
:20113000FFFFFFFFA41000200400000000000000000000001400000008CB011018000000BB
:20115000FFFFFFFFAC10002004000000000000000000000058000000B4C901103400000089
:20117000FFFFFFFFB41000200400000000000000000000001000000020CB01101800000057
:20119000FFFFFFFFBC1000200400000000000000000000001C000000B4CA01102400000084
:2011B000FFFFFFFFC41000200400000000000000000000003800000044CA011028000000AC
:2011D000FFFFFFFFCC1000200400000000000000000000005400000078C901103C00000021
:0811F00001000000FC91010068
:0411F80001000000F2
:0411FC0000000E00E1
:0412000000000F00DB
:0412040032000000B4
:0412080001000000E1
:04120C00640E00204C
:0412100000020000D8
:0412140000000000D6
:0412180001C90110F7
:04121C0000000000CE
:0412200000000000CA
:0412240008000000BE
:0412280000002200A0
:04122C000C0C002086
:0412300000000000BA
:0412340000000000B6
:0412380008000000AA
:04123C00900D0020F1
:0412400000000000AA
:0412440000000000A6
:04124800080000009A
:04124C00000000009E
:04125000000000009A
:041254000000000096
:041258000000000092
:04125C00010000008D
:04126000740C0020EA
:041264000600000080
:041268000100000081
:04126C00380B00201B
:04127000000000007A
:041274000000000076
:041278000002000070
:04127C00000000006E
:02128000290043
:02128200010069
:02128400250043
:02128600300036
:02128800310033
:02128A002D0035
:02128C0001005F
:01128E00015E
:0812900003000000749101004D
:0812980000000000000000004E
:0412A0000000010049
:0412A4000000030043
:0412A80013C401105A
:0412AC006771010065
:0412B000B812000070
:0412B400B81200006C
:0412B8000000000032
:0412BC00F00F00200F
:0412C000377401007E
:0412C4002000000006
:0412C800AC900100E5
:0412CC00EC8E0100A3
:0412D00029C101101F
:0412D4004F4901007D
:0412D800BF4D010005
:0412DC00A1C7011095
:0412E000A3C701108F
:0412E4000000000006
:0412E800D39001009E
:0412EC00608D010010
:0412F000788D0100F4
:0412F400488D010020
:0212F8000200F2
:0212FA000900E9
:0212FC000100EF
:0212FE000000EE
:0113000001EB
:041304005973010018
:04130800A9530100E4
:04130C000565010072
:04131000C5570100BC
:041314004D54010033
:04131800F93C01009B
:04131C00BD0B010004
:041320008D760100C5
:041324002925010076
:0413280015C70110D4
:04132C0025C70110C0
:201330002DE9F04F0C4685B0834614F8010BDFF870278DF8000018280BF1FD010BF1E708C8
:201350000BF166090BF20D1A0BF5B0760BF59C750BF5C67700F29183DFE810F019006F0025
:201370005F0191008F038F03FA00690311012301FE000D0133018F038F037C018F036101D7
:2013900055017503D602D60227028F03740214F8010B8BF88600022221460BF1880016F058
:2013B0006DFE014602220BF18A0016F067FE014602220BF18C0016F061FE014602220BF197
:2013D0008E0016F05BFE04469BF8860040008BF886000BF1860102224888400048800BF1E9
:2013F00086008188490081800BF1860108890001088121460BF1840016F040FEB9F81E105C
:20141000BBF80800091A89B247F6FF7291422ADA0BF18601C8888A88401C520050430A8965
:20143000904203D33B208AF80B0039E2012089F81C000020ABF81E001EE0052221460BF1CA
:20145000610016F01BFE014602220BF1920016F015FE0BF1860047F6FF728189BBF80800F5
:20147000091A89B2914280F218820BF18600012181720021ABF81E10012028700CE398F85E
:201490001600C1070AD41A2198F80D0088F80E10012808BF0D213FD00D21CDE1002089F860
:2014B000000089F806000822012088F8110021460BF1B00016F0E2FD014602220BF1B800A2
:2014D00016F0DCFD0BF1A80601460822304616F0D5FD04460821304616F0CCFD0BF19C065E
:2014F00004222146304616F0C9FD0421304616F0C1FD0BF1A00016F0B9FD0BF1980016F0BC
:20151000B1FDDFF8A005018841F08001018098F80D00012806D10421584605B0BDE8F04FDC
:2015300013F096BD99F81000012804BF99F811100F290BD1584611F0D7F90421584610F0C0
:201550004FF80F2089F81A00FD2175E1042173E1012088F80F009FE2002089F8000089F82A
:20157000060088F800000B21012088F80D00002088F8010060E1012088F810008CE20020DA
:2015900002F10906235C365C33432354561C365C33400B54401C0828F2DB584610F050FB23
:2015B00070E2002002F10905235C2D5C2B432354551C2D5C2B400B54401C0828F2DB02207C
:2015D00048E299F8060008B93D2167E19AF800000128D3D014F8011B8AF80310022221462D
:2015F0000BF5897016F04AFD014602220BF58A7016F044FD01208AF800009AF8020000288A
:201610001BD10C2118E198F81600C10601D41221D1E0584611F0FCFD34E221783EE1207884
:2016300030706078707099F8100001280CD199F811100F2902D0162902D02DE268732BE2D7
:20165000387B40F0010016E205B0BDE8F04F002015F0EAB898F81600810707D410F0110F15
:2016700008BF0F2000F009821A2252E02078617800EB01202882E178A07800EB01206882ED
:201690006179207900EB0120A882E179A07900EB0120E882207A2876A17A607A00EB01206F
:2016B0006883217BE07A00EB0120A883A17B607B00EB0120E883217CE07B00EB01202884E4
:2016D000A17C607C00EB01206884217DE07C00EB0120A884A17D607D00EB0120E8840BF564
:2016F000AA700490688B0390287E0290BBF808000190E88A0090AB8A6A8A298A58460FF0A7
:2017100033F968B198F81600410701D40F2152E01E22584605B0BDE8F04F0F2113F0B4BC35
:20173000688A0BF186018880A88AC880E88A088102208BF8860000204880BBF83400C01DD0
:20175000A9F81E008888BBF83210884201BF0BF18600C188BBF83400814206D10BF186005D
:201770000189BBF8360081421DD099F81000012804BF99F811100F2907D099F8150020B171
:201790000F2189F81A10FE2156E0FC2158460FF027FFE88A0090AB8A6A8A298A9BF80600B2
:2017B00016F05CFC78E1102146E098F8170010F0090F03D116218AF80C1060E160782178F1
:2017D00000F00700014021702078797B0140F97211D0481E01420CD0490704D5B87B10B175
:2017F0000421F97205E0F97A022001421AD14008FBD1F87A08B9B97AF972F87A042803D14A
:20181000584611F0F3FDB083F87A16F023FC3871B28BB97B012312F027FC0146308B884230
:2018300002D207E0F872E4E7B28BB97B3879012312F01AFC78801721584605B0BDE8F04FE3
:201850000FF0CEBE60782178814207D100F007000840207033D0421E10420FD01E22182105
:20187000584613F011FC9BF80610002300221E200CF0CAFC387B40F04000FCE0F87247F616
:20189000FF72A078E17800EB012038813989BBF80800091A89B2914206DB28218AF80B101C
:2018B00001208AF80A00F7E00120B871F87A042803D1584611F09AFDB083F87A0BE099F881
:2018D0001100162806D1BA7A9BF80610134600200CF09AFCB87A3871B28BB97B38790123C9
:2018F00012F0C2FB0146308B884205D3B28BB97B3879012312F0B8FB78800121387B40F07D
:20191000400038732970C7E02078617800EB01207082E178A07800EB0120F08261792079BB
:2019300000EB01203082E179A07900EB0120B082B18AF089884288BF0846B97A042905D1DF
:2019500040F691229042B8BF4FF42960F28BF0839042B87A14BF01240024042803D15846CB
:2019700011F044FD04E0B089F18A884288BF0846B28BB083904214BF012100210C433089BE
:20199000718A328B884288BF0846904214BF012100210C433083B28BB97B3879012312F0EE
:2019B00063FB0146308B884205D3B28BB97B3879012312F059FB78807189308A728B81420D
:2019D00088BF0146718391429BF8063014BF0120002004438A4234490A6802EB4311728B85
:2019F0008041121DC00F0A7610B1584613F012FE9DF80000142810D144B1F08B0090738B76
:201A1000B28B318B9BF8060016F020FB584605B0BDE8F04F15210EF059B81CB1387840F0DA
:201A300008003870397841F02001397034E020780E280ED00F2809D0122804D014280CD044
:201A5000162812D028E00020287225E00120287322E0032088F815001EE0387840F0020039
:201A7000387040F01000387016E0387B40F00200387340F0100038730EE08AF80C0058463B
:201A900011F03AF840B905B0BDE8F04F074800784FF480410AF0A6B905B0BDE8F08F00BFB5
:201AB000F0240020524F0020F82500206E4F002000B5ADF1140D02928DF80E10ADF80C00AB
:201AD00000208DF80F004FE29DF80E00102805D10299AC4810220CF061FE85E218208DF820
:201AF0000F0081E29DF80E00102805D10299AF4810220CF053FE77E218208DF80F0073E228
:201B10009DF80E00042804D10298B049006808606AE218208DF80F0066E29DF80E00012882
:201B300044D1AD48007801283CD0AC4800788DF810000298A949007808709DF81000B0B15B
:201B5000A648007898B9AF480078022804D0AD480078052840F04882AB480178502012F0DF
:201B700095F9AA49024610200CF0BAF83CE29DF81000002840F0388298480078002800F069
:201B90003382A0480078012808D09E480078042804D09C480078052840F02682012015F03A
:201BB000ABFB21E212208DF80F001DE218208DF80F0019E29DF80E0001284CD187480078B0
:201BD000012844D0844800788DF8100002988249007808709DF81000D0B17F480078B8B9B4
:201BF00088480078032808D086480078072804D084480078052840F0F78183480178502074
:201C100012F044F98149024610200CF069F8EBE19DF81000002840F0E7816F48007800284E
:201C300000F0E2817748007801280CD075480078042808D073480078062804D07148007866
:201C5000052840F0D181012015F056FBCCE112208DF80F00C8E118208DF80F00C4E19DF82C
:201C70000E00022804D10298B84900880880BBE118208DF80F00B7E19DF80E001F2821DCB5
:201C9000B54800211F220EF0E6FB02999DF80E20B1480CF083FD9DF80E00B04908705A486D
:201CB0000178502012F0F2F80246AC480078AC490090A9480123019010200CF011F88DF8A6
:201CD0000F0091E118208DF80F008DE19DF80E001F2821DCA34800211F220EF0BCFB0299B5
:201CF0009DF80E209F480CF059FD9DF80E00C049087045480178502012F0C8F80246BC4830
:201D100000789749009097480023019010200BF0E7FF8DF80F0067E118208DF80F0063E13B
:201D30009DF80E00012808D102980078042804DC0298B0490078087056E118208DF80F004A
:201D500052E19DF80E00012808D102980078032804DC0298A8490078087045E118208DF820
:201D70000F0041E19DF80E00062806D10298A34902680A608088888036E118208DF80F002D
:201D900032E1C0462C2500209DF80E00012808D102980078072804DC029899490078087077
:201DB00022E118208DF80F001EE1C0463C2500209DF80E0001280BD102980078032807DCF6
:201DD00002989049007808700EE1C0462425002018208DF80F0007E1490E0020480E002091
:201DF0009DF80E00012808D102980078062804DA0298854900780870F6E018208DF80F0016
:201E1000F2E0C04620250020182500209945011002980088ADF810009DF80E0002280DD1A7
:201E3000BDF81000062809DBBDF81000B0F5486F04DCBDF8100075490880D5E018208DF83D
:201E50000F00D1E002980088ADF810009DF80E0002280DD1BDF81000062809DBBDF8100094
:201E7000B0F5486F04DCBDF8100069490880BBE018208DF80F00B7E002980088ADF8100042
:201E90009DF80E00022809D1BDF81000B0F5FA7F04DABDF810005F490880A5E018208DF893
:201EB0000F00A1E002980088ADF810009DF80E0002280DD1BDF810000A2809DBBDF8100060
:201ED000B0F5486F04DCBDF81000534908808BE018208DF80F0087E0029800788DF8100088
:201EF0009DF80E00012819D19DF81000012815D14A4814F00FFE68B9434900200AF0FAFB09
:201F10008DF80F009DF80F0000286DD1444815F0CBF969E016208DF80F0065E018208DF8A9
:201F30000F0061E0BDF80C00282811DA9DF80E0002280DD102983B49BDF80C2003881020E0
:201F50000BF0CEFE8DF80F004EE0C0464A0E002002208DF80F0047E0D00D00204C0E002016
:201F700009450110EF0D0020BDF80C00A0F201301A28D7D801A151F820008746D91A000096
:201F9000F51A0000111B0000351F00002B1B00006F1C0000891C0000DD1C0000311D0000E5
:201FB000531D0000751D0000991D0000C11D0000351F0000351F0000F11D0000211E000086
:201FD000551E0000891E0000B51E0000351F0000351F0000351F0000351F0000E91E0000AD
:201FF000351F0000C51B00009DF80F0005B000BD4D0E00202825002029250020EA10002017
:202010002A2500202B250020121000201410002016100020181000201A10002078240020B7
:2020300054240020BD8401102DE9F84F012013F03FFB01280ED1DFF8F87439680020487126
:20205000386812F033F805F027FC040003D1812015F0F8FF68E201206071DFF8D854DFF800
:20207000D8044178491C41703968A07981F8A00040200EF079F82060287901281CBF0020BE
:2020900014F0D2FBE8682168DFF8B05400F5B060C860286801680A79032A1CBF002014F0D6
:2020B000C3FB2868DFF898840168DFF898B401F10809062299F80000C0F3801084F82E0199
:2020D00009F1020104F5947014F082FF042209F10E0104F1240014F07BFFD8F80000A679BC
:2020F00000F10C03042209F10E0103EB461014F06FFFD8F80000A37900EB4310032209F1A2
:202110001201103014F064FF04F12C0699F81500B070022209F1160104F1300014F058FF53
:20213000022209F1180104F1320014F051FF022209F11A0104F1340014F04AFF3089608491
:20215000022209F11C0104F1360014F041FFB078F18872894000B0704900B08840001201F5
:20217000B080F180728189B2638C5B1C4800434392B2934200D231B99BF80000802109F04A
:2021900031FE3B21FEE004F12E01204614F00CFB0520A081204614F0E7FC052209F11E015E
:2021B00004F1610014F014FF99F823004009307015F044FF60823A68E34F518A401A04F5D9
:2021D0009771888104F1610199F82300DFF87C9300F01F00F073204612F074F829680A68A4
:2021F000002010711C25A1793868694341F6210242520022A17969430144001D4A80A1796B
:202210006943425099F80200410609D5D049088841F20A4290420CBFCE48CF48C4F89C016D
:202230002046D4F89C1188473968A37901F10E026B43D054A1793868694308440021C17348
:20225000C648017881B1B08870B9002171730120208160812046D4F89C1188473968A37941
:2022700001F10E026B43D0543868A27900F10E016A43885C707394F8960108B914F0D4FA95
:20229000A1793868DFF8D8A26943084494F896114A1E02740023A179386869430844002124
:2022B0004174A279396801F112006A4301F1140C8352A279D8F8000000EB42136A434CF8E9
:2022D0000230A2796A431144A64A8A61DAF814100B78DA074CBF4FF0100C4FF0000C990719
:2022F0004CBF202100215A074CBF402200221B0700F10803A07941EA0C014CBF4FF0800E2A
:202310004FF0000E0A4340014EEA020242F00F021A54D8F80000A17900EB41100B224272DE
:20233000D8F80010A07901EB401104228A728E4A1378D8F80000A179012B00EB411002D1AD
:202350000121C17203E0DAF828104A78C272D8F80000A17900EB41101F220276D8F8001076
:20237000A07901EB401100224A76A0790BF05EF8A279D8F8001052018850A2795301C858F6
:2023900020B90721204614F02DF9CDE07748016801EB021015F04EFE744AA0791368D8F856
:2023B000001003EB00130A1D40011350081DA27952018058F063A0794001095871640421BE
:2023D0009BF8000009F00EFD644BB2881978901C11B10AB9F088801C618A94F806B04143E6
:2023F0004FF4C87205FB0BFBB1FBF2F1491CA061616140F6C41C23683A68CDF800B002F1E8
:20241000080ED3F80CB00CFB00B0411A0098A1F5A8614EF8001002F10800A1796943405817
:20243000986002F10C01A07968430C32095C01F0EF011154A0793968684301F10C020C3145
:20245000125C02F07F020A54A0793968684301F10C020C31125C02F0F00242F002020A54A5
:20247000A179386869430844417B01F0F00141F0010141733868A27900F108016A438858D3
:20249000216808616369D8F80000A17996F802E05B0000F1140249010CFB0E3303F5F663CF
:2024B0005350A17900EB4110C27C02F0F00242F00402C274D8F80010A079DAF8303001EB6C
:2024D0004012F0880CFB00F61868301AA0F51670D061A27901EB4210C17E01F0F00141F064
:2024F0000401C176A17938684D4321684019486099F80100810614D504F59771488F1B289F
:2025100004BF888F1B2808D1C88FB0F5A47F04BFB4F86E11B1F5A47F03D0142120460FF072
:202530005FF8134907200870BDE8F14F01F0AABF104F0020B44D0020684E0020F44B002025
:20255000F82500206E4F0020F4250020F0240020504F0020DF2501004F2F0100784E0020BB
:202570004C9201005C4D0020734F00208C4E00206F4F002000B5ADF1240D029000208DF82E
:202590000C0045E202980490049840788DF814009DF8140058BBA648A6490222102300905D
:2025B00010200BF09DFBA84803221023A149009010200BF095FB0498A849C01C02680A608E
:2025D00080888880A64801210170A6480178502011F05CFC0246A4480078A5490090A34815
:2025F0000123019010200BF07BFB8DF814009DF8140010B19A480821017001208DF80C0044
:2026100030E20298049004984078002830D10498C07890B193480178502011F037FC024698
:202630009448007892490090A9480023019010200BF056FB049948701AE0894800780228E8
:2026500016D087480078072812D085480078062803D1A548007801280AD181480078032810
:2026700006D0A94814F056FA10B9012014F044FE04984078002800F0F581794808210170C2
:2026900001208DF80C00EDE1029804900498407800283CD102988078032812D17048007823
:2026B000062803D16E480721017033E0A948007818B16B48022101702CE0694803210170DB
:2026D00028E0AC48008858B1A248007810B98648007880B1A74801888B4811F0E5F90AE0A7
:2026F0009C480078012803D19A490020087002E07D49002008705A480078072803D15848F9
:202710000621017006E056480421017002E054480821017001208DF80C00A3E1029804907B
:2027300004984078002842D10498B449001D02680A60808888800498B149408908804848E9
:20275000062101700498AF49C08908800498AE49008A08800498AD49408A08800498B64948
:20277000C0780870B5480078012803D0B348007802280ED1B24910201F220BF0B1FAADF8F5
:202790001400BDF814004FF47A714143AD4811F08BF904984089AC490090042001900498E5
:2027B000049BC2781B1D10200BF09AFA0DE004984078312806D167490020087028480421EB
:2027D000017002E026480821017001208DF80C0048E1029804900498AC49828810200BF0BF
:2027F0007FFA8648002106220DF035FE85490020088085490020088084490020088004980C
:20281000A349807908708F4814F04EFDA14814F04BFD01208DF80C0079494FF6FF70088040
:202830003148007840B10E48032101701AE1C0462C250020ED69010004988079082805D157
:2028500007480521017004E03C250020044804210170012014F050FD04E1C046C4250020D5
:2028700020250020182500204C0E0020D00D0020094501104D0E002002980490854814F036
:2028900013FD04984078002840F0EC8004985D49C088088004985C490089088004985B495C
:2028B00040890880674814F035F9002840F0DA8079480068002800F0D580774852490068CC
:2028D000524A036809884F48128800889847C9E0EF0D00200298049004987049828805233E
:2028F00010200BF0FDF9BDE0490E00200298049004988088ADF8140050480078052805D1F5
:2029100000208DF81E0072E03024002001208DF81E004C4814F0C8FC48480078012803D0FA
:2029300046480078042839D15D4804990088C988884202DD5A48008801E00498C088ADF8F3
:2029500016005848049900880989884204DD5548008803E0480E002004980089ADF81800EF
:202970005148049900884989884205DD4E48008804E0C0464A0E002004984089ADF81A0067
:202990004A48049900888989884202DD4748008801E004988089ADF81C0028E02748007868
:2029B000032803D025480078022810D13C480088ADF816003B480088ADF818003A48008880
:2029D000ADF81A0039480088ADF81C000FE00498C088ADF8160004980089ADF81800049852
:2029F0004089ADF81A0004988089ADF81C003049102005AA0BF074F934E0C046F0100020DF
:202A10004E0E0020500E0020520E0020540E002002988078052819DC05283FF47FAE002841
:202A30003FF4B0AD801E3FF4ECAD401E3FF42CAE401E3FF429AE15E0560E002012100020FE
:202A5000F584011054240020F9B10000801F3FF4C0AE401E3FF410AF08383FF43BAF801E0F
:202A70003FF444AF9DF80C0001280CD11148006848B110480068006828B10E480068016897
:202A90000D480078884709B000BDC04639260100570E002078240020600E0020C1170110F6
:202AB0001410002016100020181000201A100020051601105C0E0020202500202DE9F8437E
:202AD000040014D1002013F0AFFE10E0204610F013F8012808D065E08A0740F1548101F0FE
:202AF000FD0101700020B07120460FF0FDFE04F16605687D002855D0697CDFF8A494022905
:202B100004F1EC0704F59E7804F5B07604F5C67035D0042949D005295CD0062900F08A8092
:202B30000729D3D0092900F0EC800B2900F0C1800C2900F008810D2900F0D0800E2900F074
:202B5000EA800F2900F02881102900F04281112900F05C81122900F00E81142900F0878148
:202B7000162900F05A81172900F07581FC2919D0FD2900F09581FE2900F09B81A2E7297C7A
:202B9000012909D199F80300002815D01621204613F028FD012006E020460FF093FA287426
:202BB000E88A28830020BDE8F283297C012940F0948199F80200002800F0E580FC21204607
:202BD00012F046FAA07904F1B80204F1B00115F02DFA8CE7297C01290FD199F8020020B183
:202BF00084F89410002038607860B87A012868D10621204612F02CFA79E704F1E7063078E2
:202C1000012809D1204612F07BF80128CAD10020B87201202874C5E770780028C2D004F1B8
:202C3000C70204F1A00104F1D70015F0FBF9012030705CE7297C012940F0538199F80200F6
:202C500000283ED0618CE18320460FF04DFE01202870204611F0F4FA0120A871397A787C3E
:202C7000012900F010000FD148B1002088F80500D8F8001098F8060049080EF043FBA07980
:202C9000002115F0CBF90EE040B1D8F80020C54804F5A1735208214614F0B8FDA07901229B
:202CB000002115F0B7F9002038723873F872B8721DE7287C012805D1F97A012908BFFC21FD
:202CD00097D060E020460EF0BFFC0128A3D10020F87284F894000120287408E7297C01296C
:202CF00040F0038199F80200002809D0002184F8941001202870204611F0A2FA0120A87145
:202D100088E0297C012940F0F48099F80200D0B3618CE183E8E6287C012840F0EE80387C74
:202D3000022804F1FD0204D1A179002015F06EF9DAE6032840F0EA80A1791A2015F066F9AD
:202D500000203874D0E6287C012804F20D1140F0E8800B78012B04F5897240F0E88048786D
:202D7000012807D15388009300201388CA78A17915F048F9B8E6297C012940F0E78099F8E2
:202D900002000028F6D1298B481E288380B200287FF408AF2221FAE6287C012840F0DA806F
:202DB00098F80910012902D130780F281BE098F80800012826D1002188F80810288D000954
:202DD00000901A20AA8CEB8CA179520815F016F98AE6287C012840F0C18098F80910012963
:202DF00010D1307810281CBF002013F01DFD002088F80900288D00090090AA8CEB8CA1792C
:202E10007078E2E7287F0028E2D1BCE7297C012940F0A88099F80300F5E7297C012940F036
:202E3000A580017B4A061DD4CA0709D501F0FE0101730023A179707800220BF0E5F953E634
:202E50008A0740F1988001F0FD0101730023A17900221A20F1E7297C012940F09980027B1F
:202E7000510690D5017B01F0BF0101733CE6297C012940F08F8001788A067FF52DAE01F06C
:202E9000DF010A0701700AD501F0F7010170F08B0090738BB28B318BA07915F0D7F821E691
:202EB000A97E204612F0D4F815E7002013F0BCFC78E6A87E0F28F8D1FC21204612F0C8F807
:202ED000B8F812000090B8F81030B8F80E20B8F80C10A07915F0C2F864E620460CF080F8FA
:202EF0005DE620460FF0DCFE59E6204611F08CFB55E620460EF0A4FE51E620460EF02AF914
:202F10002874E88A2883012038744BE6288B401E288380B20028F8D1A179222015F076F83C
:202F300038E70120887020460DF0E4FC37E6288B401E288380B20028E7D150880090222071
:202F50001388CA78A17915F05DF823E7204610F037F924E620460BF0A7F920E620460BF0FE
:202F7000F3F91CE620460EF0EDFF18E6162120460AF010FD13E6288B401E288380B2002852
:202F9000C3D1A1790023002222200BF03DF901E71721ECE7142120460CF098FDFFE500BFF9
:202FB0005C4D0020910801002DE9F84FDFF82844A178FF2904BF002013F036FCA07814F089
:202FD0007DF9044604F1680604F5C9753168086804F1900710B10022E28310E0B17B002965
:202FF00004BFB07E00280AD13978002904BF2878002804D1217F012904BF608CE08321890D
:20301000E08B4118491C6181204613F0EDFB01281EBFDFF8C8030178012904D12089002259
:20303000401CE2836081B07E01280CD1B28B6189208914F0DFFF30B121896289481C82425A
:203050002AD0B28B1FE0387801280CD17A886189208914F0CFFF30B121896289481C82426F
:203070001AD07A880FE02878012815D16A886189208914F0BFFF00281FBF2189481C628970
:20309000824209D06A88824206D0501E608180B214F0ACFF401EE0832878012801BF69888C
:2030B0002089401C814207D16A792A71002028701346A1790BF0A8F804F59A71087920B1C6
:2030D00020890021401CE183608104F12E07B07E012801BFB08B2189491C884238D1608136
:2030F00004F18601204613F05FFBB08C6189608400202077E083E0894118A181B08B218994
:2031100014F074FF8046B988308C728C01FB0808F08C8A4204BF3989884202BFB18CFB8843
:20313000994207D000090090B38CA1795208002014F064FFB07F3870708CB880B08CF8803B
:20315000F08C3881204613F00FFD0220B07601E0B7F80480E28BDFF88892501C00FB08F19B
:2031700040F6C41808FB01F000902368D3F80CC06044DFF870C2D860DCF800E09A489EF876
:2031900000A003884FEA9A1ABAF1030F13D199F80FC05FEACC7E48BF00230CD45B1C9BB2A5
:2031B000012B11BFB4F812C004F59A7CBCF806C00CF2DC5C01E0B4F812C00CFB01FC4FF420
:2031D000C87EBCFBFEFCDFF824A20CF1010CC4F814C0038084F820204FF01C0BA379A161EE
:2031F0000BFB03F3DAF80010226801F1080001F1080CC058D3681061A0790BFB00FE6069AD
:203210001B1A4CF80E3001F10800A3790BFB03F3C058906001F10C02A0790BFB00F00C3181
:20323000125C02F0F00242F002020A54DAF80000A279811C0BFB02F200208852287908B9B8
:2032500013F0F2FADAF80000A27900F1100128790BFB02F240088854A079DAF800100BFBC0
:2032700000F00844002141742879042814D1A079DAF800100BFB00F001F110022B7A125C72
:20329000103142EA83020A54A179DAF800000BFB01F1084420214174DAF80000A27900F1CA
:2032B00012010BFB02F200238B525149A2790968520101F11403D4F814C09B5801F1140EC8
:2032D00003EB4C034EF80230B27E022A0AD1A279520101F114033E789B5808FB063301F1A4
:2032F0001406B35099F80F20D30749D5A2790BFB02F200F1080300F108069B58A3F5A86343
:20331000B3500830A27923680BFB02F282589A600098121A1A6101F11402A079400101F15B
:203330001403125802F5F6621A502879042807D1A079400101F11402125802F5B0621A505F
:2033500001F11400A27952018058C4F8340101F11C03284AB888166BA57908FB00F730682C
:203370006D01381AA0F516705851A37901EB431021490D78012D0EBF0122916A4A7819E09B
:203390002879A37904280CBF4FF44B604FF4E66001F114025B01D258101ABA8808FB02F201
:2033B000A2F516729042D2D30821204613F01AF901200FE0C272A179DAF800000F4A0BFB33
:2033D00001F108442168486007201070204611F078FA0020BDE8F28F684E0020784F0020EB
:2033F0005C4D0020084F002030260020F4250020F82500204C920100734F00206F4F0020F2
:2034100000B5ADF5967DC848C84909F007FFC94813F036FFC64908600020C8490090102061
:203430000190C54841F2883200230EF02BFD4FF0804000210EF0A4FED7490860D7491F22FF
:20345000062310200AF04CFC01208DF83A000020ADF8300000208DF83B000620ADF832000F
:203470004FF44870ADF834000020ADF836004FF47A70ADF83800012140F205300DF13A02A0
:20349000FEF716FB40F2063002210CAAFEF710FBC84A4FF442701E21FEF70AFBC64A40F253
:2034B00007300721FEF704FB4FF4447001210DF13B02FEF7FDFA40F2113002210DF13202A1
:2034D000FEF7F6FA40F2123002210DAAFEF7F0FA40F2133002210DF13602FEF7E9FA4FF4E1
:2034F000457002210EAAFEF7E3FAB44800221523B349009010200AF0F3FBA020ADF83000CB
:20351000A649BDF83030062210200AF0E9FBA349BDF83030102007220AF0E2FB9F49BDF893
:203530003030102008220AF0DBFB9C49BDF83030102009220AF0D4FB00200C9001208DF871
:20355000340001208DF8350000208DF8360001208DF837009B490CA84FF48162042300901F
:2035700010200AF0BDFB0DA84FF4806201239549009010200AF0B4FB0DF1350040F202426B
:2035900001239049009010200AF0AAFB0DF1360040F2034201238B49009010200AF0A0FBC7
:2035B0000DF1370040F2064201238649009010200AF096FB844910204FF0FF320AF090FB1C
:2035D000824910204FF0FF320AF08AFB12F0AEFC4FF0FF300BF0C8F901208DF8280102202A
:2035F0008DF8290103208DF82A017949F8220CA80BF0D4F8002001214AAA07F075FD012022
:2036100001210DF2291207F06FFD022001210DF5957207F069FD0320F8210CAA07F064FDE7
:203630006C4813F0A1F86C496C4A10200AF058FB3D480178502010F029FC69490246102085
:203650000AF04EFB38480178502010F01FFC6549024610200AF044FB63491020FB2240F605
:2036700048030AF03DFB614910200AF039FB6049102004220AF034FB5E4949A008605D48F0
:203690004FF6FF72002110F00BFB434859490068032200230EF012FF57480FF059FA5749C0
:2036B00010200AF01DFB564812F054FC02A813F0FFFF04208DF808003220ADF80A0000204B
:2036D0008DF80C0002A9002009F0C2FA4D49086004A814F087FC059840F6B831B0FBF1F050
:2036F000401E0A9047480A99006814F0E0F845484549006801220FF0C7FE06A813F0D8FF5A
:2037100004208DF818003220ADF81A0000208DF81C0006A9022009F09BFA3C49086008A80A
:2037300014F060FC0CE0C046982500209C250020A0250020682500200C2400207D72010097
:2037500009984FF49671B0FBF1F0401E0B902F480B99006814F0ABF82C482D49006801224A
:203770000FF092FE0EF03AFD002010F031F9012010F02EF9022010F02BF9032010F028F959
:20379000244910200C220AF0ABFA0220012107F009F94BB000BDC046F40C0020BD84011042
:2037B00059752773204C6162205065726970686572616C000E0E0020DC1000207C0E002044
:2037D000CDF90000E94C00009D63010019680100A48A01001C1100200D6A010064100020D3
:2037F000518801103181011021B1001015F10000396F01004C0D002001740100C5AB00100C
:20381000181100201C26002089700100202600207170010081B300102DE9FE43BF4C0F46B0
:203830000646F80B80F05081B80880F03D81E07ADFF8F492B90F80F0B680607A002840F0A3
:2038500096803809C0F09580A07A20B10020A072052011F0ABFE00254FF0010865702846A0
:2038700084F8078008F013FEAD4904F174002A4614F081F8207901281AD16079C0B9DFF80A
:20389000A482D8F8000000284CD048460068006B804761694346401A000BA0611968E26931
:2038B0008018B0EBC11F98BFE0613BD9E56101E084F80480DFF87482A8F115000068000A25
:2038D00030D340F60900A08694F8410000F0F00040F0010084F84100E58694F8400000F0AE
:2038F000F00084F84000A56314F03FF808F6FF7211686FF0020321F00201116004F13401CE
:20391000C8F8FB3F8A4AC8F8EB1F11688908FCD3C8F8FB3FD8F8FF1F41F00201C8F8FF1F2C
:2039300014F05CFB656111F047F882480560022011F03CFE112009F0E9F9307C10B90E20DB
:2039500009F0E4F9E5712572A07818B906F1380014F01BF8784813F0A5FE78490878F8B115
:203970000D7004F1D000042114F017F818E0380914D2B80BC0F0C98004F1240014F001F8CC
:20399000061C08D0706830B17568F068B6F91C1000222023A84727F40057B6E00020607206
:2039B00027F00807B1E020B1042011F0FFFD0020E072B168088840F602054FF000088542E8
:2039D0000AD0B0F5C15F07D00A8B4FF61F60104040F43470088306E00A8A4FF61F601040C7
:2039F00040F4347008826069E0B1D9F85400016804208847B0B1D9F80000006B804761694C
:203A1000814226BF401A401E401A000BF060708AF168401840F6C411F06081422CBFB0F528
:203A3000FA7FF16094F8410010F00F0F0BD1708CED1D854207D1B56930466FF480714246D0
:203A50004FF00073A8473E4904F17400424613F092FF607958B10220ADF80000684612F050
:203A700029FC84F80580BDF80800A4F8700001206070E078401CE07004F1200084F806803B
:203A900013F07FFF002808BF47F0020702D0192013F06FFF7569414630464FF080630A469D
:203AB000A84727F0005730E004F12C05284613F068FF07F011FD284613F063FF27F0020793
:203AD00008B147F0020720E013F04FFF014604F1280013F056FF0646B569A80810D27EB1A5
:203AF00025EA0500B061084614F078FA706850B12A46F068B6F91C1075680023A84702E080
:203B1000084614F06BFA27F4804727B104F1D000394613F042FFBDE8FE83C0460802002046
:203B3000C1630100D82500208C010010150004401010044000000460E1B50000D4250020C6
:203B5000C5AA00002DE9F04F09AFADF13C0D08900A92388809911E46ADF81800101C08BF50
:203B7000002000F07581017800274FF0010B401C4FF0FF39B846DA460A9061E1252940F0F9
:203B900056810178401C0A902D2918BFADF8068004D10178ADF806B0401C0A9030291CBFA4
:203BB0004246434604D10178401C5A465B460A902A29CDF800804D4617D1049330680A9B78
:203BD000CDF80890C01C20F00300001D306050F8044C1978002C009403F101000A9018D577
:203BF000ADF806A06442009413E044460AE0600000EBC4004018A0F130040A9801780094EE
:203C1000401C0A90302901DB3A29F0DBCDF8089004932E2929D10178401C2A290A9011D152
:203C30003168CDF80880C91C21F00301091D316051F8045C002D48BF454601782B46401C2F
:203C50000A9011E0454643460AE0680000EBC5004018A0F130050A9801782B46401C0A9013
:203C7000302901DB3A29F0DB02930AB1224604926C2904D04C2918BFADF8048004D1017857
:203C9000ADF804A0401C0A900BA8CDF80C800FAB07906429059300F0828069297FD0BDF8D3
:203CB00018C075296DD0782969D06F2965D070294ED063293ED0732922D00A98401E0A9021
:203CD000099801281AD966490C68B5F1FF3F03D0A84288BF6D1C05D86FF00041814294BFF0
:203CF0000D1C099D029508A80AA932466B46A04709993F18091A0398099165E0454617E0C3
:203D10003068C01C20F00300001D306050F8040CBCF1010F014608B94FA00146079113F071
:203D300009FB0390B5F1FF3F4FD0A8424DD9039528464AE03068C01C20F00300001D306065
:203D500010F8040C8DF82C005D46039558463CE0082035680490E81C20F00300001D306078
:203D700050F8041C082210230FA80DF0ADF8401E079040210170079823E0082302E010236C
:203D900000E00A233068C01C20F00300001D306050F8041CAA42BCBF2A1C04920DE03068A2
:203DB000C01C20F00300001D306050F8041CAA42BCBF2A1C04926FF009030FA80DF084F811
:203DD00007900599081A0390009C241ABDF8065000945DB906E008A8202109AA12F026F8B0
:203DF0007F1C009C641E0094F5D50398401EB0F1FF3F03900FD1BDF8060001281CD10098E8
:203E1000401E009018D408A8202109AA12F00EF800987F1CF4E70798017809AA08A812F081
:203E300005F80798401C079003987F1CDEE708A809AA11F0FBFF7F1C0A980178401C0A90DE
:203E500000297FF49BAE089808B14146017038460FB0BDE8F08FC046286E756C6C2900C0E9
:203E700008920100BB482DE9F84F0025BA4CB849056094F8E200002800F06581012800F021
:203E90002F81B64E02283CD0032840F05C8151F8250CD4F8B8100029A0F5C060C4F8D40074
:203EB000B8BF49420028B8BF4042814226DA4FF08057D7F8A4014568B4F8BC0030214FF4D9
:203ED0007F42082300903046A847D7F8A4014568B4F8C00004214FF4F802122300903046C7
:203EF000A847D7F8A401B4F8D070456820214FF440620A2330460097A847012584F8D8509D
:203F10001CE151F8258C13F0EBFB2F4600B901273946934F38680028FCD0B146012609F14E
:203F30000409D9F82CA03E6009B113F0DFFBCAF30720C4F8BC0013F0D3FBAA4600B9B246C4
:203F50003B68002BFCD0D9F800B0BAF1000F3E6001D013F0CBFBCBF38440C4F8C00013F043
:203F7000BFFBAA4600B9B2463B68002BFCD0D9F81C90BAF1000F3E6001D013F0B7FBC9F325
:203F90008120C4F8D000B8F5C061C4F8B81000F09C8094F8D80068B9C4F8D410D4F8C000D5
:203FB000C4F8C800D4F8BC70C4F8C470D4F8D030C4F8CC30D4F8D410D4F8BC30002954BF5D
:203FD00002206FF0010004F1C802176801EB41014018411000EB917107EBA1001060D4F87E
:203FF000C810C4F8C43000291CDD1E293CDDD4F8CC0030B93429B4BF15391E21C4F8C81035
:2040100025E02A29BABFD4F8C8000B381E20C4F8C800D4F8C4003F28B4BF401C3F20C4F845
:20403000C4001FE0D4F8CC00032812D011F10B0FC6BFD4F8C8000B30301CC4F8C800D4F8FC
:20405000C4000028C4BF401E051CC4F8C450032508E011F1150FC6BFD4F8C8001530301CB2
:20407000C4F8C800C4F8CC504FF08057D7F8A401B4F8C43030214FF47F4245683748009396
:204090000823A847D7F8A40104214FF400321123456832480096A847B4F8C860D7F8A401C0
:2040B00004214FF4F802122345682C480096A847D7F8A40120214FF440620A23B4F8CC6014
:2040D000456826480096A84701E084F8D85040F2FF50404502D8801C40452FD2082030E071
:2040F00051F8251C1F4F4BF2F5204843060A3868C0F3814001280CD11B48006800688047B7
:2041100010F03CFC13F0F8FA3111C010484306EBE03694F8E50030B91448006820F07F40D1
:204130008019460801E084F8E5501148310C0660012741600F4D8760287808B90B2000E082
:20415000052084F8E40004F005FDBDE8F88FC0462D400C402C500C40F006002000A00C401F
:2041700000800C40B43F0050EC010010102009403C600C40E29001002DE9F04F0D46E807B8
:2041900089B00BD513F0B8F928B100218160AE48006800B1804785F0010052E1A80710D554
:2041B000002006900021049000230290009005910393019101223C2013F00CFF85F002007D
:2041D0003FE11E246807DFF88482A14F40F19B800020079082469F498878FF2804BF002074
:2041F00012F022FB386890F8A00013F067F806463868C07A96F82EB1022818BF032806F5AC
:20421000947906D108F10D0013F0E0FE08B908F1070A4946584613F0D5FE88B33868807A20
:20423000002818BF012804D14146484611F012FC04E04A46594640460DF070FBFF283DD018
:204250006043834608EB0B0406224946E01D12F0BFFE18F80B0040F0020BE01D0790062259
:204270003868817E01F0010186F82E1104F10109386800F1140106F5947012F0A9FE1DE095
:204290004946584612F046FFC0B14A46594640460DF044FBFF2811D04443444404F10D001F
:2042B00013F094FE40B904F10D0013F08FFE002804BF607F012801D14BF0020B06F12C009E
:2042D0005B4601780691418909090591728C079904920122C088029140080390CDF804A035
:2042F000CDF800900020B17913F074FED6F89C0159498842B0790CBF002101210BF092FA05
:2043100085F004009DE0280610D500200690002104900023029000900591039301910122F3
:204330003B2013F057FE85F080008AE0E8043CD508F1070108F10D0013F040FE38684179BC
:20435000012923D1017A012918BF04291ED1C17A022918BF032919D1817E00F114024046B8
:204370000DF0DCFAFF2811D04443444404F10D0013F02CFE50B9E11D04F10D0013F01EFEEC
:2043900038680622E11D143012F022FE334934484A6800784FF480510FF05EFC10B18E20E3
:2043B00013F008FE85F480504BE0A80505D513F097F92C4901200860FEE7690504D508F034
:2043D00086FB85F480603CE0680405D5812013F0F1FD85F4804034E0A80431D5224C20680A
:2043F00010B1002012F020FA4FF0FF3020600DF079FD1E4C216851F8202F684690471C48DB
:20441000C16A026B2468009101920021029100F134014A6809781368806A03938DF8101097
:20443000ADF812006B46D4F80080124A12491348C0471349086004F01FF985F4005000E026
:20445000002009B0BDE8F08F204F002048150020104F0020684E0020DF250100784E002003
:204470006E4F0020FC002043044F0020F04E0020D00B0020C4230020680F00208849002095
:20449000EC4E00202DE9F04FB64D686885B0019020B905B0BDE8F04F13F088BD0178DFF8BA
:2044B000C882B24EDFF8C892DFF8C8A201291CBF0229042946F2A81741F64C5B05D04029C0
:2044D00018BF802900F09A8043E113F057F90028FAD00198007806F021F80090446814B9B0
:2044F000002012F0A1F99AF80100002860D002F0EBFB12F0E3FE02900168009801914F686E
:204510000CF05EFE022827D000990A78012ADBD1994B19680A7A19F80230337018B913F07D
:2045300041FD5844A0602069C17E01F0EF01C1762069C17E41F08001C1762069C17E01F047
:20455000F00141F00201C1768C48B96841182069C16101210098A0E001980178802913D11D
:204570000822874832700178012903D09AF80100012803DD78690121C17213E0D8F828104D
:204590007A690878D0720DE07D49072030700A787869012A02D10123C37203E0D8F8281047
:2045B0004A78C2720298817901988AF80210CBE00098002888D00199009A0078914205D11C
:2045D00001281CBF002012F02FF915E0012840F0C080694801680A7A19F80200307013F09B
:2045F000E1FC3918A06813F0D9FC18B913F0DAFC5844A0600120A8700098A5E09AF801006E
:2046100000287DD002F060FB12F058FE04462068029047689AF8020012F050FE039013F0E3
:20463000B3F810F0070F3DD0A87805F077FF019041680198009102990CF0C2FD022831D02C
:2046500001990A78012A2AD14B4B19680A7A19F80230337028B913F0A5FC83440098C0F8EB
:2046700008B000990869C17E01F0EF01C17600980069C17E41F08001C17600980069C17EA8
:2046900001F0F00141F00201C176009AB9683B4841181069C16101210198A97054E0002063
:2046B00012F0C2F80398A04228D002980178802913D10822324832700178012903D09AF8CB
:2046D0000100012803DD78690121C17213E0D8F828107A690878D0720DE0294907203070C4
:2046F0000A787869012A02D10123C37203E0D8F828104A78C272A0798AF80200029823E0D5
:2047100013F042F810F0070F29D0A87805F006FF04462078D4F80480012820D116490A6806
:20473000107A19F80010317013F03CFC3918D8F8080013F033FC20B913F034FC5844C8F81F
:2047500008000120A870204605B0BDE8F04F07F0CDBD05B0BDE8F04F002012F065B805B0FB
:20477000BDE8F08F742500204C9201006F4F0020289A0110684E0020104F0020F0D8FFFFA1
:20479000734F002000B5ADF12C0D8DF80400F6E04FF4417002A900F073FE9DF808008DF81A
:2047B00010009DF809008DF811009DF80A008DF8120000208DF8140000208DF813009DF869
:2047D0000D008DF817009DF80C008DF816009DF80B008DF81500082104AA002002F080FD44
:2047F00002A80AF07DFE03468D480078001DC1B28A480068002211F05AFB89480078C01C8D
:20481000C1B286480068002268A311F050FBCAE083480078C01CC1B280480068002266A3CF
:2048300011F045FBBFE000208DF81C007D49102009F056FA8DF81C007B499DF81C2002ABA5
:204850001020521E09F04CFAD8B99DF81C00009073480078C01CC1B270480068002259A3D7
:2048700011F025FB0DF10A000AF03AFE03466C480078401CC1B269480068002211F017FB3B
:204890001BE040F2153008A900F0FAFD64480078C01CC1B26148006800224EA311F007FB64
:2048B00008A80AF01DFE03465D480078401CC1B25A480068002211F0FAFA5C484FF6FF7174
:2048D00000220FF0EDF96EE055480078C01CC1B252480068002242A311F0E9FA63E01420AB
:2048F00008F000FF4E480078C01CC1B24B480068002241A311F0DBFA4C4800214FF6FF7212
:204910000FF0CEF94648017845480078801CC2B24248006812F0C0FE45E0142008F0E2FEC2
:204930003F4801783D480068002237A311F0BFFA3E4800214FF6FF720FF0B2F938480078C5
:20495000401CC1B236480078801CC2B23348006812F0A2FE27E032480178304800680022F1
:204970002CA311F0A4FA1EE02D4801782C480078801CC2B22948006812F08EFE13E09DF8E2
:204990000400401E3FF404AF401E3FF441AF801EA5D0401EC1D0401E3FF445AF401E93D0F6
:2049B000401ED8D0E0E70BB000BDC046496E697469616C697A6564004164766572746973E4
:2049D000696E67004E756D20436F6E6E733A20256400C046436F6E6E656374656400C046B6
:2049F000436F6E6E6563746564204164766572746973696E6700C046446973636F6E6E653B
:204A10006374656400C046C054696D6564204F757400C0464572726F7200C046F40C00209F
:204A300041260020F17F0110097F01104C0D00202DE9F04F0546A74CA878216AADF11C0D47
:204A5000801F00F04181C01E00F02C81401E78D0401E56D0C01E4AD0401E40F03781207A78
:204A7000617A00283FD1607800283BD0A88813F091FA071C00F02A81A87A40080AD3787954
:204A900040B1E968890A05D2B91D01AA09F024FA0A2825D0207B022802D1A87A00091FD3E6
:204AB0006078AE887979C0B1607CB0B90120607405F10802304604F065FB002840F0068192
:204AD000206A002800F002814368002B00F0FE80002130460A469847F8E00521304603E040
:204AF000032100E00521A88813F050FAEEE0002900F0EC804B68002B00F0E8806A78022171
:204B1000CEE012F001FD002800F0E080276A0FB1386868B9286900280CBFE069012069896D
:204B300013F030FA002800F0D18068890121DBE7286900903C6869892A7B6B7BE81CA047CD
:204B5000C4E068784FF00008002840F09880A8794008C0F09480606A002840F0908001A802
:204B700041460E2212F023FFA88813F013FA061C00F0AC80686900285CD081464146062231
:204B9000113012F002F9C24640B348464146062212F0FBF8F0B999F8100004F1F20309F16C
:204BB000110B0593474606907F1C5846FFB28BF8007011F0E3F80A280BDA059B069A0101FC
:204BD000A1EB4001C9188879824202D1002FEBD100E01FB947464FF0010A6F61BAF1000F7B
:204BF00009D109F1110101A8062212F0F1F999F810008DF80A00BAF1010F1BD06F69CFB1D4
:204C1000387C07F1110106228DF80A0001A812F0DFF906F10C00B11D062212F0D9F9B01DF2
:204C300007F11101062212F0D3F9387C40F00200707107E07079B11D06228DF80A0001A89F
:204C500012F0C6F9A9799DF81120C1F3800010438DF81100080905D39DF8110040F00800B7
:204C70008DF8110001A8294602F0FEFE28B92078022107F0B7F8404629E04FF0150812F059
:204C9000B3FD206A10B3436803B3A8886A7801219847B8F1000F19D0206A03214246436811
:204CB000A88818E7E878291D002209F015F90A280CDA410001EB800005F10C0225300421A3
:204CD000C0B211F08BFE01E00DF0AEFC012007B0BDE8F08F400400207CB5A34D144602461D
:204CF0000026A2F58062192A1BD8DFE812F032012B0123011A0112010D010501FE00F4004F
:204D1000E800E000D800C600BA001A001A00970081007A0065005C00520047003A003000D9
:204D30002500282880F29B80022940F09880218813F024F9064615E1012940F0128121785D
:204D5000284601750121C17412F0C2FA0AE1012940F00781002C00F00481284612300246E4
:204D700014E0102940F0FD80002C00F0FA8028465C301022214612F02BF9F3E0012940F0CD
:204D9000F080002C00F0ED802A46921D21781046E5E0262940F0E580002C00F0E280284667
:204DB00026226C30E6E7012940F0DB80002C00F0D8802846401D9DE0602900D144B9012940
:204DD00040F0CF80002C00F0CC8028460D3091E005F192002146602212F0FAF8012068735F
:204DF000C0E0012940F0BD80207813F0C3F8B9E0012940F0B6802178022900F3B280284696
:204E100000F10C0211702178022918BF301C02D11021C172012013F0A9F8A3E0072940F03C
:204E3000A080611C6846062211F02AFF20786946324609F051F804460A2C10DA13F092F8CD
:204E500040B9204605F090FC502011F0B8FF0DF0FBFD87E0284601212C30015582E0022612
:204E700080E001297DD12A462178907B0028917378D12078012875D1E9E72846027B0129D5
:204E90006FD1022A04D02178072901DB102904DD022A66D12178102963D1C17262E00129FB
:204EB0005FD121780A295CDA2846093057E0012957D12178022954DA284608304FE0002990
:204ED0004FD113F04FF810B912F02FF9BCE7284601210F3043E0042943D1216823488842D1
:204EF0003FD328461C3001603CE0012939D12B4603F10A00217832E0012932D1217802291A
:204F10002FDA2846C01D2AE010292AD128464C302FE7012925D12178022922DA2846001D84
:204F30001DE001291DD1217804291ADC2846C01C02462CE7012914D12178022911DA2846BF
:204F5000821C24E702290CD1218828461630018008E0012905D12178022902DC044801706B
:204F700000E0182630467CBD400400203F420F00410400202DE9F04F9E4C20780E46F10BD4
:204F9000ADF11C0DC9036ED1B0085ED2606AA16A720807D2F00828BF86F0040680F02581AA
:204FB000002023E1858861B904F11800924A00904FF6FF710223012012F0D0FF0146A16207
:204FD00021B304A800900027019702230293FF220392228B28460DF1120301F067FC58B9EF
:204FF0009DF813009DF81220A16A12EB002204D0498928460DF0CCFFA16A228B08463B46A5
:205010004FF6FF7112F0A6FF0146A162206A00291CBF012186F001061FD168B14368616A2E
:205030005BB18888002201219847206A676A4368B888032100229847616A888812F052F98E
:2050500011F0D8FD86F00106CFE00020014602F00BFD30B1012186F00206207806F0C2FE0E
:20507000C3E00221F7E70BF0F7FE5FEA000800F0BA80054628784FF0010AB03812D0401EB4
:2050900003D01F3800F0A580A7E02879002840F0A480B8F80200B8F80610B8F808200DF0D0
:2050B00077FF9DE02879401E41D0083803D0743800F0828087E068781A2879D068888146A3
:2050D00012F08CFB801E18D0401E7CD1288901280AD16889032807D1E9688A784846042157
:2050F0000EF0BEF8024600E01822206A00286AD04368002B67D0042116E02989688852463C
:205110000129814609D16989032906D1E9688F781FB910210EF0A4F80246206A002852D0A8
:205130004368002B4FD00521484698474BE02B7A688805F10807082B814639D112F04EFBC3
:20515000801E12D0401E33D1287B0A2818BF122205D16889042100220EF082F80246206A25
:2051700030B3436823B3042120E07888102100220EF076F8237D834693B1484612F00AFF91
:2051900070B11E490B784BB94179831D524601F001010846194611F0D1FD01E05046E074C4
:2051B000206A28B143681BB105215A4678889847688812F097F806E06A8812F00FFB0146B4
:2051D00010460EF091FA297905F1080012F0BEFE03E04046FFF72CFC8246BAF1000F02D0A7
:2051F000284611F061FB86F40046B0B207B0BDE8F08FC04640040020149201005A4F0020FD
:205210002DE9FC41884C894A2678894F894D8A490D2E30464FF4A0534CD8DFE816F0030189
:205230000E000E000E000E00FB00FB006800FB00A700A700D800D800DF008049176041F27D
:2052500004464C887E4FB4421CBFB1F81AE0B6450BD0B1F83280B0451CBF41F20A46B44265
:2052700003D0B64518BFB04502D12E80176076E0022C744E2C8035D94FF48067E41B1AD079
:20529000241F012C1DD94FF47F77E41B1BD04FF44067E41B0FD0A41E012C0CD9241F0AD0BC
:2052B000641E012C0DD940F2F937E41B012C19D9241F08D0AEE0022814BF2B80624E166052
:2052D0004DE0624EFBE762480468257A012D05D141F20240488048834886F0E74B804B8300
:2052F0004B86ECE7002011F09FFA832096E059488178FF291ED01C2041435748176040F26F
:2053100004460068841C645A2C80A41B012C534D10D94FF47F76A41B15D00A3C012C14D910
:2053300040F6F636A41B032C84BF641F012C0ED9A41E012C76D940F2FD36A41B07D0641E78
:20535000012C02D905E041F20143801C4352156005E0002011F068FA852012F073FEBDE80E
:20537000FC413F480078012106F03CBD4A882A8040F20443D21A55D040F6FC73D21A15D054
:20539000083A4FD04FF47F73D21A22D1354C364A2568364800680023CDE9002355F8086F54
:2053B000334B0222B047334908803BE0092810D131490A68508960B1304908780DF0C0FA8D
:2053D0000021002012F0BEFD002020702AE048882880002011F028FA85201FE04A882A802A
:2053F000022A0DD940F20440121A1BD040F6FC70121A05D0083A15D04FF47F70121AE8D11D
:20541000887B801CC0B2B528A8BF662088730020488007E0002011F007FA8420BDE8F64135
:2054300012F010BEBDE8F3816F4F0020204F002045790100504F0020B8240020204A002002
:2054500039200000E5AD000079D10000755B0110104F0020684E0020F4250020AD66000085
:205470006E4F0020F04E002002000080EC4E002059460100424F0020FC250020714F002093
:205490000EB50091ADF8040000208DF80600A8E07948009900780870EAE00098774910222E
:2054B00009F07CF9E4E000987549102209F076F9DEE07448009900680860D9E072490098CB
:2054D0000A68026089888180D2E07048009900780870CDE06E48009900780870C8E06D489A
:2054F000009900880880C3E06B4900980A786B4909F054F9BCE06A4900980A78694909F074
:205510004DF9B5E06848009900780870B0E06748009900780870ABE0654900980A680260FA
:2055300089888180A4E063480099007808709FE061480099007808709AE06048009900889D
:20555000088095E05E4800990078088090E05D480099008808808BE05B480099008808808A
:2055700086E05A4800990088088081E058480099008808807CE0574900980A680260898847
:20559000818075E0544800990088088070E053480099008808806BE051480099008808803F
:2055B00066E0504800990078087061E04E480099007808705CE04D4800990078087057E083
:2055D000BDF80400282808DA4949BDF80420102008F086FB009908804AE002208DF80600C4
:2055F00046E0BDF80400A0F540701D28E8D802A151F820008746C046A1540000AB5400009F
:20561000B7540000C3540000CD540000DB540000EF540000F95400000755000015550000B2
:205630001F5500002955000037550000415500004B550000D1550000555500005F55000022
:2056500069550000735500007D55000087550000955500009F550000A9550000D155000004
:20567000BD550000E5540000B3550000C75500009DF806000EBDC046212500202C25002068
:205690003C25002024250020C4250020480E0020490E00204A0E00204C0E0020D00D00202B
:2056B0004D0E0020EF0D00202825002029250020EA1000202A2500202B2500204E0E0020F3
:2056D000121000201410002016100020181000201A100020F0100020500E0020520E00203E
:2056F000540E0020560E002020250020570E0020F58401100EB58DF80400F6E000200DF1E0
:2057100005010BF001FB9DF80500012813D1844903200860834901200870834901200870B3
:20573000824901200870824800680DF0D3FE814811F0B0FD43E09DF8050050B97A490020D5
:2057500008707A4900200870794800680CF0C4FF35E09DF80500022807D1774800680DF0A9
:20577000B9FE76490120087029E09DF80500032811D1714800680CF0AFFF0220012105F056
:2057900011F96E4900200870684900200870694811F08AFD13E09DF80500032290FBF2F1FE
:2057B0005143401A5E4908609DF80500072803DA5C490020087002E05A49012008709DF846
:2057D000050000905F480078401CC1B25C48006800224DA310F06BFB95E001200DF1050118
:2057F0000BF092FA012001210DF1050205F07CFC89E002200DF105010BF086FA9DF80500B9
:2058100009F0E2F99DF8050000904E480078401CC1B24B48006800223EA310F048FB72E00A
:2058300003200DF105010BF06FFA9DF80500012810D13B49032008603A49012008703A497B
:2058500001200870394900200870394800680DF041FE58E09DF8050050B933490020087071
:20587000324900200870324800680CF035FF4AE09DF8050002280DD12F4800680DF02AFE23
:205890002E4901200870294900200870294811F001FD38E09DF80500032811D126480068D9
:2058B0000CF01AFF0220012105F07CF82349002008701E49002008701E4811F0F5FC22E0B9
:2058D0009DF80500032290FBF2F15143401A144908609DF80500072803DA1249002008703F
:2058F00011E01049012008700DE09DF8040000283FF404AF401E3FF470AF401E3FF479AFB8
:20591000401E8DD0FFE70EBD4368617220313A20256400C04368617220333A20256400C025
:20593000DC0C00203D260020E00C0020F10C00201C2600200C24002020260020E10C00207E
:20595000F40C00204126002010B50B7884074CBF43F0020303F0FD0304064CBF43F08003BC
:2059700003F07F0304074CBF43F0080303F0F70384064CBF43F0200303F0DF0310F0AA0FE8
:205990000B7004D0107840F00C00107010BD18B9117801F0F301117010BDF8B50F460026E2
:2059B0003878022814461D4667D1786801784278069801EB022189B2002818BFB1F5285FE1
:2059D00001D00B20F2BD4FF42850091A0AD0491E1ED0491E4BD0491E22D0491E28D0C539C7
:2059F00041D04AE0F86811F0E6FF069B079980B2C21A8A42ACBF0846C01A80B2C11816291E
:205A100004DA28800246F868C1180DE00D2636E0F8680088022129802070000A60702EE00D
:205A3000062028800622F968204611F0D1FA26E0F868B0B108212980018821700188090A7E
:205A500061704188A1704188090AE170818821718188090A6171C188A171C088000AE071D7
:205A70000DE029800BE04A480178CA0705D401202880F8680178217001E02E800126304681
:205A9000F2BD2DE9F8460E46814630780024022817469A4678D17068017842783C4D01EBDC
:205AB000022189B24FF42850091A08D0491E30D0491E55D0491E3FD0C63960D064E0F0688E
:205AD00011F079FF089980B2884206D308460AEB0001162903DB0D2457E0072455E0F36843
:205AF00052463946184411F073FA08985044ADF8200000210898F368C0F11602184411F07A
:205B100056FF686800281CBF0268002A3DD0002123E0089888BBBAF1020FDCD1397878789B
:205B3000F26801EB00211180686800281CBF0268002A2AD0012110E00898F0B9BAF1060FE1
:205B5000C9D1F0680622394611F042FA686800281CBF0268002A18D003214846904714E093
:205B7000089850B9BAF1010FB5D13878002813BF0128F1680870802407E00B2405E0287848
:205B9000C10758BF032400D501242046BDE8F2863C1000202DE9F04F8246DAF800600C4665
:205BB0005FEA0208ADF11C0D14BF00214FF0FF3106F14800834611F009FC002818BF0B2020
:205BD00040F00681002565708448F460B8F1010F057004D065700220F4600FF005FE2078FD
:205BF000012840F2AB80801E012868D9801E012833D9801E012800F2DF8011F0B6FE0690D1
:205C10004FF0805000F5EE77D0F8DC01A378466A009321782846062908BF01200190012038
:205C30000290A068228AE1686368B0478146069812F0D4F9B9F1000F40F0C080B8F1000FEE
:205C500002D011F089F902E0504610F05FFA002800F0A4803868806A2AE011F086FE069023
:205C70004FF0805000F5EE77D0F8DC01012306680093A168A27860682478AC46042C08BF71
:205C90009C466346B0478146069812F0A7F9B9F1000F40F09380B8F1000F02D011F05CF98F
:205CB00002E0504610F032FA002877D03868406880474949C1F8B0510D6081467EE011F0D3
:205CD00054FE06904FF0805000F5EE76D0F8DC01E38A87690093E0680190208B0290A078A1
:205CF0000390207D04900121059122782846022A08BF081CE1786268A368B8478146069867
:205D100012F06CF9B9F1000F58D1B8F1000F02D011F022F902E0504610F0F8F900283DD0E6
:205D30003068006A80475FEA000947D13068C569A168E28A2369E078A847BEE711F015FE59
:205D500006904FF0805000F5EE76D0F8DC01E38AC7680093E0680190208B0290A0780390A0
:205D7000207D2946049001200590257805B9014608466268A368E178B8478146069812F039
:205D90002DF9B9F1000F19D1B8F1000F02D011F0E3F802E0504610F0B9F908B9142017E0AE
:205DB0003068406980475FEA000907D1306802692169E078904780E74FF0FF39B8F1010F4E
:205DD00002D002200FF0F2FB584611F0DEFD484607B0BDE8F08FC046504502403E2600208F
:205DF0002DE9F04FDFF80CB29BF80000002885B004D0401E032804D9801F012840F2F7800E
:205E1000EFE07D4DDFF8F4812868DFF8F49103687C4E03F10807062207F1080103A811F094
:205E3000D7F80622B91C01A811F0D2F83878C0F380118DF800101E24C10900F00F02032A4F
:205E500039D16879C0F38000814233D12969062203A810F019FD00282CD09DF8000001A96F
:205E700012F0B0F8002825D0314601A80FF0F2FD0746FF2F1ED0D9F80000807A6743002837
:205E900018BF02280BD0012818BF032812D1701CF25DC119404612F051F810280AD0F41963
:205EB00001AAE11D40460BF0FCFE062201A9E01D11F08EF890E000F00F00052840F0978075
:205ED0006879C0F380008142F4D12969062203A810F0DAFC0028EDD09DF800003F7801A900
:205EF00012F070F87F0940F2024A88B3314601A80FF0B0FD8346BBF1FF0F6DD0D9F800008A
:205F1000807A002804FB0BF118BF012800910CD0022818BF03285FD10846711C325C0144DD
:205F3000404612F00BF8102856D0504612F002F8009806EB000A01AA0AF1070140460BF014
:205F5000B0FE062201A90AF1070011F041F81CE09BF8000002283FD19DF8001001AA3046E6
:205F70000BF0DCFC8346BBF1FF0F35D004FB0BF03118487F012805D070BB01F10D0012F082
:205F900025F848B3504611F0D5FF04FB0BF4D9F80010305D88760622701C0119D9F8000065
:205FB000143011F015F8184918488A78510604D5F90758BF41F20A4101D541F204414180E8
:205FD000418341861248134A01801348134908600121107805F006FF29680A680020107187
:205FF00005E0002010F020FC862012F02BF805B0BDE8F08F6F4F0020F44B0020CC4700205C
:20601000104F002048150020F0240020204A0020504F00206E4F002039200000204F002032
:206030002DE9FE4F05467E48002400680094C0090ED37C48007858B97C497B4851F8112CB7
:20605000104040F0817041F8110C20200EF072F8012D40F0E080DFF80092D9F8DC000128C4
:2060700040F0D6800220C9F8DC0010F04DFB01200EF060F85FEA000805D00120C9F8DC0028
:2060900010F052FBC9E011F084FCA34602906848684DC0F800B0A86A01680120884701289D
:2060B00004D158460BF0F8F8012000906248634FC0F800B03868112011F030FB00B101242A
:2060D000102011F02BFB08B144F002040F2011F025FB08B144F004040B2011F01FFB20B10A
:2060F0002868574E016B308888470A2011F016FB20B12868534E016B308888475248012676
:2061100006602868816944F0200088474F48066011F0FEFA00F001010191400814D2286A32
:2061300081684B4888478246BAF1040FF7D0BAF1010F04D1286A42684548032190474549D5
:20615000086820F003000860584600F0B7FC2B683868986B8047019801280CD0BAF1010FAD
:2061700004D1286A42683A48314690473949086840F0030008603048066028684169204623
:2061900088470B2011F0CAFA20B128682C4BC16A188888470A2011F0C1FA20B12868294B03
:2061B000C16A18888847284806600322C9F8DC20264BC3F800B02868416B20468847012807
:2061D000F9D1386804200DF0B5FF0446184806603868134800688009FBD30098012802D112
:2061F00030460BF059F811F081FA08200DF0A2FF07460298C9F8DC6011F098FE0BF0F4FB26
:2062100010F092FA57EA040018BF4FF0FF3804E06FF0040801E06FF001084046BDE8FE8F00
:2062300014100940D8070020FFFFFCFC150009400C400940B8010010000222432C20094034
:20625000DE8C0100DA8C010028200860800104430040034024220840F00600200EB58DF875
:2062700001108DF800008848006830B94FF0004000210BF085FF84490860834800680021AF
:20629000002256A30FF013FE97E07F4800680021002256A30FF00BFE7B4800680221002269
:2062B00055A30FF004FE97E09DF8010001280ED175480068002100224CA30FF0F8FD7248BB
:2062D00000680221002251A30FF0F1FD84E06E4800680021002245A30FF0E9FD6A48006874
:2062F000022100224FA30FF0E2FD75E066480068002100223DA30FF0DAFD634800680221DF
:2063100000224DA30FF0D3FD01208DF804009DF80400002860D09DF804000028FBD15BE029
:20633000594800680021002230A30FF0C0FD564800680221002244A30FF0B9FD01208DF8E5
:2063500004009DF80400002846D09DF804000028FBD141E04C4800680021002223A30FF0A0
:20637000A6FD49480068022100223CA30FF09FFD01208DF804009DF8040000282CD09DF8B6
:2063900004000028FBD127E03F4800680021002216A30FF08CFD3C4800680221002234A373
:2063B0000FF085FD01208DF804009DF8040098B19DF804000028FBD10EE09DF80000801E12
:2063D0003FF472AF801E3FF460AF401E8ED0401EA6D0401EBED0D7E70EBDC0463E3E3E5361
:2063F0005441434B20415353455254002A2A2A4552524F522A2A2A003E3E204F5554204FEF
:2064100046204D454D4F52592100C0463E3E20494E5445524E414C204657204552524F52A6
:206430002100C0463E3E20494E5445524E414C204552524F522100C03E3E204943414C4CA0
:206450002041424F525421003E3E204943414C4C2054494D454F55542100C0463E3E205711
:20647000524F4E47204150492043414C4C2100C03E3E2044454641554C54205350494E4C78
:206490004F434B2100C046C0F40C00202DE9F84F0024774D774EDFF8E0B1DFF8E0A1DFF867
:2064B000E081DFF8E091D9F800104A7A01231820A34060431A420AEB000709D0087A38F8B9
:2064D00010203A8000201BF80420BA73F87302E040F6010038800020788007F11800786002
:2064F000387B00F0EF0040F080003873097A01290ED141F28830B860387B00F0F00040F04D
:2065100005003873787B00F0F00040F0020019E0002C0CBF0221002100F0F00008433873AC
:206530003CB911F03FFD00F5C870CAF80800022004E00020022CB860F9D10120797B01F0E6
:20655000F00108437873641C3E61022C7D61AADDD9F80000017A01290EBFCAF834A0002059
:20657000CAF834000FF086FB3060474880690078C1074CBF1021002182074CBF20220022F8
:2065900043074CBF4023002300074CBF8020002011431943014341F00F0131710020707166
:2065B000D9F80010887A00F003007071CA7A920002F00402104370718A7ED20002F008023C
:2065D00042F0100210437071087A012818BF042806D10020B071F071B06001F1140216E0FE
:2065F000487FB07101F15D025078F071487F20B10B7FC3EB4313C8181E30B060507828B124
:206610001278C2EB42128B1803F15F001F4AF060726101F10C0030611D4BF07E727900F01D
:20663000E00040F08600F0761A48F061187828B1307900F0FE0042F040023071164B987815
:2066500043064CBF42F0200202F0DF02727100202880A870E87028716871E8802881A872F7
:20667000E872E8600868C0F804A0BDE8F18F00BFB44D0020F44B0020409A0110204A0020C3
:20669000109A0110104F00204C920100D0470020784E002000204E00F02400207E48807854
:2066B000FF2800D170472DE9F84F10F007FE054605F217100178012908BF417800F0A2801B
:2066D00005F17400817B022903D105F174020020907305F59276F18911B1307B05F082FB5B
:2066F00068896E4F288105F58D78B87AFB793A7BF97A7C7BB8F800C000EB030E96448E4457
:2067100074441FFA84FEB8F80440641CA8F80440F444B8F80240A8F800C00419A8F8024035
:206730004FF01C0C3468FCB1DFF8749195F806A0D9F8009009F10E0B0CFB0AFA09F10E09FA
:206750001BF80AA034F81AB0F34424F81AB095F806A00CFB0AFA19F80A9004EB4904B4F888
:206770004AE08644A4F84AE0002B08BF002904D1002A04BF797B002923D02A89E8898218A4
:2067900000202874AA81287F012804BF698CE983787868B10121297705F1740188780028B0
