:20000000004000202541010001C9011001C9011001C9011001C9011001C9011001C90110F7
:1C00200001C9011001C9011001C9011001C9011001C9011001C901103FC9011089
:20003C0080B54FF4FC720FF278011A480EF072FD012119484174002202210270C17601BD91
:20005C002DE9F0410FF2502214493820136854689568D6681769D2F814C0D2F818E0D2F8F9
:20007C001C800B604C608D60CE600F61C1F814C0C1F818E0C1F81C8020322031401EE5D1DC
:20009C0050689368D46812680A6048608B60CC60BDE8F081480400215903002100C00021D1
:2000BC00410500217D0500212D06002170B51D46004C204787B2000010B5014800470000FD
:2000DC00D509000070B5614C6148254650358047022809D14034E1885E4A914204D1E97C5E
:2000FC00890601D4911DE18070BD70B557495A4A084650300378002B10D08379012B0DD181
:20011C00037C5B09DB0709D0097D544DC1746C7F20202043687790476C7770BDFF21C17420
:20013C00904770BD10B54E48484C804702280ED121464031CA88474B9A4208D1CA7C5209CE
:20015C00D20704D0227D920601D49A1DCA8010BD70B53E4843494030C07C4009C00707D032
:20017C003E4D41482C8B2043288388472C8370BD884770BD10B53B48344CAC388047214609
:20019C0053310A789309DB0705D04034A2730A7803231A430A7010BD2C4940310871182876
:2001BC0012D004DC0A280BD00B2804D10AE025280CD02A280CD02D4980004018C0687047DE
:2001DC002B4870472B4870472B4870472B4870472B48704770B504461C484E252D5CAE09AB
:2001FC00F60716D0067D3007000F052803D00120054202D00DE00220FAE7E80905D07006D1
:20021C0003D54868800F012803D05B085B0052085200062B03D01020022B11D011E0FB20F7
:20023C00024002232046FFF741FF002807DAC100611A2039497E1422114200D1002070BD93
:20025C00024303432046FFF731FF70BD4401002137CB000004140000EBC80000A800002142
:20027C00F5B4000053AD00002020000080DF00001D050021F9040021CD040021930400210F
:20029C006D04002110B5034CFFF716FF20680028FAD110BD0011044068610000F825F965B0
:2002BC00F9754500450045002600260057A3520052004C00401F401F401F3F000000000053
:2002DC00304000400140034007400F404F40CF40CF41CF43CF47CF4FCF3FCF2FCF1FCF0F6C
:2002FC00000000000000000000000F00080000003F00000040003F000000040068000E0093
:20031C00DC00060043001A00050000000000020000000000000000000400C00000000400B3
:20033C00C000000007000000000000000000000000000000000000003040004001400340A6
:20035C0007400F404F40CF40CF7FCF6FCF5FCF4FCF3FCF2FCF1FCF0F00000000000000009D
:20037C0050C00091007070C00091007082312100319110B10070018101B100A1823132910D
:20039C0010B101911110418141227740F106007051C0019130181039833108D01831416FD1
:2003BC003100319110B18314141683680070251050C00091F4C340C12014036F3110410497
:2003DC005082F0229840512622C082312100319110B163393110410482C08231210031919B
:2003FC0010B163393110A2C082312100319110B150101531051405920070676452C03110A6
:20041C0031066131C1026A6412C13110213971065131E1026A64007051C0019101CCE2C0CC
:20043C006A64676411C1C2C06A6450B054B0007140804022D6440022C94060B08180111EC9
:20045C00C944007054A064B0F0800022C9404012B09032B070C1DF6811C122C16A6470C1C0
:20047C00E46851C00191E2C0823160820200329110B130C2EE68538253395339B16460C347
:20049C00F4688012B09032B00070676401C122C16A6401C1C2C06A645382B164C012B09074
:2004BC0032B00070676472C281C06A6422C111C16A6402C011C16A6462C031C36A6462C3D2
:2004DC0011C16A6402C311C16A6453825339B164E2C36F6411221C4142C281C86A6452C24E
:2004FC0011C16A6472C2E1CE6A6402C281C86A6402C201C86A64B0C030690070676442C211
:20051C0001C86A6452C211C06A6472C2E1C06A6402C001C16A6462C001C36A6422C101C127
:20053C006A6462C301C16A6402C301C16A645382B16400708180111E5C4150B054B000712B
:20055C00408040225D4154A064B0F1800122514500700022514160B04E61000000000000AA
:20057C000000000000000000067305720B720E7250B00071818060B050A09280F0EFF1928C
:20059C0002936A6741228C458080F1C11004301601110114016CB561B661B761B861B9618D
:2005BC00BA61BB61BD61BF61C161C36126632D63F0C002043231412A121432160111211412
:2005DC00016CDA61C561E061C761CB61B561B561B561F461C561FA61C761CB61B561B56104
:2005FC00B561F461C561FA61C761CB61B561B561B561E761C561ED61C761CB61B561B56121
:20061C00B561CF61CF61CF61CF61CF61CF61C064CF61F964CF610665CF613265CF6174676A
:20063C00CF611166CF61C0644E65F964CF61066511663265CF618280E0DFF2926A67B0B044
:20065C00D661B1B00673057230B06C61D0CF6A6784C203C0C0C37C64207851788278E378B7
:20067C001579B6780062C0CF6A6784C203C0C0C37C64307861789278F3781579C678006250
:20069C00B0CF6A6784C203C0C0C37C6440787178A27803791579D678109221923292439281
:2006BC005492659256911FC0FF914039F00601101031101400927067CF61E3B054A0F08076
:2006DC0050221A4640800022BE461262E3A000C86091598150B0918041228E46A0CF6A6734
:2006FC0012828231823942398B641282F2062F101F312F141682D622334640C1346200C5AF
:20071C0020140D6F6D39DE10F4C34E0482C082312E006D39A2C082312D001A828A39FA0606
:20073C002082803180390BC00B18BC10AC18038239149B141082F0060110103110145181C2
:20075C0010140C14C622C94631D0C1266462021011C0013010C00118021882312100C126C2
:20077C00919103B013B063B053B041800122BE46B481C491D581B51C774E95186591F0803E
:20079C00102269428C623D9110B13E9110B1E08000228146E6228142E0B0951865910F926B
:2007BC005981F914F0805022114210228C464D6390CF6A6763B052A03082F2C0200402107E
:2007DC0011C0013010C00118021882312100C1269191919113B003B063B053B064B054B055
:2007FC00007141800122BE4663B064B0F08050221142B181C191D1819118619131B0A462D0
:20081C002967E0A059810582591480C0007163B0BA6A6962E3A0018262818231823D80EF61
:20083C00F19202936A6703A0007037824739873930828039F006021011C0013010C0011849
:20085C00021882312100C126819102B012B030824039F006021011C0013010C001180218E9
:20087C0082312100C126919103B013B063B053B0007153A062B052B041800122BE46A4816E
:20089C00C491D581B51CFE4E95186591F0801022F0428C62B481C491D4814518751C084FEB
:2008BC00F0801022F0428C623D9110B13E9110B1E08000221247E6221243E0B065910F92DC
:2008DC005981F914F0805022114210228C4630632967E0A0598105825914F0C0007162B038
:2008FC00226BF062A2808B64CF6112824239F2068B6050B00071CF6170CF6A674082418096
:20091C000122BE46A481C491D58195186591F18011228C46336B41800122BE46A481C491AB
:20093C00D581C51C1C4B95186591F08010223F438C6260CF6A67408241800122BE46B48169
:20095C00C491D58195186591F18011228C46506B41800122BE46B481C491D581C51CB44A55
:20097C0095186591F08010225C438C62E092D08200226B47C0B20070A080F022874330B033
:20099C0002C1623101C0A080001E8043F022814380F86031603981632010101A136F236E5A
:2009BC0011161216826B00702DE9F84FDFF81885DFF8181588F80000002008600921DFF891
:2009DC00100501700D2141804FF408718180DFF80405DFF8041501608A7EDFF80005027042
:2009FC00FF2ACB7E437008BFFF2B0D7F85704E7FC6708F7F0771C97F417115D1FF2D08BFE8
:200A1C00FF2E11D1FF2F08BFFF290DD1DFF8D0140A7802704A7842708A788270CA78C27025
:200A3C000A79027149794171DFF8B81402780A70FF2542784A7082788A70C278CA7002791E
:200A5C000A714079DFF8A02448710021DFF89C04057045708570C570057145711180DFF872
:200A7C009004DFF89014466BDFF88C247078087031781170B078DFF884140870716908791F
:200A9C00DFF87C14421E0A70F078DFF878140870B069DFF87414086008B915F097FFF06921
:200ABC00DFF86844206008B915F090FF2068DFF8607401688847216851F8042F38469047FD
:200ADC00DFF85004DFF850143862DFF850047862306A086008B915F079FF706ADFF84014B0
:200AFC00086008B915F072FFDFF838B4DFF838649BF8040016F0ECFD306008B900F045B940
:200B1C009BF80500DFF8247416F0E2FD386008B9306837E19BF80600DFF8144416F0D8FD21
:200B3C00206020B9306816F0DBFD38682AE19BF80700DFF8009416F0CBFDC9F8000038B99A
:200B5C00306816F0CDFD386816F0CAFD206819E1DFF8A4130A789BF80000DFF8DCA3921C7B
:200B7C00504380B216F0B4FDCAF8080058B9306816F0B6FD386816F0B3FD206816F0B0FD20
:200B9C00D9F80000FEE0DC480078002800F00281BBF80210DFF8A4B3484380B216F098FD08
:200BBC00CBF8040078B9306816F09AFD386816F097FD206816F094FDD9F8000016F090FD2F
:200BDC00DAF80800DEE0CC48007816F081FDDC49086080B9306816F083FD386816F080FD4A
:200BFC00D9F8000016F07CFDDAF8080016F078FDDBF80400C6E0C04800781C21484316F069
:200C1C0067FDD04A1060B0B9306816F069FD386816F066FD206816F063FDD9F8000016F08F
:200C3C005FFDDAF8080016F05BFDDBF8040016F057FDC348A5E0B0480078400116F048FD47
:200C5C00C1490860D8B9306816F04AFD386816F047FD206816F044FDD9F8000016F040FDC3
:200C7C00DAF8080016F03CFDDBF8040016F038FDB348006816F034FDB249086882E09E48E0
:200C9C000078000116F024FDB0490860F0B9306816F026FD386816F023FD206816F020FD5C
:200CBC00D9F8000016F01CFDDAF8080016F018FDDBF8040016F014FDA148006816F010FDE1
:200CDC00A049086816F00CFD9F485AE08A480078000116F0FDFC9E49086018BB306816F065
:200CFC00FFFC386816F0FCFC206816F0F9FCD9F8000016F0F5FCDAF8080016F0F1FCDBF854
:200D1C00040016F0EDFC8E48006816F0E9FC8D49086816F0E5FC8C48006816F0E1FC8B497B
:200D3C0008682FE0744800783021484316F0D0FC884A106070BB306816F0D2FC386816F0B7
:200D5C00CFFC206816F0CCFCD9F8000016F0C8FCDAF8080016F0C4FCDBF8040016F0C0FC82
:200D7C007748006816F0BCFC7649086816F0B8FC7548006816F0B4FC7449086816F0B0FCCF
:200D9C007348006816F0ACFC002015F01FFE4FF4804192E0316801200871306805733168D2
:200DBC004D73306885733168CD7330680574002031684D743268D072A0223168487103214F
:200DDC003068C28001720720316848720020326890722821306841820121C17600203168BE
:200DFC004877326882F85E00012031680877326882F85D00396808713868057339684D7369
:200E1C00386885733968CD7338680574002039684D743A68D072396848713A6890724FF47D
:200E3C00207039680022C88008818A7401213A68D17421680D732268557321688D732268FD
:200E5C00D57321680D740021226855742368D9720121226811710021236859712168C88065
:200E7C000881002088722168887405202268D0743948016888472A490A6805461068804713
:200E9C0027490A6852F8043F0020984718481D4BC16818780A88314902430A802846304985
:200EBC000A6890470C212F4800F05EF80F4800F05FF800F061F84FF4005198F80000BDE833
:200EDC00F44F0BF09BB900BF6E4F0020044F0020604E0020084F0020B63F00502C4E002031
:200EFC00E81200503C4E00200C4F0020344E0020DC9301006D4F00207B4F00206B4F0020B5
:200F1C00724F00206C4F0020F04E0020F44E00207C4B0020ED760100F84E0020FD76010014
:200F3C00FC4E00200C100020104F002064250020184F002060250020D8240020684E0020A9
:200F5C00004F0020582500205C250020884E00208C4E0020904E0020D80D0020544F002012
:200F7C00DC0D0020F84D0020DFF800F0E5710110DFF800F01D6E0110DFF800F04D710110C0
:200F9C000EB5009016F055F9029000200190019803281FD20199880000EBC100104908580F
:200FBC00C0B10199880000EBC1000D4908580099884209D1029815F06CFF0199880000EBCC
:200FDC00C1000749401809E00198401C019001980328DFD3029815F05CFF00200EBDC046BC
:040FFC00302300207E
:20100000B41200001810000015AB0110FDB301106DC00110FDAE011099B5011000000000F7
:08102000000000002D0000009B
:20102800B01200003C100000B1C00110A9BF011067C0011069B80110000000000000000035
:041048003000000074
:20104C00B012000060100000BDC00110CDB30110D9BD01106DB3011000000000000000005B
:04106C00310000004F
:20107000000000004410002004000000000000000000000020000000E8C9011030000000D6
:20109000281000004C1000200400000000000000000000000C000000D8CA011018000000B1
:2010B0004C1000005410002004000000000000000000000024000000F0CA01101800000035
:2010D000000000005C1000200400000000000000000000001000000018CA01102C00000041
:2010F000001000006C100020040000000000000000000000200000006CCA011024000000A5
:20111000FFFFFFFF741000200400000000000000000000002800000090CA01102400000064
:20113000FFFFFFFF7C1000200400000000000000000000001400000008CB011018000000E3
:20115000FFFFFFFF8410002004000000000000000000000058000000B4C9011034000000B1
:20117000FFFFFFFF8C1000200400000000000000000000001000000020CB0110180000007F
:20119000FFFFFFFF941000200400000000000000000000001C000000B4CA011024000000AC
:2011B000FFFFFFFF9C1000200400000000000000000000003800000044CA011028000000D4
:2011D000FFFFFFFFA41000200400000000000000000000005400000078C901103C00000049
:0811F0000100000090930100D2
:0411F80001000000F2
:0411FC0000000E00E1
:0412000000000F00DB
:0412040032000000B4
:0412080001000000E1
:04120C002C0E002084
:0412100000020000D8
:0412140000000000D6
:0412180001C90110F7
:04121C0000000000CE
:0412200000000000CA
:0412240008000000BE
:0412280000002200A0
:04122C00BC0B0020D7
:0412300000000000BA
:0412340000000000B6
:0412380008000000AA
:04123C003C0D002045
:0412400000000000AA
:0412440000000000A6
:04124800080000009A
:04124C00000000009E
:04125000000000009A
:041254000000000096
:041258000000000092
:04125C00010000008D
:04126000240C00203A
:041264000600000080
:041268000100000081
:04126C00E80A00206C
:04127000000000007A
:041274000000000076
:041278000002000070
:04127C00000000006E
:02128000290043
:02128200010069
:02128400250043
:02128600300036
:02128800310033
:02128A002D0035
:02128C0001005F
:01128E00015E
:081290000300000004930100BB
:0812980000000000000000004E
:0412A0000000010049
:0412A4000000030043
:0412A80013C401105A
:0412AC00FF720100CC
:0412B000B812000070
:0412B400B81200006C
:0412B8000000000032
:0412BC00D00F00202F
:0412C000BB750100F9
:0412C4002000000006
:0412C8004892010047
:0412CC005C90010031
:0412D00029C101101F
:0412D400575D010061
:0412D800BB6B0100EB
:0412DC00A1C7011095
:0412E000A3C701108F
:0412E4000000000006
:0412E800EF91010081
:0412EC00C88E0100A7
:0412F000E08E01008B
:0412F400B08E0100B7
:0212F8000200F2
:0212FA000900E9
:0212FC000100EF
:0212FE000000EE
:0113000001EB
:04130400DD74010093
:041308005955010032
:04130C00B5660100C1
:04131000755901000A
:04131400FD55010082
:04131800B93E0100D9
:04131C009D0D010022
:04132000117801003F
:04132400A1260100FD
:0413280015C70110D4
:04132C0025C70110C0
:201330002DE9F04F0C4685B0834614F8010BDFF870278DF8000018280BF1FD010BF1E708C8
:201350000BF166090BF20D1A0BF5B0760BF59C750BF5C67700F29183DFE810F019006F0025
:201370005F0191008F038F03FA00690311012301FE000D0133018F038F037C018F036101D7
:2013900055017503D602D60227028F03740214F8010B8BF88600022221460BF1880016F058
:2013B00025FF014602220BF18A0016F01FFF014602220BF18C0016F019FF014602220BF16C
:2013D0008E0016F013FF04469BF8860040008BF886000BF1860102224888400048800BF130
:2013F00086008188490081800BF1860108890001088121460BF1840016F0F8FEB9F81E10A4
:20141000BBF80800091A89B247F6FF7291422ADA0BF18601C8888A88401C520050430A8965
:20143000904203D33B208AF80B0039E2012089F81C000020ABF81E001EE0052221460BF1CA
:20145000610016F0D3FE014602220BF1920016F0CDFE0BF1860047F6FF728189BBF8080085
:20147000091A89B2914280F218820BF18600012181720021ABF81E10012028700CE398F85E
:201490001600C1070AD41A2198F80D0088F80E10012808BF0D213FD00D21CDE1002089F860
:2014B000000089F806000822012088F8110021460BF1B00016F09AFE014602220BF1B800E9
:2014D00016F094FE0BF1A80601460822304616F08DFE04460821304616F084FE0BF19C0633
:2014F00004222146304616F081FE0421304616F079FE0BF1A00016F071FE0BF1980016F091
:2015100069FEDFF8A005018841F08001018098F80D00012806D10421584605B0BDE8F04F23
:2015300013F06EBE99F81000012804BF99F811100F290BD1584611F093FA0421584610F02A
:201550003DF90F2089F81A00FD2175E1042173E1012088F80F009FE2002089F8000089F83B
:20157000060088F800000B21012088F80D00002088F8010060E1012088F810008CE20020DA
:2015900002F10906235C365C33432354561C365C33400B54401C0828F2DB584610F00CFC66
:2015B00070E2002002F10905235C2D5C2B432354551C2D5C2B400B54401C0828F2DB02207C
:2015D00048E299F8060008B93D2167E19AF800000128D3D014F8011B8AF80310022221462D
:2015F0000BF5897016F002FE014602220BF58A7016F0FCFD01208AF800009AF80200002819
:201610001BD10C2118E198F81600C10601D41221D1E0584611F0B8FE34E221783EE12078C7
:2016300030706078707099F8100001280CD199F811100F2902D0162902D02DE268732BE2D7
:20165000387B40F0010016E205B0BDE8F04F002015F0C2B998F81600810707D410F0110F3C
:2016700008BF0F2000F009821A2252E02078617800EB01202882E178A07800EB01206882ED
:201690006179207900EB0120A882E179A07900EB0120E882207A2876A17A607A00EB01206F
:2016B0006883217BE07A00EB0120A883A17B607B00EB0120E883217CE07B00EB01202884E4
:2016D000A17C607C00EB01206884217DE07C00EB0120A884A17D607D00EB0120E8840BF564
:2016F000AA700490688B0390287E0290BBF808000190E88A0090AB8A6A8A298A58460FF0A7
:2017100023FA68B198F81600410701D40F2152E01E22584605B0BDE8F04F0F2113F08CBD6B
:20173000688A0BF186018880A88AC880E88A088102208BF8860000204880BBF83400C01DD0
:20175000A9F81E008888BBF83210884201BF0BF18600C188BBF83400814206D10BF186005D
:201770000189BBF8360081421DD099F81000012804BF99F811100F2907D099F8150020B171
:201790000F2189F81A10FE2156E0FC21584610F015F8E88A0090AB8A6A8A298A9BF80600CA
:2017B00016F014FD78E1102146E098F8170010F0090F03D116218AF80C1060E16078217838
:2017D00000F00700014021702078797B0140F97211D0481E01420CD0490704D5B87B10B175
:2017F0000421F97205E0F97A022001421AD14008FBD1F87A08B9B97AF972F87A042803D14A
:20181000584611F0AFFEB083F87A16F0DBFC3871B28BB97B012312F0E3FC0146308B8842FF
:2018300002D207E0F872E4E7B28BB97B3879012312F0D6FC78801721584605B0BDE8F04F27
:201850000FF0BCBF60782178814207D100F007000840207033D0421E10420FD01E22182116
:20187000584613F0E9FC9BF80610002300221E200CF0DCFE387B40F04000FCE0F87247F62A
:20189000FF72A078E17800EB012038813989BBF80800091A89B2914206DB28218AF80B101C
:2018B00001208AF80A00F7E00120B871F87A042803D1584611F056FEB083F87A0BE099F8C4
:2018D0001100162806D1BA7A9BF80610134600200CF0ACFEB87A3871B28BB97B38790123B5
:2018F00012F07EFC0146308B884205D3B28BB97B3879012312F074FC78800121387B40F003
:20191000400038732970C7E02078617800EB01207082E178A07800EB0120F08261792079BB
:2019300000EB01203082E179A07900EB0120B082B18AF089884288BF0846B97A042905D1DF
:2019500040F691229042B8BF4FF42960F28BF0839042B87A14BF01240024042803D15846CB
:2019700011F000FE04E0B089F18A884288BF0846B28BB083904214BF012100210C43308901
:20199000718A328B884288BF0846904214BF012100210C433083B28BB97B3879012312F0EE
:2019B0001FFC0146308B884205D3B28BB97B3879012312F015FC78807189308A728B814293
:2019D00088BF0146718391429BF8063014BF0120002004438A4234490A6802EB4311728B85
:2019F0008041121DC00F0A7610B1584613F0EAFE9DF80000142810D144B1F08B0090738B9E
:201A1000B28B318B9BF8060016F0D8FB584605B0BDE8F04F15210EF0CDB91CB1387840F0AD
:201A300008003870397841F02001397034E020780E280ED00F2809D0122804D014280CD044
:201A5000162812D028E00020287225E00120287322E0032088F815001EE0387840F0020039
:201A7000387040F01000387016E0387B40F00200387340F0100038730EE08AF80C0058463B
:201A900011F0F6F840B905B0BDE8F04F074800784FF480410AF0B8BB05B0BDE8F08F00BFE5
:201AB00040240020524F00205C2500206E4F002000B5ADF1140D8DF80C0000208DF80D009C
:201AD000D748026869460A6042684A60007A0872D4480068002840F02B83D348D3490DF04E
:201AF000B9F8D049086023E300208DF80D009DF80D00092880F23E839DF80D0010F80D101F
:201B1000C8480068002213F07FFA9DF80D00401C8DF80D009DF80D000928EDDB2AE3C1485E
:201B30009DF800100068012213F06EFABD489DF801100068002213F067FABA489DF80210B8
:201B50000068002213F060FAB6489DF803100068012213F059FAB3489DF8041000680122D8
:201B700013F052FAAF489DF805100068012213F04BFAAC489DF806100068002213F044FA28
:201B9000A8489DF807100068002213F03DFAA5489DF808100068002213F036FAEAE2A148C9
:201BB0009DF800100068012213F02EFA9D489DF801100068002213F027FA9A489DF80210F8
:201BD0000068002213F020FA96489DF803100068012213F019FA93489DF804100068012218
:201BF00013F012FA8F489DF805100068002213F00BFA8C489DF806100068012213F004FAA8
:201C100088489DF807100068002213F0FDF985489DF808100068002213F0F6F9AAE281486A
:201C30009DF800100068002213F0EEF97D489DF801100068012213F0E7F97A489DF8021039
:201C50000068002213F0E0F976489DF803100068012213F0D9F973489DF804100068012259
:201C700013F0D2F96F489DF805100068002213F0CBF96C489DF806100068012213F0C4F92A
:201C900068489DF807100068002213F0BDF965489DF808100068002213F0B6F96AE261480A
:201CB0009DF800100068002213F0AEF95D489DF801100068012213F0A7F95A489DF8021079
:201CD0000068012213F0A0F956489DF803100068012213F099F953489DF804100068012298
:201CF00013F092F94F489DF805100068002213F08BF94C489DF806100068002213F084F9AB
:201D100048489DF807100068002213F07DF945489DF808100068002213F076F92AE24148A9
:201D30009DF800100068012213F06EF93D489DF801100068002213F067F93A489DF80210B8
:201D50000068012213F060F936489DF803100068012213F059F933489DF8041000680122D7
:201D700013F052F92F489DF805100068012213F04BF92C489DF806100068002213F044F929
:201D900028489DF807100068002213F03DF925489DF808100068002213F036F9EAE121484A
:201DB0009DF800100068012213F02EF91D489DF801100068012213F027F91A489DF80210F7
:201DD0000068002213F020F916489DF803100068012213F019F913489DF804100068012218
:201DF00013F012F90F489DF805100068002213F00BF90C489DF806100068012213F004F9A9
:201E100008489DF807100068002213F0FDF805489DF808100068002213F0F6F8AAE1C0462E
:201E300010930100E0100020F0240020AC0C0020D1489DF800100068012213F0E5F8CE4893
:201E50009DF801100068012213F0DEF8CA489DF802100068012213F0D7F8C7489DF803109B
:201E70000068012213F0D0F8C3489DF804100068012213F0C9F8C0489DF8051000680122BC
:201E900013F0C2F8BC489DF806100068012213F0BBF8B9489DF807100068002213F0B4F89F
:201EB000B5489DF808100068002213F0ADF861E1B1489DF800100068012213F0A5F8AE4835
:201ED0009DF801100068012213F09EF8AA489DF802100068012213F097F8A7489DF80310DB
:201EF0000068012213F090F8A3489DF804100068012213F089F8A0489DF8051000680022FD
:201F100013F082F89C489DF806100068002213F07BF899489DF807100068012213F074F81E
:201F300095489DF808100068002213F06DF821E191489DF800100068012213F065F88E48D4
:201F50009DF801100068012213F05EF88A489DF802100068012213F057F887489DF803101A
:201F70000068012213F050F883489DF804100068012213F049F880489DF80510006801223B
:201F900013F042F87C489DF806100068002213F03BF879489DF807100068012213F034F89E
:201FB00075489DF808100068002213F02DF8E1E071489DF800100068012213F025F86E4875
:201FD0009DF801100068012213F01EF86A489DF802100068012213F017F867489DF803105A
:201FF0000068012213F010F863489DF804100068012213F009F860489DF80510006800227C
:2020100013F002F85C489DF806100068012212F0FBFF59489DF807100068012212F0F4FF10
:2020300055489DF808100068002212F0EDFFA1E051489DF800100068012212F0E5FF4E4808
:202050009DF801100068012212F0DEFF4A489DF802100068012212F0D7FF47489DF803108D
:202070000068012212F0D0FF43489DF804100068012212F0C9FF40489DF8051000680122AE
:2020900012F0C2FF3C489DF806100068012212F0BBFF39489DF807100068012212F0B4FF8A
:2020B00035489DF808100068002212F0ADFF61E031489DF800100068012212F0A5FF2E48A8
:2020D0009DF801100068012212F09EFF2A489DF802100068012212F097FF27489DF80310CD
:2020F0000068012212F090FF23489DF804100068012212F089FF20489DF8051000680022EF
:2021100012F082FF1C489DF806100068002212F07BFF19489DF807100068002212F074FF0B
:2021300015489DF808100068012212F06DFF21E09DF80C000C281DD801A151F820008746E9
:20215000F91A00002F1B0000AF1B00002F1C0000AF1C00002F1D0000AF1D0000411E0000BB
:20217000C11E0000411F0000C11F000041200000C120000005B000BDE010002000B5ADF119
:20219000140D02928DF80E10ADF80C0000208DF80F004FE29DF80E00102805D10299AC4801
:2021B00010220CF0BDFC85E218208DF80F0081E29DF80E00102805D10299AF4810220CF021
:2021D000AFFC77E218208DF80F0073E29DF80E00042804D10298B049006808606AE218203F
:2021F0008DF80F0066E29DF80E00012844D1AD48007801283CD0AC4800788DF810000298D5
:20221000A949007808709DF81000B0B1A648007898B9AF480078022804D0AD480078052808
:2022300040F04882AB480178502011F0EBFEAA49024610200BF066FF3CE29DF81000002818
:2022500040F0388298480078002800F03382A0480078012808D09E480078042804D09C48BC
:202270000078052840F02682012015F007F921E212208DF80F001DE218208DF80F0019E21C
:202290009DF80E0001284CD187480078012844D0844800788DF81000029882490078087093
:2022B0009DF81000D0B17F480078B8B988480078032808D086480078072804D08448007860
:2022D000052840F0F78183480178502011F09AFE8149024610200BF015FFEBE19DF810000A
:2022F000002840F0E7816F480078002800F0E2817748007801280CD075480078042808D0EF
:2023100073480078062804D071480078052840F0D181012015F0B2F8CCE112208DF80F0055
:20233000C8E118208DF80F00C4E19DF80E00022804D10298B84900880880BBE118208DF8CD
:202350000F00B7E19DF80E001F2821DCB54800211F220EF070F902999DF80E20B1480CF0C6
:20237000DFFB9DF80E00B04908705A480178502011F048FE0246AC480078AC490090A94863
:202390000123019010200BF0BDFE8DF80F0091E118208DF80F008DE19DF80E001F2821DC6B
:2023B000A34800211F220EF046F902999DF80E209F480CF0B5FB9DF80E00C04908704548E1
:2023D0000178502011F01EFE0246BC4800789749009097480023019010200BF093FE8DF8DF
:2023F0000F0067E118208DF80F0063E19DF80E00012808D102980078042804DC0298B04910
:202410000078087056E118208DF80F0052E19DF80E00012808D102980078032804DC02982A
:20243000A8490078087045E118208DF80F0041E19DF80E00062806D10298A34902680A6095
:202450008088888036E118208DF80F0032E1C046902400209DF80E00012808D102980078D5
:20247000072804DC029899490078087022E118208DF80F001EE1C046A02400209DF80E0076
:2024900001280BD102980078032807DC02989049007808700EE1C0467424002018208DF83A
:2024B0000F0007E1F50D0020F40D00209DF80E00012808D102980078062804DA02988549A7
:2024D00000780870F6E018208DF80F00F2E0C0467024002068240020994501100298008811
:2024F000ADF810009DF80E0002280DD1BDF81000062809DBBDF81000B0F5486F04DCBDF8DF
:20251000100075490880D5E018208DF80F00D1E002980088ADF810009DF80E0002280DD1A1
:20253000BDF81000062809DBBDF81000B0F5486F04DCBDF8100069490880BBE018208DF85C
:202550000F00B7E002980088ADF810009DF80E00022809D1BDF81000B0F5FA7F04DABDF8D1
:2025700010005F490880A5E018208DF80F00A1E002980088ADF810009DF80E0002280DD1B7
:20259000BDF810000A2809DBBDF81000B0F5486F04DCBDF81000534908808BE018208DF83E
:2025B0000F0087E0029800788DF810009DF80E00012819D19DF81000012815D14A4814F0EE
:2025D00081FB68B9434900200AF0A6FA8DF80F009DF80F0000286DD1444814F027FF69E06B
:2025F00016208DF80F0065E018208DF80F0061E0BDF80C00282811DA9DF80E0002280DD108
:2026100002983B49BDF80C20038810200BF07AFD8DF80F004EE0C046F60D002002208DF8EC
:202630000F0047E07C0D0020F80D0020094501109B0D0020BDF80C00A0F201301A28D7D8EA
:2026500001A151F820008746A5210000C1210000DD21000001260000F72100003B2300004F
:2026700055230000A9230000FD2300001F24000041240000652400008D24000001260000DD
:2026900001260000BD240000ED24000021250000552500008125000001260000012600005D
:2026B0000126000001260000B525000001260000912200009DF80F0005B000BDF90D0020CC
:2026D0007824002079240020C21000207A2400207B240020E80F0020EA0F0020EC0F0020B7
:2026F000EE0F0020F00F0020E4230020C0230020BD8401102DE9F84F012013F0B1F80128BF
:202710000ED1DFF8F874396800204871386811F089FD05F0B3FA040003D1812015F04AFD7F
:2027300068E201206071DFF8D854DFF8D8044178491C41703968A07981F8A00040200DF098
:2027500003FE2060287901281CBF002014F044F9E8682168DFF8B05400F5B060C860286871
:2027700001680A79032A1CBF002014F035F92868DFF898840168DFF898B401F108090622C9
:2027900099F80000C0F3801084F82E0109F1020104F5947014F0F4FC042209F10E0104F198
:2027B000240014F0EDFCD8F80000A67900F10C03042209F10E0103EB461014F0E1FCD8F8E5
:2027D0000000A37900EB4310032209F11201103014F0D6FC04F12C0699F81500B070022236
:2027F00009F1160104F1300014F0CAFC022209F1180104F1320014F0C3FC022209F11A016F
:2028100004F1340014F0BCFC30896084022209F11C0104F1360014F0B3FCB078F188728971
:202830004000B0704900B08840001201B080F180728189B2638C5B1C4800434392B2934238
:2028500000D231B99BF80000802109F0DDFC3B21FEE004F12E01204614F07EF80520A08122
:20287000204614F059FA052209F11E0104F1610014F086FC99F823004009307015F096FC3B
:2028900060823A68E34F518A401A04F59771888104F1610199F82300DFF87C9300F01F0033
:2028B000F073204611F0CAFD29680A68002010711C25A1793868694341F62102425200221C
:2028D000A17969430144001D4A80A1796943425099F80200410609D5D049088841F20A42BE
:2028F00090420CBFCE48CF48C4F89C012046D4F89C1188473968A37901F10E026B43D05466
:20291000A1793868694308440021C173C648017881B1B08870B900217173012020816081DE
:202930002046D4F89C1188473968A37901F10E026B43D0543868A27900F10E016A43885CFC
:20295000707394F8960108B914F046F8A1793868DFF8D8A26943084494F896114A1E02744A
:202970000023A17938686943084400214174A279396801F112006A4301F1140C8352A2792D
:20299000D8F8000000EB42136A434CF80230A2796A431144A64A8A61DAF814100B78DA07A2
:2029B0004CBF4FF0100C4FF0000C99074CBF202100215A074CBF402200221B0700F108033B
:2029D000A07941EA0C014CBF4FF0800E4FF0000E0A4340014EEA020242F00F021A54D8F826
:2029F0000000A17900EB41100B224272D8F80010A07901EB401104228A728E4A1378D8F805
:202A10000000A179012B00EB411002D10121C17203E0DAF828104A78C272D8F80000A1792F
:202A300000EB41101F220276D8F80010A07901EB401100224A76A0790AF00AFFA279D8F872
:202A5000001052018850A2795301C85820B90721204613F09FFECDE07748016801EB0210C2
:202A700015F0A0FB744AA0791368D8F8001003EB00130A1D40011350081DA279520180583D
:202A9000F063A07940010958716404219BF8000009F0BAFB644BB2881978901C11B10AB932
:202AB000F088801C618A94F806B041434FF4C87205FB0BFBB1FBF2F1491CA061616140F6D1
:202AD000C41C23683A68CDF800B002F1080ED3F80CB00CFB00B0411A0098A1F5A8614EF845
:202AF000001002F10800A17969434058986002F10C01A07968430C32095C01F0EF011154B8
:202B1000A0793968684301F10C020C31125C02F07F020A54A0793968684301F10C020C3122
:202B3000125C02F0F00242F002020A54A179386869430844417B01F0F00141F00101417368
:202B50003868A27900F108016A438858216808616369D8F80000A17996F802E05B0000F1BF
:202B7000140249010CFB0E3303F5F6635350A17900EB4110C27C02F0F00242F00402C274C3
:202B9000D8F80010A079DAF8303001EB4012F0880CFB00F61868301AA0F51670D061A27916
:202BB00001EB4210C17E01F0F00141F00401C176A17938684D4321684019486099F80100D3
:202BD000810614D504F59771488F1B2804BF888F1B2808D1C88FB0F5A47F04BFB4F86E1157
:202BF000B1F5A47F03D0142120460EF0E7FD134907200870BDE8F14F01F05ABF104F002043
:202C1000B44D0020684E0020F44B00205C2500206E4F00205825002040240020504F0020F0
:202C300057270100C7300100784E0020DC9301005C4D0020734F00208C4E00206F4F002034
:202C500000B5ADF1240D029000208DF80C0045E202980490049840788DF814009DF81400B2
:202C700058BBA648A64902221023009010200BF049FAA84803221023A149009010200BF012
:202C900041FA0498A849C01C02680A6080888880A64801210170A6480178502011F0B2F998
:202CB0000246A4480078A5490090A3480123019010200BF027FA8DF814009DF8140010B1EB
:202CD0009A480821017001208DF80C0030E20298049004984078002830D10498C07890B1E4
:202CF00093480178502011F08DF902469448007892490090A9480023019010200BF002FAA6
:202D1000049948701AE089480078022816D087480078072812D085480078062803D1A5486F
:202D3000007801280AD181480078032806D0A94813F0C8FF10B9012014F0A0FB049840782D
:202D5000002800F0F58179480821017001208DF80C00EDE1029804900498407800283CD143
:202D700002988078032812D170480078062803D16E480721017033E0A948007818B16B482A
:202D9000022101702CE069480321017028E0AC48008858B1A248007810B98648007880B10E
:202DB000A74801888B4810F03BFF0AE09C480078012803D19A490020087002E07D490020F8
:202DD00008705A480078072803D158480621017006E056480421017002E0544808210170E4
:202DF00001208DF80C00A3E10298049004984078002842D10498B449001D02680A6080883E
:202E100088800498B149408908804848062101700498AF49C08908800498AE49008A088081
:202E30000498AD49408A08800498B649C0780870B5480078012803D0B348007802280ED166
:202E5000B24910201F220BF05DF9ADF81400BDF814004FF47A714143AD4810F0E1FE049801
:202E70004089AC490090042001900498049BC2781B1D10200BF046F90DE00498407831288E
:202E900006D167490020087028480421017002E026480821017001208DF80C0048E102989E
:202EB00004900498AC49828810200BF02BF98648002106220DF0BFFB854900200880854972
:202ED000002008808449002008800498A349807908708F4814F0AAFAA14814F0A7FA01209E
:202EF0008DF80C0079494FF6FF7008803148007840B10E48032101701AE1C0469024002091
:202F10009D6B010004988079082805D107480521017004E0A024002004480421017001204C
:202F300014F0ACFA04E1C046342500207024002068240020F80D00207C0D002009450110E6
:202F5000F90D002002980490854814F06FFA04984078002840F0EC8004985D49C0880880A9
:202F700004985C490089088004985B4940890880674813F0A7FE002840F0DA80794800682C
:202F9000002800F0D580774852490068524A036809884F48128800889847C9E09B0D002051
:202FB00002980490049870498288052310200BF0A9F8BDE0F50D00200298049004988088EF
:202FD000ADF8140050480078052805D100208DF81E0072E09C23002001208DF81E004C48C9
:202FF00014F024FA48480078012803D046480078042839D15D4804990088C988884202DD9B
:203010005A48008801E00498C088ADF816005848049900880989884204DD5548008803E0EC
:20303000F40D002004980089ADF818005148049900884989884205DD4E48008804E0C04639
:20305000F60D002004984089ADF81A004A48049900888989884202DD4748008801E0049813
:203070008089ADF81C0028E027480078032803D025480078022810D13C480088ADF81600D2
:203090003B480088ADF818003A480088ADF81A0039480088ADF81C000FE00498C088ADF84D
:2030B000160004980089ADF8180004984089ADF81A0004988089ADF81C003049102005AA26
:2030D0000BF020F834E0C046C8100020FA0D0020FC0D0020FE0D0020000E00200298807880
:2030F000052819DC05283FF47FAE00283FF4B0AD801E3FF4ECAD401E3FF42CAE401E3FF4F3
:2031100029AE15E0020E0020E80F0020F5840110C023002061B30000801F3FF4C0AE401E4D
:203130003FF410AF08383FF43BAF801E3FF444AF9DF80C0001280CD11148006848B11048B3
:203150000068006828B10E48006801680D480078884709B000BDC046B1270100030E00206D
:20317000E42300200C0E0020C1170110EA0F0020EC0F0020EE0F0020F00F00200516011059
:20319000080E0020702400202DE9F843040014D1002013F021FC10E020460FF069FD0128D7
:2031B00008D065E08A0740F1548101F0FD0101700020B07120460FF053FC04F16605687DB1
:2031D000002855D0697CDFF8A494022904F1EC0704F59E7804F5B07604F5C67035D00429FC
:2031F00049D005295CD0062900F08A800729D3D0092900F0EC800B2900F0C1800C2900F038
:2032100008810D2900F0D0800E2900F0EA800F2900F02881102900F04281112900F05C814A
:20323000122900F00E81142900F08781162900F05A81172900F07581FC2919D0FD2900F03B
:203250009581FE2900F09B81A2E7297C012909D199F80300002815D01621204613F09AFA0E
:20327000012006E020460EF0E9FF2874E88A28830020BDE8F283297C012940F0948199F853
:203290000200002800F0E580FC21204611F0B8FFA07904F1B80204F1B00114F07FFF8CE701
:2032B000297C01290FD199F8020020B184F89410002038607860B87A012868D1062120461A
:2032D00011F09EFF79E704F1E7063078012809D1204611F0D1FD0128CAD10020B8720120EF
:2032F0002874C5E770780028C2D004F1C70204F1A00104F1D70014F04DFF012030705CE760
:20331000297C012940F0538199F8020000283ED0618CE18320460FF0A3FB0120287020468E
:2033300011F04AF80120A871397A787C012900F010000FD148B1002088F80500D8F80010D1
:2033500098F8060049080EF0CBF8A079002114F01DFF0EE040B1D8F80020C54804F5A17372
:203370005208214614F00EFBA0790122002114F009FF002038723873F872B8721DE7287C55
:20339000012805D1F97A012908BFFC2197D060E020460EF047FA0128A3D10020F87284F8AE
:2033B00094000120287408E7297C012940F0038199F80200002809D0002184F89410012044
:2033D0002870204610F0F8FF0120A87188E0297C012940F0F48099F80200D0B3618CE1836C
:2033F000E8E6287C012840F0EE80387C022804F1FD0204D1A179002014F0C0FEDAE60328F6
:2034100040F0EA80A1791A2014F0B8FE00203874D0E6287C012804F20D1140F0E8800B7876
:20343000012B04F5897240F0E8804878012807D15388009300201388CA78A17914F09AFEE2
:20345000B8E6297C012940F0E78099F802000028F6D1298B481E288380B200287FF408AF8D
:203470002221FAE6287C012840F0DA8098F80910012902D130780F281BE098F80800012881
:2034900026D1002188F80810288D000900901A20AA8CEB8CA179520814F068FE8AE6287C45
:2034B000012840F0C18098F80910012910D1307810281CBF002013F08FFA002088F809009E
:2034D000288D00090090AA8CEB8CA1797078E2E7287F0028E2D1BCE7297C012940F0A880CA
:2034F00099F80300F5E7297C012940F0A580017B4A061DD4CA0709D501F0FE010173002335
:20351000A179707800220BF091F853E68A0740F1988001F0FD0101730023A17900221A20E4
:20353000F1E7297C012940F09980027B510690D5017B01F0BF0101733CE6297C012940F090
:203550008F8001788A067FF52DAE01F0DF010A0701700AD501F0F7010170F08B0090738B5F
:20357000B28B318BA07914F029FE21E6A97E204611F046FE15E7002013F02EFA78E6A87E5A
:203590000F28F8D1FC21204611F03AFEB8F812000090B8F81030B8F80E20B8F80C10A0795A
:2035B00014F014FE64E620460BF08EFE5DE620460FF032FC59E6204611F0E2F855E62046B7
:2035D0000EF0FAFB51E620460DF0B2FE2874E88A2883012038744BE6288B401E288380B2F9
:2035F0000028F8D1A179222014F0C8FD38E70120887020460DF06EFA37E6288B401E2883C9
:2036100080B20028E7D15088009022201388CA78A17914F0AFFD23E720460FF08DFE24E633
:2036300020460BF053F820E620460BF09FF81CE620460EF043FD18E6162120460AF0BCFBDE
:2036500013E6288B401E288380B20028C3D1A1790023002222200AF0E9FF01E71721ECE741
:20367000142120460CF0A6FBFFE500BF5C4D0020710A01002DE9F84FDFF82844A178FF2939
:2036900004BF002013F0A8F9A07813F0D9FE044604F1680604F5C9753168086804F1900728
:2036B00010B10022E28310E0B17B002904BFB07E00280AD13978002904BF2878002804D13F
:2036D000217F012904BF608CE0832189E08B4118491C6181204613F05FF901281EBFDFF8AB
:2036F000C8030178012904D120890022401CE2836081B07E01280CD1B28B6189208914F002
:2037100031FD30B121896289481C82422AD0B28B1FE0387801280CD17A886189208914F048
:2037300021FD30B121896289481C82421AD07A880FE02878012815D16A886189208914F0AA
:2037500011FD00281FBF2189481C6289824209D06A88824206D0501E608180B214F0FEFCA4
:20377000401EE0832878012801BF69882089401C814207D16A792A71002028701346A179B5
:203790000AF054FF04F59A71087920B120890021401CE183608104F12E07B07E012801BFCA
:2037B000B08B2189491C884238D1608104F18601204613F0D1F8B08C61896084002020778C
:2037D000E083E0894118A181B08B218914F0C6FC8046B988308C728C01FB0808F08C8A42D2
:2037F00004BF3989884202BFB18CFB88994207D000090090B38CA1795208002014F0B6FC15
:20381000B07F3870708CB880B08CF880F08C3881204613F081FA0220B07601E0B7F8048064
:20383000E28BDFF88892501C00FB08F140F6C41808FB01F000902368D3F80CC06044DFF887
:2038500070C2D860DCF800E09A489EF800A003884FEA9A1ABAF1030F13D199F80FC05FEA60
:20387000CC7E48BF00230CD45B1C9BB2012B11BFB4F812C004F59A7CBCF806C00CF2DC5CE7
:2038900001E0B4F812C00CFB01FC4FF4C87EBCFBFEFCDFF824A20CF1010CC4F814C00380C1
:2038B00084F820204FF01C0BA379A1610BFB03F3DAF80010226801F1080001F1080CC05838
:2038D000D3681061A0790BFB00FE60691B1A4CF80E3001F10800A3790BFB03F3C058906075
:2038F00001F10C02A0790BFB00F00C31125C02F0F00242F002020A54DAF80000A279811CFC
:203910000BFB02F200208852287908B913F064F8DAF80000A27900F1100128790BFB02F258
:2039300040088854A079DAF800100BFB00F00844002141742879042814D1A079DAF8001093
:203950000BFB00F001F110022B7A125C103142EA83020A54A179DAF800000BFB01F10844CA
:2039700020214174DAF80000A27900F112010BFB02F200238B525149A2790968520101F1EB
:203990001403D4F814C09B5801F1140E03EB4C034EF80230B27E022A0AD1A279520101F10D
:2039B00014033E789B5808FB063301F11406B35099F80F20D30749D5A2790BFB02F200F12E
:2039D000080300F108069B58A3F5A863B3500830A27923680BFB02F282589A600098121AC4
:2039F0001A6101F11402A079400101F11403125802F5F6621A502879042807D1A0794001AF
:203A100001F11402125802F5B0621A5001F11400A27952018058C4F8340101F11C03284AF1
:203A3000B888166BA57908FB00F730686D01381AA0F516705851A37901EB431021490D7837
:203A5000012D0EBF0122916A4A7819E02879A37904280CBF4FF44B604FF4E66001F114024F
:203A70005B01D258101ABA8808FB02F2A2F516729042D2D30821204612F08CFE01200FE08C
:203A9000C272A179DAF800000F4A0BFB01F108442168486007201070204610F0CEFF00202E
:203AB000BDE8F28F684E0020784F00205C4D0020084F002090250020582500205C250020C0
:203AD000DC930100734F00206F4F002000B5ADF58E7DC048C04909F0B3FDC14813F092FCF0
:203AF000BE4908604FF0804000210EF005FCBD490860BD491F22062310200AF003FB012001
:203B10008DF826000020ADF81C0000208DF827005020ADF81E004FF44870ADF8200000202A
:203B3000ADF822004FF47A70ADF82400012140F205300DF12602FEF721FB40F2063002216D
:203B500007AAFEF71BFBA94A4FF442701E21FEF715FBA74A40F207300721FEF70FFB4FF4A9
:203B7000447001210DF12702FEF708FB40F2113002210DF11E02FEF701FB40F21230022104
:203B900008AAFEF7FBFA40F2133002210DF12202FEF7F4FA4FF44570022109AAFEF7EEFA31
:203BB0009448002215239449009010200AF0AAFAA020ADF81C008C49BDF81C3006221020D5
:203BD0000AF0A0FA8849BDF81C30102007220AF099FA8549BDF81C30102008220AF092FADA
:203BF0008149BDF81C30102009220AF08BFA0020079001208DF8200001208DF821000020AC
:203C10008DF8220001208DF8230007A84FF4816204237A49009010200AF074FA08A87749CD
:203C300000904FF48062012310200AF06BFA0DF1210040F2024201237049009010200AF0E0
:203C500061FA0DF1220040F2034201236B49009010200AF057FA0DF1230040F206420123C0
:203C70006649009010200AF04DFA654910204FF0FF320AF047FA634910204FF0FF320AF0B5
:203C900041FA12F02BFA4FF0FF300DF0F3F801208DF8140102208DF8150103208DF8160125
:203CB00007A85949F8220AF03BFF0020012145AA08F080F8012001210DF2151208F07AF8E1
:203CD000022001210DF58B7208F074F80320F82107AA08F06FF84D4812F01EFE4C494D4A02
:203CF00010200AF00FFA3B480178502010F08AF94949024610200AF005FA36480178502028
:203D100010F080F94549024610200AF0FBF944491020FB2240F648030AF0F4F9414910202A
:203D30000AF0F0F94049102004220AF0EBF93F4923A008603D484FF6FF72002110F090F83C
:203D500028483A490068032200230EF073FC38480EF0BAFF374910200AF0D4F9364812F015
:203D7000D1F902A813F066FD04208DF808003220ADF80A0000208DF80C0002A9002009F032
:203D900079F92E49086004A814F0E4F9059842F21071B0FBF1F0401E0690284806990068EC
:203DB00013F041FE25482649006801220FF028FC0EF0D0FA00200FF0C7FE47B000BDC046C1
:203DD00059752773204C6162205065726970686572616C00082500200C250020102500201D
:203DF000CC240020200E0020BD840110BA0D0020B4100020440E0020B5FC000021530000A1
:203E10004D650100C9690100148C0100EC100020BD6B01003C1000205188011031810110AD
:203E300021B10010FDF30000E9700100F80C002085750100C5AB0010E810002080250020CA
:203E5000217201002DE9FE43BF4C0F460646F80B80F05081B80880F03D81E07ADFF8F492D2
:203E7000B90F80F0B680607A002840F096803809C0F09580A07A20B10020A072052011F033
:203E90006DFC00254FF001086570284684F8078009F02FF8AD4904F174002A4613F027FEDF
:203EB000207901281AD16079C0B9DFF8A482D8F8000000284CD048460068006B80476169F0
:203ED0004346401A000BA0611968E2698018B0EBC11F98BFE0613BD9E56101E084F8048031
:203EF000DFF87482A8F115000068000A30D340F60900A08694F8410000F0F00040F001007F
:203F100084F84100E58694F8400000F0F00084F84000A56313F0E5FD08F6FF7211686FF0CD
:203F3000020321F00201116004F13401C8F8FB3F8A4AC8F8EB1F11688908FCD3C8F8FB3F52
:203F5000D8F8FF1F41F00201C8F8FF1F14F0FEF8656110F0EDFD82480560022011F0FEFB5C
:203F7000112009F0E5F8307C10B90E2009F0E0F8E5712572A07818B906F1380013F0C1FDF0
:203F9000784813F051FC78490878F8B10D7004F1D000042113F0BDFD18E0380914D2B80B11
:203FB000C0F0C98004F1240013F0A7FD061C08D0706830B17568F068B6F91C100022202310
:203FD000A84727F40057B6E00020607227F00807B1E020B1042011F0C1FB0020E072B168F4
:203FF000088840F602054FF0000885420AD0B0F5C15F07D00A8B4FF61F60104040F43470DF
:20401000088306E00A8A4FF61F60104040F4347008826069E0B1D9F854000168042088473A
:20403000B0B1D9F80000006B80476169814226BF401A401E401A000BF060708AF168401882
:2040500040F6C411F06081422CBFB0F5FA7FF16094F8410010F00F0F0BD1708CED1D854244
:2040700007D1B56930466FF4807142464FF00073A8473E4904F17400424613F038FD6079BE
:2040900058B10220ADF80000684612F0EBF984F80580BDF80800A4F8700001206070E07899
:2040B000401CE07004F1200084F8068013F025FD002808BF47F0020702D0192013F015FDB9
:2040D0007569414630464FF080630A46A84727F0005730E004F12C05284613F00EFD07F07D
:2040F000AFFA284613F009FD27F0020708B147F0020720E013F0F5FC014604F1280013F01C
:20411000FCFC0646B569A80810D27EB125EA0500B061084614F01AF8706850B12A46F06842
:20413000B6F91C1075680023A84702E0084614F00DF827F4804727B104F1D000394613F06B
:20415000E8FCBDE8FE83C0460802002071650100482500208C010010150004401010044057
:204170000000046049B70000442500202DAD00002DE9F04F09AFADF13C0D08900A92388880
:2041900009911E46ADF81800101C08BF002000F07581017800274FF0010B401C4FF0FF399D
:2041B000B846DA460A9061E1252940F056810178401C0A902D2918BFADF8068004D101788B
:2041D000ADF806B0401C0A9030291CBF4246434604D10178401C5A465B460A902A29CDF89C
:2041F00000804D4617D1049330680A9BCDF80890C01C20F00300001D306050F8044C1978BE
:20421000002C009403F101000A9018D5ADF806A06442009413E044460AE0600000EBC40057
:204230004018A0F130040A9801780094401C0A90302901DB3A29F0DBCDF8089004932E29FE
:2042500029D10178401C2A290A9011D13168CDF80880C91C21F00301091D316051F8045C70
:20427000002D48BF454601782B46401C0A9011E0454643460AE0680000EBC5004018A0F19F
:2042900030050A9801782B46401C0A90302901DB3A29F0DB02930AB1224604926C2904D03D
:2042B0004C2918BFADF8048004D10178ADF804A0401C0A900BA8CDF80C800FAB079064290A
:2042D000059300F0828069297FD0BDF818C075296DD0782969D06F2965D070294ED0632911
:2042F0003ED0732922D00A98401E0A90099801281AD966490C68B5F1FF3F03D0A84288BFB0
:204310006D1C05D86FF00041814294BF0D1C099D029508A80AA932466B46A04709993F189F
:20433000091A0398099165E0454617E03068C01C20F00300001D306050F8040CBCF1010F05
:20435000014608B94FA00146079113F0B5F80390B5F1FF3F4FD0A8424DD9039528464AE0F1
:204370003068C01C20F00300001D306010F8040C8DF82C005D46039558463CE00820356876
:204390000490E81C20F00300001D306050F8041C082210230FA80CF085FE401E0790402164
:2043B0000170079823E0082302E0102300E00A233068C01C20F00300001D306050F8041CF1
:2043D000AA42BCBF2A1C04920DE03068C01C20F00300001D306050F8041CAA42BCBF2A1C54
:2043F00004926FF009030FA80CF05CFE07900599081A0390009C241ABDF8065000945DB926
:2044100006E008A8202109AA11F0E8FD7F1C009C641E0094F5D50398401EB0F1FF3F03909A
:204430000FD1BDF8060001281CD10098401E009018D408A8202109AA11F0D0FD00987F1CA4
:20445000F4E70798017809AA08A811F0C7FD0798401C079003987F1CDEE708A809AA11F040
:20447000BDFD7F1C0A980178401C0A9000297FF49BAE089808B14146017038460FB0BDE8AE
:20449000F08FC046286E756C6C2900C09C930100BB482DE9F84F0025BA4CB849056094F80E
:2044B000E200002800F06581012800F02F81B64E02283CD0032840F05C8151F8250CD4F88B
:2044D000B8100029A0F5C060C4F8D400B8BF49420028B8BF4042814226DA4FF08057D7F8CB
:2044F000A4014568B4F8BC0030214FF47F42082300903046A847D7F8A4014568B4F8C000F0
:2045100004214FF4F802122300903046A847D7F8A401B4F8D070456820214FF440620A239F
:2045300030460097A847012584F8D8501CE151F8258C13F097F92F4600B901273946934F64
:2045500038680028FCD0B146012609F10409D9F82CA03E6009B113F08BF9CAF30720C4F876
:20457000BC0013F07FF9AA4600B9B2463B68002BFCD0D9F800B0BAF1000F3E6001D013F00C
:2045900077F9CBF38440C4F8C00013F06BF9AA4600B9B2463B68002BFCD0D9F81C90BAF1D3
:2045B000000F3E6001D013F063F9C9F38120C4F8D000B8F5C061C4F8B81000F09C8094F83B
:2045D000D80068B9C4F8D410D4F8C000C4F8C800D4F8BC70C4F8C470D4F8D030C4F8CC30B6
:2045F000D4F8D410D4F8BC30002954BF02206FF0010004F1C802176801EB41014018411070
:2046100000EB917107EBA1001060D4F8C810C4F8C43000291CDD1E293CDDD4F8CC0030B943
:204630003429B4BF15391E21C4F8C81025E02A29BABFD4F8C8000B381E20C4F8C800D4F843
:20465000C4003F28B4BF401C3F20C4F8C4001FE0D4F8CC00032812D011F10B0FC6BFD4F860
:20467000C8000B30301CC4F8C800D4F8C4000028C4BF401E051CC4F8C450032508E011F1BB
:20469000150FC6BFD4F8C8001530301CC4F8C800C4F8CC504FF08057D7F8A401B4F8C430B6
:2046B00030214FF47F424568374800930823A847D7F8A40104214FF4003211234568324853
:2046D0000096A847B4F8C860D7F8A40104214FF4F802122345682C480096A847D7F8A4014C
:2046F00020214FF440620A23B4F8CC60456826480096A84701E084F8D85040F2FF50404554
:2047100002D8801C40452FD2082030E051F8251C1F4F4BF2F5204843060A3868C0F381405C
:2047300001280CD11B4800680068804710F0E2F913F0A4F83111C010484306EBE03694F8BF
:20475000E50030B91448006820F07F408019460801E084F8E5501148310C066001274160AA
:204770000F4D8760287808B90B2000E0052084F8E40004F017FBBDE8F88FC0462D400C4004
:204790002C500C40F006002000A00C4000800C40B43F0050EC010010102009403C600C40D2
:2047B0007E9201002DE9F04F0D46E80789B00BD512F064FF28B100218160AE48006800B1D9
:2047D000804785F0010052E1A80710D5002006900021049000230290009005910393019157
:2047F00001223C2013F0AEFC85F002003FE11E246807DFF88482A14F40F19B800020079065
:2048100082469F498878FF2804BF002012F0E4F8386890F8A00012F013FE06463868C07AEF
:2048300096F82EB1022818BF032806F5947906D108F10D0013F082FC08B908F1070A49460F
:20485000584613F077FC88B33868807A002818BF012804D14146484611F0D4F904E04A460B
:20487000594640460DF048F9FF283DD06043834608EB0B0406224946E01D12F081FC18F8E0
:204890000B0040F0020BE01D079006223868817E01F0010186F82E1104F10109386800F125
:2048B000140106F5947012F06BFC1DE04946584612F0FCFCC0B14A46594640460DF01CF90F
:2048D000FF2811D04443444404F10D0013F036FC40B904F10D0013F031FC002804BF607F85
:2048F000012801D14BF0020B06F12C005B4601780691418909090591728C079904920122C8
:20491000C088029140080390CDF804A0CDF800900020B17913F016FCD6F89C0159498842DD
:20493000B0790CBF002101210BF0F0F885F004009DE0280610D500200690002104900023B6
:204950000290009005910393019101223B2013F0F9FB85F080008AE0E8043CD508F1070195
:2049700008F10D0013F0E2FB38684179012923D1017A012918BF04291ED1C17A022918BFF4
:20499000032919D1817E00F1140240460DF0B4F8FF2811D04443444404F10D0013F0CEFBD7
:2049B00050B9E11D04F10D0013F0C0FB38680622E11D143012F0E4FB334934484A68007813
:2049D0004FF480510FF028FA10B18E2013F0AAFB85F480504BE0A80505D512F043FF2C49C7
:2049F00001200860FEE7690504D509F03AFA85F480603CE0680405D5812013F093FB85F45F
:204A1000804034E0A80431D5224C206810B1002011F0E2FF4FF0FF3020600DF01FFB1E4CD8
:204A3000216851F8202F684690471C48C16A026B2468009101920021029100F134014A6888
:204A500009781368806A03938DF81010ADF812006B46D4F80080124A12491348C0471349FC
:204A7000086003F0FBFF85F4005000E0002009B0BDE8F08F204F002018150020104F0020D0
:204A9000684E002057270100784E00206E4F0020FC002043044F0020F04E0020800B002013
:204AB00054230020300F002088490020EC4E00202DE9F04FB64D686885B0019020B905B029
:204AD000BDE8F04F13F02ABB0178DFF8C882B24EDFF8C892DFF8C8A201291CBF0229042991
:204AF00046F2A81741F64C5B05D0402918BF802900F09A8043E112F0FDFE0028FAD001985D
:204B1000007805F03FFE0090446814B9002011F063FF9AF80100002860D002F0C7FA12F0AF
:204B30008FFC02900168009801914F680CF036FC022827D000990A78012ADBD1994B196858
:204B50000A7A19F80230337018B913F0E3FA5844A0602069C17E01F0EF01C1762069C17EE6
:204B700041F08001C1762069C17E01F0F00141F00201C1768C48B96841182069C16101210C
:204B90000098A0E001980178802913D10822874832700178012903D09AF80100012803DDA1
:204BB00078690121C17213E0D8F828107A690878D0720DE07D49072030700A787869012A07
:204BD00002D10123C37203E0D8F828104A78C2720298817901988AF80210CBE0009800288C
:204BF00088D00199009A0078914205D101281CBF002011F0F1FE15E0012840F0C0806948A5
:204C100001680A7A19F80200307013F083FA3918A06813F07BFA18B913F07CFA5844A060AD
:204C30000120A8700098A5E09AF8010000287DD002F03CFA12F004FC0446206802904768C9
:204C50009AF8020012F0FCFB039012F059FE10F0070F3DD0A87805F095FD0190416801982E
:204C7000009102990CF09AFB022831D001990A78012A2AD14B4B19680A7A19F80230337079
:204C900028B913F047FA83440098C0F808B000990869C17E01F0EF01C17600980069C17E6F
:204CB00041F08001C17600980069C17E01F0F00141F00201C176009AB9683B48411810695E
:204CD000C16101210198A97054E0002011F084FE0398A04228D002980178802913D10822B8
:204CF000324832700178012903D09AF80100012803DD78690121C17213E0D8F828107A6962
:204D10000878D0720DE02949072030700A787869012A02D10123C37203E0D8F828104A7834
:204D3000C272A0798AF80200029823E012F0E8FD10F0070F29D0A87805F024FD04462078E7
:204D5000D4F80480012820D116490A68107A19F80010317013F0DEF93918D8F8080013F0B6
:204D7000D5F920B913F0D6F95844C8F808000120A870204605B0BDE8F04F07F0C9BC05B0DD
:204D9000BDE8F04F002011F027BE05B0BDE8F08FD8240020DC9301006F4F0020289A011003
:204DB000684E0020104F0020F0D8FFFF734F002000B5ADF12C0D8DF80400FAE04FF4417003
:204DD00002A900F079FE9DF808008DF810009DF809008DF811009DF80A008DF812000020F5
:204DF0008DF8140000208DF813009DF80D008DF817009DF80C008DF816009DF80B008DF8B3
:204E10001500082104AA002002F05CFC02A80AF0DBFC03468F480078001DC1B28C4800684D
:204E3000002211F01CF98B480078C01CC1B28848006800226AA311F012F9CEE0854800782A
:204E5000C01CC1B282480068002268A311F007F9C3E000208DF81C007F49102009F052F9F3
:204E70008DF81C007D499DF81C2002AB1020521E09F048F9D8B99DF81C000090754800785C
:204E9000C01CC1B27248006800225BA311F0E7F80DF10A000AF098FC03466E480078401C28
:204EB000C1B26B480068002211F0D9F81BE040F2153008A900F000FE66480078C01CC1B2DA
:204ED00063480068002250A311F0C9F808A80AF07BFC03465F480078401CC1B25C48006874
:204EF000002211F0BCF85E484FF6FF7100220EF0B7FF72E057480078C01CC1B254480068DE
:204F1000002244A311F0ABF867E0564800680DF09FFC142008F0F8FD4E480078C01CC1B271
:204F30004B480068002241A311F099F84C4800214FF6FF720EF094FF4648017845480078C6
:204F5000801CC2B24248006812F068FC45E0142008F0DAFD3F4801783D480068002237A3C8
:204F700011F07DF83E4800214FF6FF720EF078FF38480078401CC1B236480078801CC2B20C
:204F90003348006812F04AFC27E0324801783048006800222CA311F062F81EE02D480178C4
:204FB0002C480078801CC2B22948006812F036FC13E09DF80400401E3FF400AF401E3FF47B
:204FD0003DAF801EA1D0401EC1D0401E3FF441AF401E8FD0401ED8D0E0E70BB000BDC0464E
:204FF000496E697469616C697A6564004164766572746973696E67004E756D20436F6E6ECD
:20501000733A20256400C046436F6E6E656374656400C046436F6E6E656374656420416433
:20503000766572746973696E6700C046446973636F6E6E656374656400C046C054696D6557
:2050500064204F757400C0464572726F7200C046200E0020A0250020F17F0110097F011021
:20507000F80C0020802500202DE9F04F0546A74CA878216AADF11C0D801F00F04181C01E03
:2050900000F02C81401E78D0401E56D0C01E4AD0401E40F03781207A617A00283FD1607876
:2050B00000283BD0A88813F02DF8071C00F02A81A87A40080AD3787940B1E968890A05D2B3
:2050D000B91D01AA09F01AF90A2825D0207B022802D1A87A00091FD36078AE887979C0B1E6
:2050F000607CB0B90120607405F10802304604F0ADF8002840F00681206A002800F0028153
:205110004368002B00F0FE80002130460A469847F8E00521304603E0032100E00521A888C4
:2051300012F0ECFFEEE0002900F0EC804B68002B00F0E8806A780221CEE012F0A7FA00286B
:2051500000F0E080276A0FB1386868B9286900280CBFE0690120698912F0CCFF002800F018
:20517000D18068890121DBE7286900903C6869892A7B6B7BE81CA047C4E068784FF0000801
:20519000002840F09880A8794008C0F09480606A002840F0908001A841460E2212F0C3FC0F
:2051B000A88812F0AFFF061C00F0AC80686900285CD0814641460622113011F0BEFEC24620
:2051D00040B348464146062211F0B7FEF0B999F8100004F1F20309F1110B059347460690D4
:2051F0007F1C5846FFB28BF8007010F09FFE0A280BDA059B069A0101A1EB4001C91888791D
:20521000824202D1002FEBD100E01FB947464FF0010A6F61BAF1000F09D109F1110101A854
:20523000062211F0ADFF99F810008DF80A00BAF1010F1BD06F69CFB1387C07F11101062275
:205250008DF80A0001A811F09BFF06F10C00B11D062211F095FFB01D07F11101062211F0DD
:205270008FFF387C40F00200707107E07079B11D06228DF80A0001A811F082FFA9799DF892
:205290001120C1F3800010438DF81100080905D39DF8110040F008008DF8110001A829463B
:2052B00002F0D4FD28B92078022106F0ADFF404629E04FF0150812F053FB206A10B34368AA
:2052D00003B3A8886A7801219847B8F1000F19D0206A032142464368A88818E7E878291D9E
:2052F000002209F00BF80A280CDA410001EB800005F10C0225300421C0B211F047FC01E0A6
:205310000DF04EFA012007B0BDE8F08F400400207CB5A34D144602460026A2F58062192A33
:205330001BD8DFE812F032012B0123011A0112010D010501FE00F400E800E000D800C60084
:20535000BA001A001A00970081007A0065005C00520047003A0030002500282880F29B80F7
:20537000022940F09880218812F0C0FE064615E1012940F012812178284601750121C1743E
:2053900012F068F80AE1012940F00781002C00F0048128461230024614E0102940F0FD805B
:2053B000002C00F0FA8028465C301022214611F0E7FEF3E0012940F0F080002C00F0ED80A8
:2053D0002A46921D21781046E5E0262940F0E580002C00F0E280284626226C30E6E701293F
:2053F00040F0DB80002C00F0D8802846401D9DE0602900D144B9012940F0CF80002C00F03A
:20541000CC8028460D3091E005F192002146602211F0B6FE01206873C0E0012940F0BD80BB
:20543000207812F05FFEB9E0012940F0B6802178022900F3B280284600F10C0211702178CC
:20545000022918BF301C02D11021C172012012F045FEA3E0072940F0A080611C68460622FB
:2054700011F0E6FC20786946324608F047FF04460A2C10DA12F02EFE40B9204605F0A8FAAE
:20549000502011F074FD0DF09BFB87E0284601212C30015582E0022680E001297DD12A460C
:2054B0002178907B0028917378D12078012875D1E9E72846027B01296FD1022A04D02178FE
:2054D000072901DB102904DD022A66D12178102963D1C17262E001295FD121780A295CDA5C
:2054F0002846093057E0012957D12178022954DA284608304FE000294FD112F0EBFD10B9A9
:2055100011F0DFFEBCE7284601210F3043E0042943D12168234888423FD328461C300160DC
:205530003CE0012939D12B4603F10A00217832E0012932D1217802292FDA2846C01D2AE0A2
:2055500010292AD128464C302FE7012925D12178022922DA2846001D1DE001291DD12178EE
:2055700004291ADC2846C01C02462CE7012914D12178022911DA2846821C24E702290CD176
:20559000218828461630018008E0012905D12178022902DC0448017000E0182630467CBD09
:2055B000400400203F420F00410400202DE9F04F9E4C20780E46F10BADF11C0DC9036ED189
:2055D000B0085ED2606AA16A720807D2F00828BF86F0040680F02581002023E1858861B9EB
:2055F00004F11800924A00904FF6FF710223012012F06CFD0146A16221B304A8009000273B
:20561000019702230293FF220392228B28460DF1120301F03DFB58B99DF813009DF812209B
:20563000A16A12EB002204D0498928460DF06CFDA16A228B08463B464FF6FF7112F042FD39
:205650000146A162206A00291CBF012186F001061FD168B14368616A5BB1888800220121E4
:205670009847206A676A4368B888032100229847616A888811F0F8FE11F094FB86F00106F1
:20569000CFE00020014602F0E1FB30B1012186F00206207806F0B8FDC3E00221F7E70BF0B3
:2056B000C9FC5FEA000800F0BA80054628784FF0010AB03812D0401E03D01F3800F0A580FE
:2056D000A7E02879002840F0A480B8F80200B8F80610B8F808200DF017FD9DE02879401E39
:2056F00041D0083803D0743800F0828087E068781A2879D06888814612F02CF9801E18D0A2
:20571000401E7CD1288901280AD16889032807D1E9688A78484604210DF05EFE024600E09E
:205730001822206A00286AD04368002B67D0042116E02989688852460129814609D1698914
:20575000032906D1E9688F781FB910210DF044FE0246206A002852D04368002B4FD005215F
:20577000484698474BE02B7A688805F10807082B814639D112F0EEF8801E12D0401E33D119
:20579000287B0A2818BF122205D16889042100220DF022FE0246206A30B3436823B3042193
:2057B00020E07888102100220DF016FE237D834693B1484612F0A6FC70B11E490B784BB987
:2057D0004179831D524601F001010846194611F08DFB01E05046E074206A28B143681BB1F9
:2057F00005215A4678889847688811F03DFE06E06A8812F0AFF8014610460EF031F82979E1
:2058100005F1080012F05AFC03E04046FFF72CFC8246BAF1000F02D0284611F01DF986F448
:205830000046B0B207B0BDE8F08FC04640040020A69301005A4F00202DE9FC41884C894A6E
:205850002678894F894D8A490D2E30464FF4A0534CD8DFE816F003010E000E000E000E0005
:20587000FB00FB006800FB00A700A700D800D800DF008049176041F204464C887E4FB4428E
:205890001CBFB1F81AE0B6450BD0B1F83280B0451CBF41F20A46B44203D0B64518BFB04566
:2058B00002D12E80176076E0022C744E2C8035D94FF48067E41B1AD0241F012C1DD94FF424
:2058D0007F77E41B1BD04FF44067E41B0FD0A41E012C0CD9241F0AD0641E012C0DD940F258
:2058F000F937E41B012C19D9241F08D0AEE0022814BF2B80624E16604DE0624EFBE762486A
:205910000468257A012D05D141F20240488048834886F0E74B804B834B86ECE7002011F05D
:205930005BF8832096E059488178FF291ED01C2041435748176040F204460068841C645A23
:205950002C80A41B012C534D10D94FF47F76A41B15D00A3C012C14D940F6F636A41B032C8A
:2059700084BF641F012C0ED9A41E012C76D940F2FD36A41B07D0641E012C02D905E041F262
:205990000143801C4352156005E0002011F024F8852012F00FFCBDE8FC413F480078012136
:2059B00006F032BC4A882A8040F20443D21A55D040F6FC73D21A15D0083A4FD04FF47F73E1
:2059D000D21A22D1354C364A2568364800680023CDE9002355F8086F334B0222B04733498F
:2059F00008803BE0092810D131490A68508960B1304908780DF060F80021002012F05AFB26
:205A1000002020702AE048882880002010F0E4FF85201FE04A882A80022A0DD940F2044099
:205A3000121A1BD040F6FC70121A05D0083A15D04FF47F70121AE8D1887B801CC0B2B52870
:205A5000A8BF662088730020488007E0002010F0C3FF8420BDE8F64112F0ACBBBDE8F3819B
:205A70006F4F0020204F0020BD7A0100504F002024240020204A0020052700004DB0000097
:205A90009DD50000755B0110104F0020684E002058250020916A00006E4F0020F04E00207B
:205AB00002000080EC4E0020D1470100424F002060250020714F00200EB50091ADF80400AE
:205AD00000208DF80600A8E07948009900780870EAE000987749102209F022F8E4E0009876
:205AF0007549102209F01CF8DEE07448009900680860D9E0724900980A68026089888180C4
:205B1000D2E07048009900780870CDE06E48009900780870C8E06D48009900880880C3E0ED
:205B30006B4900980A786B4908F0FAFFBCE06A4900980A78694908F0F3FFB5E068480099FF
:205B500000780870B0E06748009900780870ABE0654900980A68026089888180A4E0634897
:205B70000099007808709FE061480099007808709AE0604800990088088095E05E4800995C
:205B90000078088090E05D480099008808808BE05B4800990088088086E05A480099008857
:205BB000088081E058480099008808807CE0574900980A6802608988818075E0544800999F
:205BD0000088088070E053480099008808806BE0514800990088088066E050480099007895
:205BF000087061E04E480099007808705CE04D4800990078087057E0BDF80400282808DA41
:205C10004949BDF80420102008F07CFA009908804AE002208DF8060046E0BDF80400A0F5FF
:205C300040701D28E8D802A151F820008746C046D95A0000E35A0000EF5A0000FB5A0000B2
:205C5000055B0000135B0000275B0000315B00003F5B00004D5B0000575B0000615B0000A8
:205C70006F5B0000795B0000835B0000095C00008D5B0000975B0000A15B0000AB5B000057
:205C9000B55B0000BF5B0000CD5B0000D75B0000E15B0000095C0000F55B00001D5B000007
:205CB000EB5B0000FF5B00009DF806000EBDC0467124002090240020A024002074240020A3
:205CD00034250020F40D0020F50D0020F60D0020F80D00207C0D0020F90D00209B0D002019
:205CF0007824002079240020C21000207A2400207B240020FA0D0020E80F0020EA0F002055
:205D1000EC0F0020EE0F0020F00F0020C8100020FC0D0020FE0D0020000E0020020E002072
:205D300070240020030E0020F584011010B50B7884074CBF43F0020303F0FD0304064CBFC6
:205D500043F0800303F07F0304074CBF43F0080303F0F70384064CBF43F0200303F0DF0307
:205D700010F0AA0F0B7004D0107840F00C00107010BD18B9117801F0F301117010BDF8B5C0
:205D90000F4600263878022814461D4667D1786801784278069801EB022189B2002818BFAF
:205DB000B1F5285F01D00B20F2BD4FF42850091A0AD0491E1ED0491E4BD0491E22D0491EAC
:205DD00028D0C53941D04AE0F86811F0B0FE069B079980B2C21A8A42ACBF0846C01A80B293
:205DF000C118162904DA28800246F868C1180DE00D2636E0F8680088022129802070000AF0
:205E100060702EE0062028800622F968204611F0B7F926E0F868B0B1082129800188217073
:205E30000188090A61704188A1704188090AE170818821718188090A6171C188A171C088B2
:205E5000000AE0710DE029800BE04A480178CA0705D401202880F8680178217001E02E80DF
:205E700001263046F2BD2DE9F8460E46814630780024022817469A4678D1706801784278D0
:205E90003C4D01EB022189B24FF42850091A08D0491E30D0491E55D0491E3FD0C63960D0D1
:205EB00064E0F06811F043FE089980B2884206D308460AEB0001162903DB0D2457E007248A
:205ED00055E0F36852463946184411F059F908985044ADF8200000210898F368C0F116027E
:205EF000184411F020FE686800281CBF0268002A3DD0002123E0089888BBBAF1020FDCD133
:205F100039787878F26801EB00211180686800281CBF0268002A2AD0012110E00898F0B91C
:205F3000BAF1060FC9D1F0680622394611F028F9686800281CBF0268002A18D003214846D5
:205F5000904714E0089850B9BAF1010FB5D13878002813BF0128F1680870802407E00B241E
:205F700005E02878C10758BF032400D501242046BDE8F286141000202DE9F04F8246DAF8D6
:205F900000600C465FEA0208ADF11C0D14BF00214FF0FF3106F14800834611F0D9FA0028BE
:205FB00018BF0B2040F00681002565708448F460B8F1010F057004D065700220F4600FF0B2
:205FD000EBFC2078012840F2AB80801E012868D9801E012833D9801E012800F2DF8011F0B8
:205FF00080FD06904FF0805000F5EE77D0F8DC01A378466A009321782846062908BF0120F4
:20601000019001200290A068228AE1686368B0478146069812F09AF8B9F1000F40F0C0804B
:20603000B8F1000F02D011F06FF802E0504610F045F9002800F0A4803868806A2AE011F0D7
:2060500050FD06904FF0805000F5EE77D0F8DC01012306680093A168A27860682478AC46A1
:20607000042C08BF9C466346B0478146069812F06DF8B9F1000F40F09380B8F1000F02D045
:2060900011F042F802E0504610F018F9002877D03868406880474949C1F8B0510D6081462E
:2060B0007EE011F01EFD06904FF0805000F5EE76D0F8DC01E38A87690093E0680190208B3F
:2060D0000290A0780390207D04900121059122782846022A08BF081CE1786268A368B8473E
:2060F0008146069812F032F8B9F1000F58D1B8F1000F02D011F008F802E0504610F0DEF844
:2061100000283DD03068006A80475FEA000947D13068C569A168E28A2369E078A847BEE754
:2061300011F0DFFC06904FF0805000F5EE76D0F8DC01E38AC7680093E0680190208B02908B
:20615000A0780390207D2946049001200590257805B9014608466268A368E178B84781464A
:20617000069811F0F3FFB9F1000F19D1B8F1000F02D010F0C9FF02E0504610F09FF808B9B9
:20619000142017E03068406980475FEA000907D1306802692169E078904780E74FF0FF39F8
:2061B000B8F1010F02D002200FF0D8FA584611F0A8FC484607B0BDE8F08FC04650450240C8
:2061D0009D2500202DE9F04FDFF80CB29BF80000002885B004D0401E032804D9801F0128F1
:2061F00040F2F780EFE07D4DDFF8F4812868DFF8F49103687C4E03F10807062207F10801B4
:2062100003A810F0BDFF0622B91C01A810F0B8FF3878C0F380118DF800101E24C10900F025
:206230000F02032A39D16879C0F38000814233D12969062203A810F0FFFB00282CD09DF813
:20625000000001A911F076FF002825D0314601A80FF0D8FC0746FF2F1ED0D9F80000807ACA
:206270006743002818BF02280BD0012818BF032812D1701CF25DC119404611F017FF1028C8
:206290000AD0F41901AAE11D40460BF0C6FD062201A9E01D10F074FF90E000F00F0005283C
:2062B00040F097806879C0F380008142F4D12969062203A810F0C0FB0028EDD09DF8000051
:2062D0003F7801A911F036FF7F0940F2024A88B3314601A80FF096FC8346BBF1FF0F6DD065
:2062F000D9F80000807A002804FB0BF118BF012800910CD0022818BF03285FD10846711CFC
:20631000325C0144404611F0D1FE102856D0504611F0C8FE009806EB000A01AA0AF1070148
:2063300040460BF07AFD062201A90AF1070010F027FF1CE09BF8000002283FD19DF80010ED
:2063500001AA30460BF0D8FB8346BBF1FF0F35D004FB0BF03118487F012805D070BB01F191
:206370000D0011F0EBFE48B3504611F09BFE04FB0BF4D9F80010305D88760622701C0119B3
:20639000D9F80000143010F0FBFE184918488A78510604D5F90758BF41F20A4101D541F24E
:2063B00004414180418341861248134A01801348134908600121107805F026FF29680A681E
:2063D0000020107105E0002010F006FB862011F0F1FE05B0BDE8F08F6F4F0020F44B00205A
:2063F000CC470020104F00201815002040240020204A0020504F00206E4F002005270000B8
:20641000204F00202DE9FE4F05467E48002400680094C0090ED37C48007858B97C497B48CA
:2064300051F8112C104040F0817041F8110C20200DF03CFF012D40F0E080DFF80092D9F88F
:20645000DC00012840F0D6800220C9F8DC0010F033FA01200DF02AFF5FEA000805D0012027
:20647000C9F8DC0010F038FAC9E011F04EFBA34602906848684DC0F800B0A86A0168012066
:206490008847012804D158460AF0F4FF012000906248634FC0F800B03868112011F000FA53
:2064B00000B10124102011F0FBF908B144F002040F2011F0F5F908B144F004040B2011F09F
:2064D000EFF920B12868574E016B308888470A2011F0E6F920B12868534E016B30888847CC
:2064F0005248012606602868816944F0200088474F48066011F0CEF900F001010191400837
:2065100014D2286A81684B4888478246BAF1040FF7D0BAF1010F04D1286A426845480321DE
:2065300090474549086820F003000860584600F0B7FC2B683868986B8047019801280CD01F
:20655000BAF1010F04D1286A42683A48314690473949086840F00300086030480660286894
:206570004169204688470B2011F09AF920B128682C4BC16A188888470A2011F091F920B175
:206590002868294BC16A18888847284806600322C9F8DC20264BC3F800B02868416B204617
:2065B00088470128F9D1386804200DF07FFE0446184806603868134800688009FBD3009869
:2065D000012802D130460AF055FF11F051F908200DF06CFE07460298C9F8DC6011F05EFDD1
:2065F0000BF0F0FA10F078F957EA040018BF4FF0FF3804E06FF0040801E06FF00108404685
:20661000BDE8FE8F14100940D8070020FFFFFCFC150009400C400940B801001000022243B3
:206630002C200940468E0100428E010028200860800104430040034024220840F006002070
:206650000EB58DF801108DF800008848006830B94FF0004000210BF04FFE84490860834843
:2066700000680021002256A30FF0F9FC97E07F4800680021002256A30FF0F1FC7B48006879
:206690000221002255A30FF0EAFC97E09DF8010001280ED175480068002100224CA30FF05D
:2066B000DEFC724800680221002251A30FF0D7FC84E06E4800680021002245A30FF0CFFC4C
:2066D0006A480068022100224FA30FF0C8FC75E066480068002100223DA30FF0C0FC6348A2
:2066F0000068022100224DA30FF0B9FC01208DF804009DF80400002860D09DF804000028DD
:20671000FBD15BE0594800680021002230A30FF0A6FC564800680221002244A30FF09FFCD6
:2067300001208DF804009DF80400002846D09DF804000028FBD141E04C48006800210022DB
:2067500023A30FF08CFC49480068022100223CA30FF085FC01208DF804009DF804000028D4
:206770002CD09DF804000028FBD127E03F4800680021002216A30FF072FC3C480068022112
:20679000002234A30FF06BFC01208DF804009DF8040098B19DF804000028FBD10EE09DF8EE
