:2000000000400020CD4B010001C9011001C9011001C9011001C9011001C9011001C9011045
:1C00200001C9011001C9011001C9011001C9011001C9011001C901103FC9011089
:20003C0080B54FF4FC720FF278011A480FF010F8012119484174002202210270C17601BDF7
:20005C002DE9F0410FF2502214493820136854689568D6681769D2F814C0D2F818E0D2F8F9
:20007C001C800B604C608D60CE600F61C1F814C0C1F818E0C1F81C8020322031401EE5D1DC
:20009C0050689368D46812680A6048608B60CC60BDE8F081480400215903002100C00021D1
:2000BC00410500217D0500212D06002170B51D46004C204787B2000010B5014800470000FD
:2000DC00D509000070B5614C6148254650358047022809D14034E1885E4A914204D1E97C5E
:2000FC00890601D4911DE18070BD70B557495A4A084650300378002B10D08379012B0DD181
:20011C00037C5B09DB0709D0097D544DC1746C7F20202043687790476C7770BDFF21C17420
:20013C00904770BD10B54E48484C804702280ED121464031CA88474B9A4208D1CA7C5209CE
:20015C00D20704D0227D920601D49A1DCA8010BD70B53E4843494030C07C4009C00707D032
:20017C003E4D41482C8B2043288388472C8370BD884770BD10B53B48344CAC388047214609
:20019C0053310A789309DB0705D04034A2730A7803231A430A7010BD2C4940310871182876
:2001BC0012D004DC0A280BD00B2804D10AE025280CD02A280CD02D4980004018C0687047DE
:2001DC002B4870472B4870472B4870472B4870472B48704770B504461C484E252D5CAE09AB
:2001FC00F60716D0067D3007000F052803D00120054202D00DE00220FAE7E80905D07006D1
:20021C0003D54868800F012803D05B085B0052085200062B03D01020022B11D011E0FB20F7
:20023C00024002232046FFF741FF002807DAC100611A2039497E1422114200D1002070BD93
:20025C00024303432046FFF731FF70BD4401002137CB000004140000EBC80000A800002142
:20027C00F5B4000053AD00002020000080DF00001D050021F9040021CD040021930400210F
:20029C006D04002110B5034CFFF716FF20680028FAD110BD0011044068610000F825F965B0
:2002BC00F9754500450045002600260057A3520052004C00401F401F401F3F000000000053
:2002DC00304000400140034007400F404F40CF40CF41CF43CF47CF4FCF3FCF2FCF1FCF0F6C
:2002FC00000000000000000000000F00080000003F00000040003F000000040068000E0093
:20031C00DC00060043001A00050000000000020000000000000000000400C00000000400B3
:20033C00C000000007000000000000000000000000000000000000003040004001400340A6
:20035C0007400F404F40CF40CF7FCF6FCF5FCF4FCF3FCF2FCF1FCF0F00000000000000009D
:20037C0050C00091007070C00091007082312100319110B10070018101B100A1823132910D
:20039C0010B101911110418141227740F106007051C0019130181039833108D01831416FD1
:2003BC003100319110B18314141683680070251050C00091F4C340C12014036F3110410497
:2003DC005082F0229840512622C082312100319110B163393110410482C08231210031919B
:2003FC0010B163393110A2C082312100319110B150101531051405920070676452C03110A6
:20041C0031066131C1026A6412C13110213971065131E1026A64007051C0019101CCE2C0CC
:20043C006A64676411C1C2C06A6450B054B0007140804022D6440022C94060B08180111EC9
:20045C00C944007054A064B0F0800022C9404012B09032B070C1DF6811C122C16A6470C1C0
:20047C00E46851C00191E2C0823160820200329110B130C2EE68538253395339B16460C347
:20049C00F4688012B09032B00070676401C122C16A6401C1C2C06A645382B164C012B09074
:2004BC0032B00070676472C281C06A6422C111C16A6402C011C16A6462C031C36A6462C3D2
:2004DC0011C16A6402C311C16A6453825339B164E2C36F6411221C4142C281C86A6452C24E
:2004FC0011C16A6472C2E1CE6A6402C281C86A6402C201C86A64B0C030690070676442C211
:20051C0001C86A6452C211C06A6472C2E1C06A6402C001C16A6462C001C36A6422C101C127
:20053C006A6462C301C16A6402C301C16A645382B16400708180111E5C4150B054B000712B
:20055C00408040225D4154A064B0F1800122514500700022514160B04E61000000000000AA
:20057C000000000000000000067305720B720E7250B00071818060B050A09280F0EFF1928C
:20059C0002936A6741228C458080F1C11004301601110114016CB561B661B761B861B9618D
:2005BC00BA61BB61BD61BF61C161C36126632D63F0C002043231412A121432160111211412
:2005DC00016CDA61C561E061C761CB61B561B561B561F461C561FA61C761CB61B561B56104
:2005FC00B561F461C561FA61C761CB61B561B561B561E761C561ED61C761CB61B561B56121
:20061C00B561CF61CF61CF61CF61CF61CF61C064CF61F964CF610665CF613265CF6174676A
:20063C00CF611166CF61C0644E65F964CF61066511663265CF618280E0DFF2926A67B0B044
:20065C00D661B1B00673057230B06C61D0CF6A6784C203C0C0C37C64207851788278E378B7
:20067C001579B6780062C0CF6A6784C203C0C0C37C64307861789278F3781579C678006250
:20069C00B0CF6A6784C203C0C0C37C6440787178A27803791579D678109221923292439281
:2006BC005492659256911FC0FF914039F00601101031101400927067CF61E3B054A0F08076
:2006DC0050221A4640800022BE461262E3A000C86091598150B0918041228E46A0CF6A6734
:2006FC0012828231823942398B641282F2062F101F312F141682D622334640C1346200C5AF
:20071C0020140D6F6D39DE10F4C34E0482C082312E006D39A2C082312D001A828A39FA0606
:20073C002082803180390BC00B18BC10AC18038239149B141082F0060110103110145181C2
:20075C0010140C14C622C94631D0C1266462021011C0013010C00118021882312100C126C2
:20077C00919103B013B063B053B041800122BE46B481C491D581B51C774E95186591F0803E
:20079C00102269428C623D9110B13E9110B1E08000228146E6228142E0B0951865910F926B
:2007BC005981F914F0805022114210228C464D6390CF6A6763B052A03082F2C0200402107E
:2007DC0011C0013010C00118021882312100C1269191919113B003B063B053B064B054B055
:2007FC00007141800122BE4663B064B0F08050221142B181C191D1819118619131B0A462D0
:20081C002967E0A059810582591480C0007163B0BA6A6962E3A0018262818231823D80EF61
:20083C00F19202936A6703A0007037824739873930828039F006021011C0013010C0011849
:20085C00021882312100C126819102B012B030824039F006021011C0013010C001180218E9
:20087C0082312100C126919103B013B063B053B0007153A062B052B041800122BE46A4816E
:20089C00C491D581B51CFE4E95186591F0801022F0428C62B481C491D4814518751C084FEB
:2008BC00F0801022F0428C623D9110B13E9110B1E08000221247E6221243E0B065910F92DC
:2008DC005981F914F0805022114210228C4630632967E0A0598105825914F0C0007162B038
:2008FC00226BF062A2808B64CF6112824239F2068B6050B00071CF6170CF6A674082418096
:20091C000122BE46A481C491D58195186591F18011228C46336B41800122BE46A481C491AB
:20093C00D581C51C1C4B95186591F08010223F438C6260CF6A67408241800122BE46B48169
:20095C00C491D58195186591F18011228C46506B41800122BE46B481C491D581C51CB44A55
:20097C0095186591F08010225C438C62E092D08200226B47C0B20070A080F022874330B033
:20099C0002C1623101C0A080001E8043F022814380F86031603981632010101A136F236E5A
:2009BC0011161216826B00702DE9F84FDFF81885DFF8181588F80000002008600921DFF891
:2009DC00100501700D2141804FF408718180DFF80405DFF8041501608A7EDFF80005027042
:2009FC00FF2ACB7E437008BFFF2B0D7F85704E7FC6708F7F0771C97F417115D1FF2D08BFE8
:200A1C00FF2E11D1FF2F08BFFF290DD1DFF8D0140A7802704A7842708A788270CA78C27025
:200A3C000A79027149794171DFF8B81402780A70FF2542784A7082788A70C278CA7002791E
:200A5C000A714079DFF8A02448710021DFF89C04057045708570C570057145711180DFF872
:200A7C009004DFF89014466BDFF88C247078087031781170B078DFF884140870716908791F
:200A9C00DFF87C14421E0A70F078DFF878140870B069DFF87414086008B916F06DFEF0694B
:200ABC00DFF86844206008B916F066FE2068DFF8607401688847216851F8042F3846904727
:200ADC00DFF85004DFF850143862DFF850047862306A086008B916F04FFE706ADFF84014DA
:200AFC00086008B916F048FEDFF838B4DFF838649BF8040017F07AFD306008B900F045B9DB
:200B1C009BF80500DFF8247417F070FD386008B9306837E19BF80600DFF8144417F066FD03
:200B3C00206020B9306817F069FD38682AE19BF80700DFF8009417F059FDC9F8000038B97C
:200B5C00306817F05BFD386817F058FD206819E1DFF8A4130A789BF80000DFF8DCA3921C5D
:200B7C00504380B217F042FDCAF8080058B9306817F044FD386817F041FD206817F03EFDE4
:200B9C00D9F80000FEE0DC480078002800F00281BBF80210DFF8A4B3484380B217F026FD79
:200BBC00CBF8040078B9306817F028FD386817F025FD206817F022FDD9F8000017F01EFDF3
:200BDC00DAF80800DEE0CC48007817F00FFDDC49086080B9306817F011FD386817F00EFD9D
:200BFC00D9F8000017F00AFDDAF8080017F006FDDBF80400C6E0C04800781C21484317F04A
:200C1C00F5FCD04A1060B0B9306817F0F7FC386817F0F4FC206817F0F1FCD9F8000017F057
:200C3C00EDFCDAF8080017F0E9FCDBF8040017F0E5FCC348A5E0B0480078400117F0D6FC10
:200C5C00C1490860D8B9306817F0D8FC386817F0D5FC206817F0D2FCD9F8000017F0CEFC8B
:200C7C00DAF8080017F0CAFCDBF8040017F0C6FCB348006817F0C2FCB249086882E09E4836
:200C9C000078000117F0B2FCB0490860F0B9306817F0B4FC386817F0B1FC206817F0AEFC24
:200CBC00D9F8000017F0AAFCDAF8080017F0A6FCDBF8040017F0A2FCA148006817F09EFCA9
:200CDC00A049086817F09AFC9F485AE08A480078000117F08BFC9E49086018BB306817F047
:200CFC008DFC386817F08AFC206817F087FCD9F8000017F083FCDAF8080017F07FFCDBF88A
:200D1C00040017F07BFC8E48006817F077FC8D49086817F073FC8C48006817F06FFC8B493F
:200D3C0008682FE0744800783021484317F05EFC884A106070BB306817F060FC386817F098
:200D5C005DFC206817F05AFCD9F8000017F056FCDAF8080017F052FCDBF8040017F04EFCB8
:200D7C007748006817F04AFC7649086817F046FC7548006817F042FC7449086817F03EFC93
:200D9C007348006817F03AFC002016F0F5FC4FF4804192E03168012008713068057331686E
:200DBC004D73306885733168CD7330680574002031684D743268D072A0223168487103214F
:200DDC003068C28001720720316848720020326890722821306841820121C17600203168BE
:200DFC004877326882F85E00012031680877326882F85D00396808713868057339684D7369
:200E1C00386885733968CD7338680574002039684D743A68D072396848713A6890724FF47D
:200E3C00207039680022C88008818A7401213A68D17421680D732268557321688D732268FD
:200E5C00D57321680D740021226855742368D9720121226811710021236859712168C88065
:200E7C000881002088722168887405202268D0743948016888472A490A6805461068804713
:200E9C0027490A6852F8043F0020984718481D4BC16818780A88314902430A802846304985
:200EBC000A6890470C212F4800F05EF80F4800F05FF800F061F84FF4005198F80000BDE833
:200EDC00F44F0BF02BBB00BF6E4F0020044F0020604E0020084F0020B63F00502C4E00209F
:200EFC00E81200503C4E00200C4F0020344E002000A301006D4F00207B4F00206B4F002081
:200F1C00724F00206C4F0020F04E0020F44E00207C4B002009860100F84E002019860100BC
:200F3C00FC4E002038120020104F0020E4280020184F0020E02800205C280020684E0020ED
:200F5C00004F0020D8280020DC280020884E00208C4E0020904E00201C100020544F0020C5
:200F7C0020100020F84D0020DFF800F0E5710110DFF800F01D6E0110DFF800F04D71011079
:200F9C000EB5009017F085F8029000200190019803281FD20199880000EBC10010490858DF
:200FBC00C0B10199880000EBC1000D4908580099884209D1029816F05EFE0199880000EBDA
:200FDC00C1000749401809E00198401C019001980328DFD3029816F04EFE00200EBDC046CA
:040FFC0000260020AB
:20100000B41200001810000015AB0110FDB301106DC00110FDAE011099B5011000000000F7
:08102000000000002D0000009B
:20102800B01200003C100000B1C00110A9BF011067C0011069B80110000000000000000035
:041048003000000074
:20104C00B012000060100000BDC00110CDB30110D9BD01106DB3011000000000000000005B
:04106C00310000004F
:20107000000000007812002004000000000000000000000020000000E8C9011030000000A0
:2010900028100000801200200400000000000000000000000C000000D8CA0110180000007B
:2010B0004C1000008812002004000000000000000000000024000000F0CA011018000000FF
:2010D00000000000901200200400000000000000000000001000000018CA01102C0000000B
:2010F00000100000A0120020040000000000000000000000200000006CCA0110240000006F
:20111000FFFFFFFFA81200200400000000000000000000002800000090CA0110240000002E
:20113000FFFFFFFFB01200200400000000000000000000001400000008CB011018000000AD
:20115000FFFFFFFFB812002004000000000000000000000058000000B4C90110340000007B
:20117000FFFFFFFFC01200200400000000000000000000001000000020CB01101800000049
:20119000FFFFFFFFC81200200400000000000000000000001C000000B4CA01102400000076
:2011B000FFFFFFFFD01200200400000000000000000000003800000044CA0110280000009E
:2011D000FFFFFFFFD81200200400000000000000000000005400000078C901103C00000013
:0811F00001000000B0A20100A3
:0411F80001000000F2
:0411FC0000000E00E1
:0412000000000F00DB
:0412040032000000B4
:0412080001000000E1
:04120C00701000203E
:0412100000020000D8
:0412140000000000D6
:0412180001C90110F7
:04121C0000000000CE
:0412200000000000CA
:0412240008000000BE
:0412280000002200A0
:04122C001C0E002074
:0412300000000000BA
:0412340000000000B6
:0412380008000000AA
:04123C009C0F0020E3
:0412400000000000AA
:0412440000000000A6
:04124800080000009A
:04124C00000000009E
:04125000000000009A
:041254000000000096
:041258000000000092
:04125C00010000008D
:04126000840E0020D8
:041264000600000080
:041268000100000081
:04126C00480D002009
:04127000000000007A
:041274000000000076
:041278000002000070
:04127C00000000006E
:02128000290043
:02128200010069
:02128400250043
:02128600300036
:02128800310033
:02128A002D0035
:02128C0001005F
:01128E00015E
:081290000300000010A20100A0
:0812980000000000000000004E
:0412A0000000010049
:0412A4000000030043
:0412A80013C401105A
:0412AC005F8101005D
:0412B000B812000070
:0412B400B81200006C
:0412B8000000000032
:0412BC00D811002025
:0412C000B7840100EE
:0412C4002000000006
:0412C80020A1010060
:0412CC00C09E0100BF
:0412D00029C101101F
:0412D4007757010047
:0412D800235C010092
:0412DC00A1C7011095
:0412E000A3C701108F
:0412E4000000000006
:0412E800FCA2010063
:0412EC00009D010060
:0412F000189D010044
:0412F400E89C010071
:0212F8000200F2
:0212FA000900E9
:0212FC000100EF
:0212FE000000EE
:0113000001EB
:04130400B5830100AC
:041308004562010039
:04130C006174010007
:04131000FD66010075
:041314001F63010052
:04131800D9480100AF
:04131C0005160100B1
:041320003B87010006
:04132400B12F0100E4
:0413280015C70110D4
:04132C0025C70110C0
:201330002DE9F04F0C4685B0834614F8010BDFF870278DF8000018280BF1FD010BF1E708C8
:201350000BF166090BF20D1A0BF5B0760BF59C750BF5C67700F29183DFE810F019006F0025
:201370005F0191008F038F03FA00690311012301FE000D0133018F038F037C018F036101D7
:2013900055017503D602D60227028F03740214F8010B8BF88600022221460BF1880017F057
:2013B000E3FE014602220BF18A0017F0DDFE014602220BF18C0017F0D7FE014602220BF133
:2013D0008E0017F0D1FE04469BF8860040008BF886000BF1860102224888400048800BF172
:2013F00086008188490081800BF1860108890001088121460BF1840017F0B6FEB9F81E10E5
:20141000BBF80800091A89B247F6FF7291422ADA0BF18601C8888A88401C520050430A8965
:20143000904203D33B208AF80B0039E2012089F81C000020ABF81E001EE0052221460BF1CA
:20145000610017F091FE014602220BF1920017F08BFE0BF1860047F6FF728189BBF8080007
:20147000091A89B2914280F218820BF18600012181720021ABF81E10012028700CE398F85E
:201490001600C1070AD41A2198F80D0088F80E10012808BF0D213FD00D21CDE1002089F860
:2014B000000089F806000822012088F8110021460BF1B00017F058FE014602220BF1B8002A
:2014D00017F052FE0BF1A80601460822304617F04BFE04460821304617F042FE0BF19C06F6
:2014F00004222146304617F03FFE0421304617F037FE0BF1A00017F02FFE0BF1980017F053
:2015100027FEDFF8A005018841F08001018098F80D00012806D10421584605B0BDE8F04F65
:2015300014F0E4BC99F81000012804BF99F811100F290BD1584611F075FF0421584610F0CE
:2015500035FD0F2089F81A00FD2175E1042173E1012088F80F009FE2002089F8000089F83F
:20157000060088F800000B21012088F80D00002088F8010060E1012088F810008CE20020DA
:2015900002F10906235C365C33432354561C365C33400B54401C0828F2DB584611F036F83F
:2015B00070E2002002F10905235C2D5C2B432354551C2D5C2B400B54401C0828F2DB02207C
:2015D00048E299F8060008B93D2167E19AF800000128D3D014F8011B8AF80310022221462D
:2015F0000BF5897017F0C0FD014602220BF58A7017F0BAFD01208AF800009AF8020000289C
:201610001BD10C2118E198F81600C10601D41221D1E0584612F0ECFB34E221783EE1207895
:2016300030706078707099F8100001280CD199F811100F2902D0162902D02DE268732BE2D7
:20165000387B40F0010016E205B0BDE8F04F002016F098B898F81600810707D410F0110F66
:2016700008BF0F2000F009821A2252E02078617800EB01202882E178A07800EB01206882ED
:201690006179207900EB0120A882E179A07900EB0120E882207A2876A17A607A00EB01206F
:2016B0006883217BE07A00EB0120A883A17B607B00EB0120E883217CE07B00EB01202884E4
:2016D000A17C607C00EB01206884217DE07C00EB0120A884A17D607D00EB0120E8840BF564
:2016F000AA700490688B0390287E0290BBF808000190E88A0090AB8A6A8A298A58460FF0A7
:2017100057FE68B198F81600410701D40F2152E01E22584605B0BDE8F04F0F2114F002BCBD
:20173000688A0BF186018880A88AC880E88A088102208BF8860000204880BBF83400C01DD0
:20175000A9F81E008888BBF83210884201BF0BF18600C188BBF83400814206D10BF186005D
:201770000189BBF8360081421DD099F81000012804BF99F811100F2907D099F8150020B171
:201790000F2189F81A10FE2156E0FC21584610F00DFCE88A0090AB8A6A8A298A9BF80600CE
:2017B00017F0D2FC78E1102146E098F8170010F0090F03D116218AF80C1060E1607821787A
:2017D00000F00700014021702078797B0140F97211D0481E01420CD0490704D5B87B10B175
:2017F0000421F97205E0F97A022001421AD14008FBD1F87A08B9B97AF972F87A042803D14A
:20181000584612F0E3FBB083F87A17F099FC3871B28BB97B012313F037FA0146308B8842BB
:2018300002D207E0F872E4E7B28BB97B3879012313F02AFA78801721584605B0BDE8F04FD4
:2018500010F0B4BB60782178814207D100F007000840207033D0421E10420FD01E22182121
:20187000584614F05FFB9BF80610002300221E200DF078F9387B40F04000FCE0F87247F61C
:20189000FF72A078E17800EB012038813989BBF80800091A89B2914206DB28218AF80B101C
:2018B00001208AF80A00F7E00120B871F87A042803D1584612F08AFBB083F87A0BE099F892
:2018D0001100162806D1BA7A9BF80610134600200DF048F9B87A3871B28BB97B387901231D
:2018F00013F0D2F90146308B884205D3B28BB97B3879012313F0C8F978800121387B40F05F
:20191000400038732970C7E02078617800EB01207082E178A07800EB0120F08261792079BB
:2019300000EB01203082E179A07900EB0120B082B18AF089884288BF0846B97A042905D1DF
:2019500040F691229042B8BF4FF42960F28BF0839042B87A14BF01240024042803D15846CB
:2019700012F034FB04E0B089F18A884288BF0846B28BB083904214BF012100210C433089CF
:20199000718A328B884288BF0846904214BF012100210C433083B28BB97B3879012313F0ED
:2019B00073F90146308B884205D3B28BB97B3879012313F069F978807189308A728B8142F0
:2019D00088BF0146718391429BF8063014BF0120002004438A4234490A6802EB4311728B85
:2019F0008041121DC00F0A7610B1584614F0AEFD9DF80000142810D144B1F08B0090738BDA
:201A1000B28B318B9BF8060017F096FB584605B0BDE8F04F15210EF049BD1CB1387840F06E
:201A300008003870397841F02001397034E020780E280ED00F2809D0122804D014280CD044
:201A5000162812D028E00020287225E00120287322E0032088F815001EE0387840F0020039
:201A7000387040F01000387016E0387B40F00200387340F0100038730EE08AF80C0058463B
:201A900011F0D8FD40B905B0BDE8F04F074800784FF480410AF048BD05B0BDE8F08F00BF6C
:201AB000B0270020524F0020DC2800206E4F002000B5ADF1140D02928DF80E10ADF80C0001
:201AD00000208DF80F004FE29DF80E00102805D10299AC4810220DF0C1FA85E218208DF8C3
:201AF0000F0081E29DF80E00102805D10299AF4810220DF0B3FA77E218208DF80F0073E2CB
:201B10009DF80E00042804D10298B049006808606AE218208DF80F0066E29DF80E00012882
:201B300044D1AD48007801283CD0AC4800788DF810000298A949007808709DF81000B0B15B
:201B5000A648007898B9AF480078022804D0AD480078052840F04882AB480178502012F0DF
:201B700083FFAA49024610200CF014FD3CE29DF81000002840F0388298480078002800F016
:201B90003382A0480078012808D09E480078042804D09C480078052840F02682012016F039
:201BB000C5FB21E212208DF80F001DE218208DF80F0019E29DF80E0001284CD18748007896
:201BD000012844D0844800788DF8100002988249007808709DF81000D0B17F480078B8B9B4
:201BF00088480078032808D086480078072804D084480078052840F0F78183480178502074
:201C100012F032FF8149024610200CF0C3FCEBE19DF81000002840F0E7816F4800780028FC
:201C300000F0E2817748007801280CD075480078042808D073480078062804D07148007866
:201C5000052840F0D181012016F070FBCCE112208DF80F00C8E118208DF80F00C4E19DF811
:201C70000E00022804D10298B84900880880BBE118208DF80F00B7E19DF80E001F2821DCB5
:201C9000B54800211F220FF094F802999DF80E20B1480DF0E3F99DF80E00B04908705A4864
:201CB0000178502012F0E0FE0246AC480078AC490090A9480123019010200CF06BFC8DF854
:201CD0000F0091E118208DF80F008DE19DF80E001F2821DCA34800211F220FF06AF8029909
:201CF0009DF80E209F480DF0B9F99DF80E00C049087045480178502012F0B6FE0246BC48DF
:201D100000789749009097480023019010200CF041FC8DF80F0067E118208DF80F0063E1E3
:201D30009DF80E00012808D102980078042804DC0298B0490078087056E118208DF80F004A
:201D500052E19DF80E00012808D102980078032804DC0298A8490078087045E118208DF820
:201D70000F0041E19DF80E00062806D10298A34902680A608088888036E118208DF80F002D
:201D900032E1C046EC2700209DF80E00012808D102980078072804DC0298994900780870B5
:201DB00022E118208DF80F001EE1C046FC2700209DF80E0001280BD102980078032807DC34
:201DD00002989049007808700EE1C046E427002018208DF80F0007E13910002038100020EB
:201DF0009DF80E00012808D102980078062804DA0298854900780870F6E018208DF80F0016
:201E1000F2E0C046E0270020D82700209945011002980088ADF810009DF80E0002280DD123
:201E3000BDF81000062809DBBDF81000B0F5486F04DCBDF8100075490880D5E018208DF83D
:201E50000F00D1E002980088ADF810009DF80E0002280DD1BDF81000062809DBBDF8100094
:201E7000B0F5486F04DCBDF8100069490880BBE018208DF80F00B7E002980088ADF8100042
:201E90009DF80E00022809D1BDF81000B0F5FA7F04DABDF810005F490880A5E018208DF893
:201EB0000F00A1E002980088ADF810009DF80E0002280DD1BDF810000A2809DBBDF8100060
:201ED000B0F5486F04DCBDF81000534908808BE018208DF80F0087E0029800788DF8100088
:201EF0009DF80E00012819D19DF81000012815D14A4815F0D9FD68B9434900200AF09CFF99
:201F10008DF80F009DF80F0000286DD1444816F0D1F969E016208DF80F0065E018208DF8A2
:201F30000F0061E0BDF80C00282811DA9DF80E0002280DD102983B49BDF80C2003881020E0
:201F50000CF028FB8DF80F004EE0C0463A10002002208DF80F0047E0DC0F00203C100020CC
:201F700009450110FB0F0020BDF80C00A0F201301A28D7D801A151F820008746D91A000088
:201F9000F51A0000111B0000351F00002B1B00006F1C0000891C0000DD1C0000311D0000E5
:201FB000531D0000751D0000991D0000C11D0000351F0000351F0000F11D0000211E000086
:201FD000551E0000891E0000B51E0000351F0000351F0000351F0000351F0000E91E0000AD
:201FF000351F0000C51B00009DF80F0005B000BD3D100020E8270020E9270020F612002093
:20201000EA270020EB270020F0110020F2110020F4110020F6110020F8110020D826002076
:20203000B4260020BD8401102DE9F84F012014F0DBFA01280ED1DFF8F87439680020487128
:20205000386812F043FE05F001FC040003D1812017F06EF868E201206071DFF8D854DFF89F
:20207000D8044178491C41703968A07981F8A00040200EF027FD2060287901281CBF00200B
:2020900015F080FBE8682168DFF8B05400F5B060C860286801680A79032A1CBF002015F026
:2020B00071FB2868DFF898840168DFF898B401F10809062299F80000C0F3801084F82E01EB
:2020D00009F1020104F5947015F07EFF042209F10E0104F1240015F077FFD8F80000A679C2
:2020F00000F10C03042209F10E0103EB461015F06BFFD8F80000A37900EB4310032209F1A5
:202110001201103015F060FF04F12C0699F81500B070022209F1160104F1300015F054FF59
:20213000022209F1180104F1320015F04DFF022209F11A0104F1340015F046FF3089608497
:20215000022209F11C0104F1360015F03DFFB078F18872894000B0704900B08840001201F8
:20217000B080F180728189B2638C5B1C4800434392B2934200D231B99BF8000080210AF049
:20219000D3F93B21FEE004F12E01204615F0BAFA0520A081204615F0B1FC052209F11E0148
:2021B00004F1610015F010FF99F823004009307016F0BAFF60823A68E34F518A401A04F565
:2021D0009771888104F1610199F82300DFF87C9300F01F00F073204612F0E9FE29680A6829
:2021F000002010711C25A1793868694341F6210242520022A17969430144001D4A80A1796B
:202210006943425099F80200410609D5D049088841F20A4290420CBFCE48CF48C4F89C016D
:202230002046D4F89C1188473968A37901F10E026B43D054A1793868694308440021C17348
:20225000C648017881B1B08870B9002171730120208160812046D4F89C1188473968A37941
:2022700001F10E026B43D0543868A27900F10E016A43885C707394F8960108B915F082FAE6
:20229000A1793868DFF8D8A26943084494F896114A1E02740023A179386869430844002124
:2022B0004174A279396801F112006A4301F1140C8352A279D8F8000000EB42136A434CF8E9
:2022D0000230A2796A431144A64A8A61DAF814100B78DA074CBF4FF0100C4FF0000C990719
:2022F0004CBF202100215A074CBF402200221B0700F10803A07941EA0C014CBF4FF0800E2A
:202310004FF0000E0A4340014EEA020242F00F021A54D8F80000A17900EB41100B224272DE
:20233000D8F80010A07901EB401104228A728E4A1378D8F80000A179012B00EB411002D1AD
:202350000121C17203E0DAF828104A78C272D8F80000A17900EB41101F220276D8F8001076
:20237000A07901EB401100224A76A0790BF060FCA279D8F8001052018850A2795301C858F0
:2023900020B90721204615F0DBF8CDE07748016801EB021016F0C4FE744AA0791368D8F831
:2023B000001003EB00130A1D40011350081DA27952018058F063A0794001095871640421BE
:2023D0009BF800000AF0B0F8644BB2881978901C11B10AB9F088801C618A94F806B0414348
:2023F0004FF4C87205FB0BFBB1FBF2F1491CA061616140F6C41C23683A68CDF800B002F1E8
:20241000080ED3F80CB00CFB00B0411A0098A1F5A8614EF8001002F10800A1796943405817
:20243000986002F10C01A07968430C32095C01F0EF011154A0793968684301F10C020C3145
:20245000125C02F07F020A54A0793968684301F10C020C31125C02F0F00242F002020A54A5
:20247000A179386869430844417B01F0F00141F0010141733868A27900F108016A438858D3
:20249000216808616369D8F80000A17996F802E05B0000F1140249010CFB0E3303F5F663CF
:2024B0005350A17900EB4110C27C02F0F00242F00402C274D8F80010A079DAF8303001EB6C
:2024D0004012F0880CFB00F61868301AA0F51670D061A27901EB4210C17E01F0F00141F064
:2024F0000401C176A17938684D4321684019486099F80100810614D504F59771488F1B289F
:2025100004BF888F1B2808D1C88FB0F5A47F04BFB4F86E11B1F5A47F03D0142120460FF072
:2025300045FD134907200870BDE8F14F01F0C0BF104F0020B44D0020684E0020F44B002024
:20255000DC2800206E4F0020D8280020B0270020504F0020C1300100DF3A0100784E0020A2
:2025700000A301005C4D0020734F00208C4E00206F4F002000B5ADF1240D029000208DF869
:202590000C0045E202980490049840788DF814009DF8140058BBA648A6490222102300905D
:2025B00010200BF0F7FFA84803221023A149009010200BF0EFFF0498A849C01C02680A60D2
:2025D00080888880A64801210170A6480178502012F04AFA0246A4480078A5490090A34828
:2025F0000123019010200BF0D5FF8DF814009DF8140010B19A480821017001208DF80C00E6
:2026100030E20298049004984078002830D10498C07890B193480178502012F025FA0246AB
:202630009448007892490090A9480023019010200BF0B0FF049948701AE08948007802288A
:2026500016D087480078072812D085480078062803D1A548007801280AD181480078032810
:2026700006D0A94815F020FA10B9012015F05EFE04984078002800F0F581794808210170DC
:2026900001208DF80C00EDE1029804900498407800283CD102988078032812D17048007823
:2026B000062803D16E480721017033E0A948007818B16B48022101702CE0694803210170DB
:2026D00028E0AC48008858B1A248007810B98648007880B1A74801888B4811F0D5FF0AE0B1
:2026F0009C480078012803D19A490020087002E07D49002008705A480078072803D15848F9
:202710000621017006E056480421017002E054480821017001208DF80C00A3E1029804907B
:2027300004984078002842D10498B449001D02680A60808888800498B149408908804848E9
:20275000062101700498AF49C08908800498AE49008A08800498AD49408A08800498B64948
:20277000C0780870B5480078012803D0B348007802280ED1B24910201F220BF00BFFADF896
:202790001400BDF814004FF47A714143AD4811F07BFF04984089AC490090042001900498EF
:2027B000049BC2781B1D10200BF0F4FE0DE004984078312806D1674900200870284804218D
:2027D000017002E026480821017001208DF80C0048E1029804900498AC49828810200BF0BF
:2027F000D9FE8648002106220EF0E3FA854900200880854900200880844900200880049803
:20281000A349807908708F4815F054FDA14815F051FD01208DF80C0079494FF6FF70088032
:202830003148007840B10E48032101701AE1C046EC2700204979010004988079082805D129
:2028500007480521017004E0FC270020044804210170012015F06AFD04E1C046AC2800200D
:20287000E0270020D82700203C100020DC0F0020094501103D10002002980490854815F0BF
:2028900019FD04984078002840F0EC8004985D49C088088004985C490089088004985B4956
:2028B00040890880674815F0FFF8002840F0DA8079480068002800F0D58077485249006802
:2028D000524A036809884F48128800889847C9E0FB0F002002980490049870498288052330
:2028F00010200BF057FEBDE0391000200298049004988088ADF8140050480078052805D1A4
:2029100000208DF81E0072E09026002001208DF81E004C4815F0CEFC48480078012803D091
:2029300046480078042839D15D4804990088C988884202DD5A48008801E00498C088ADF8F3
:2029500016005848049900880989884204DD5548008803E03810002004980089ADF81800FD
:202970005148049900884989884205DD4E48008804E0C0463A10002004984089ADF81A0075
:202990004A48049900888989884202DD4748008801E004988089ADF81C0028E02748007868
:2029B000032803D025480078022810D13C480088ADF816003B480088ADF818003A48008880
:2029D000ADF81A0039480088ADF81C000FE00498C088ADF8160004980089ADF81800049852
:2029F0004089ADF81A0004988089ADF81C003049102005AA0BF0CEFD34E0C046FC12002073
:202A10003E10002040100020421000204410002002988078052819DC05283FF47FAE002879
:202A30003FF4B0AD801E3FF4ECAD401E3FF42CAE401E3FF429AE15E046100020F01100202D
:202A5000F5840110B426002059B70000801F3FF4C0AE401E3FF410AF08383FF43BAF801E47
:202A70003FF444AF9DF80C0001280CD11148006848B110480068006828B10E480068016897
:202A90000D480078884709B000BDC0461D31010047100020D826002050100020C1170110C1
:202AB000F2110020F4110020F6110020F8110020051601104C100020E02700202DE9F8434E
:202AD000040014D1002014F05DFE10E0204610F0B1FD012808D065E08A0740F1548101F0AC
:202AF000FD0101700020B071204610F09BFC04F16605687D002855D0697CDFF8A494022968
:202B100004F1EC0704F59E7804F5B07604F5C67035D0042949D005295CD0062900F08A8092
:202B30000729D3D0092900F0EC800B2900F0C1800C2900F008810D2900F0D0800E2900F074
:202B5000EA800F2900F02881102900F04281112900F05C81122900F00E81142900F0878148
:202B7000162900F05A81172900F07581FC2919D0FD2900F09581FE2900F09B81A2E7297C7A
:202B9000012909D199F80300002815D01621204614F0D6FC012006E020460FF0A9FF28745D
:202BB000E88A28830020BDE8F283297C012940F0948199F80200002800F0E580FC21204607
:202BD00013F094F9A07904F1B80204F1B00116F0A3FA8CE7297C01290FD199F8020020B1BE
:202BF00084F89410002038607860B87A012868D10621204613F07AF979E704F1E706307894
:202C1000012809D1204612F0ADFF0128CAD10020B87201202874C5E770780028C2D004F17F
:202C3000C70204F1A00104F1D70016F071FA012030705CE7297C012940F0538199F802007E
:202C500000283ED0618CE183204610F0EBFB01202870204612F069F90120A871397A787C2D
:202C7000012900F010000FD148B1002088F80500D8F8001098F8060049080EF0F5FFA079CA
:202C9000002116F041FA0EE040B1D8F80020C54804F5A1735208214615F008FEA0790122D1
:202CB000002116F02DFA002038723873F872B8721DE7287C012805D1F97A012908BFFC2185
:202CD00097D060E020460FF0A5F90128A3D10020F87284F894000120287408E7297C012988
:202CF00040F0038199F80200002809D0002184F8941001202870204612F017F90120A871D0
:202D100088E0297C012940F0F48099F80200D0B3618CE183E8E6287C012840F0EE80387C74
:202D3000022804F1FD0204D1A179002016F0E4F9DAE6032840F0EA80A1791A2016F0DCF9BF
:202D500000203874D0E6287C012804F20D1140F0E8800B78012B04F5897240F0E88048786D
:202D7000012807D15388009300201388CA78A17916F0BEF9B8E6297C012940F0E78099F86B
:202D900002000028F6D1298B481E288380B200287FF408AF2221FAE6287C012840F0DA806F
:202DB00098F80910012902D130780F281BE098F80800012826D1002188F80810288D000954
:202DD00000901A20AA8CEB8CA179520816F08CF98AE6287C012840F0C18098F809100129EC
:202DF00010D1307810281CBF002014F0CBFC002088F80900288D00090090AA8CEB8CA1797E
:202E10007078E2E7287F0028E2D1BCE7297C012940F0A88099F80300F5E7297C012940F036
:202E3000A580017B4A061DD4CA0709D501F0FE0101730023A179707800220BF093FE53E681
:202E50008A0740F1988001F0FD0101730023A17900221A20F1E7297C012940F09980027B1F
:202E7000510690D5017B01F0BF0101733CE6297C012940F08F8001788A067FF52DAE01F06C
:202E9000DF010A0701700AD501F0F7010170F08B0090738BB28B318BA07916F04DF921E619
:202EB000A97E204613F022F815E7002014F06AFC78E6A87E0F28F8D1FC21204613F016F8BA
:202ED000B8F812000090B8F81030B8F80E20B8F80C10A07916F038F964E620460CF0E0FC1E
:202EF0005DE6204610F0A4FC59E6204612F0A0FA55E620460FF08AFB51E620460EF0DCFD9F
:202F10002874E88A2883012038744BE6288B401E288380B20028F8D1A179222016F0ECF8C5
:202F300038E70120887020460EF008FA37E6288B401E288380B20028E7D15088009022204E
:202F50001388CA78A17916F0D3F823E7204610F027FF24E620460BF055FE20E620460BF0DE
:202F7000A1FE1CE620460FF0D3FC18E6162120460BF06AF913E6288B401E288380B2002864
:202F9000C3D1A1790023002222200BF0EBFD01E71721ECE7142120460DF088FAFFE500BF59
:202FB0005C4D0020D91201002DE9F84FDFF82844A178FF2904BF002014F0E4FBA07815F088
:202FD00083F9044604F1680604F5C9753168086804F1900710B10022E28310E0B17B00295F
:202FF00004BFB07E00280AD13978002904BF2878002804D1217F012904BF608CE08321890D
:20301000E08B4118491C6181204614F09BFB01281EBFDFF8C8030178012904D120890022AA
:20303000401CE2836081B07E01280CD1B28B6189208916F055F830B121896289481C8242E9
:203050002AD0B28B1FE0387801280CD17A886189208916F045F830B121896289481C8242FE
:203070001AD07A880FE02878012815D16A886189208916F035F800281FBF2189481C6289FF
:20309000824209D06A88824206D0501E608180B216F022F8401EE0832878012801BF69881B
:2030B0002089401C814207D16A792A71002028701346A1790BF056FD04F59A71087920B113
:2030D00020890021401CE183608104F12E07B07E012801BFB08B2189491C884238D1608136
:2030F00004F18601204614F00DFBB08C6189608400202077E083E0894118A181B08B2189E5
:2031100015F0EAFF8046B988308C728C01FB0808F08C8A4204BF3989884202BFB18CFB88CC
:20313000994207D000090090B38CA1795208002015F0DAFFB07F3870708CB880B08CF880C4
:20315000F08C3881204614F0D9FC0220B07601E0B7F80480E28BDFF88892501C00FB08F1D1
:2031700040F6C41808FB01F000902368D3F80CC06044DFF870C2D860DCF800E09A489EF876
:2031900000A003884FEA9A1ABAF1030F13D199F80FC05FEACC7E48BF00230CD45B1C9BB2A5
:2031B000012B11BFB4F812C004F59A7CBCF806C00CF2DC5C01E0B4F812C00CFB01FC4FF420
:2031D000C87EBCFBFEFCDFF824A20CF1010CC4F814C0038084F820204FF01C0BA379A161EE
:2031F0000BFB03F3DAF80010226801F1080001F1080CC058D3681061A0790BFB00FE6069AD
:203210001B1A4CF80E3001F10800A3790BFB03F3C058906001F10C02A0790BFB00F00C3181
:20323000125C02F0F00242F002020A54DAF80000A279811C0BFB02F200208852287908B9B8
:2032500014F0A0FADAF80000A27900F1100128790BFB02F240088854A079DAF800100BFB11
:2032700000F00844002141742879042814D1A079DAF800100BFB00F001F110022B7A125C72
:20329000103142EA83020A54A179DAF800000BFB01F1084420214174DAF80000A27900F1CA
:2032B00012010BFB02F200238B525149A2790968520101F11403D4F814C09B5801F1140EC8
:2032D00003EB4C034EF80230B27E022A0AD1A279520101F114033E789B5808FB063301F1A4
:2032F0001406B35099F80F20D30749D5A2790BFB02F200F1080300F108069B58A3F5A86343
:20331000B3500830A27923680BFB02F282589A600098121A1A6101F11402A079400101F15B
:203330001403125802F5F6621A502879042807D1A079400101F11402125802F5B0621A505F
:2033500001F11400A27952018058C4F8340101F11C03284AB888166BA57908FB00F730682C
:203370006D01381AA0F516705851A37901EB431021490D78012D0EBF0122916A4A7819E09B
:203390002879A37904280CBF4FF44B604FF4E66001F114025B01D258101ABA8808FB02F201
:2033B000A2F516729042D2D30821204614F0C8F801200FE0C272A179DAF800000F4A0BFB85
:2033D00001F108442168486007201070204612F08CF90020BDE8F28F684E0020784F0020D7
:2033F0005C4D0020084F002018290020D8280020DC28002000A30100734F00206F4F002074
:2034100000B5ADF1440DD548D5490AF009FBD64814F03CFFD34908600020D54900901020E0
:203430000190D24841F2883200230FF011FA4FF0804000210FF0BAFBCE490860CE491F220C
:20345000062310200BF0A6F801208DF842000020ADF8380000208DF843000620ADF83A0098
:203470004FF44870ADF83C000020ADF83E004FF47A70ADF84000012140F205300DF1420280
:20349000FEF716FB40F2063002210EAAFEF710FBD24A4FF442701C21FEF70AFBD04A40F23F
:2034B00007300721FEF704FB4FF4447001210DF14302FEF7FDFA40F2113002210DF13A0291
:2034D000FEF7F6FA40F2123002210FAAFEF7F0FA40F2133002210DF13E02FEF7E9FA4FF4D7
:2034F0004570022110AAFEF7E3FABE4800221123BD49009010200BF04DF8A020ADF8380059
:203510009D49BDF83830062210200BF043F89A49BDF83830102007220BF03CF89649BDF8EE
:203530003830102008220BF035F89349BDF83830102009220BF02EF800200E9001208DF8B8
:203550003C0001208DF83D0000208DF83E0001208DF83F000EA84FF481620423A3490090F5
:2035700010200BF017F80FA84FF4806201239F49009010200BF00EF80DF13D009B490090A9
:2035900040F20242012310200BF004F80DF13E0040F2034201239549009010200AF0FAFFF2
:2035B0000DF13F0040F2064201239049009010200AF0F0FF8E4910204FF0FF320AF0EAFF44
:2035D0008C4910204FF0FF320AF0E4FF13F04AFC4FF0FF300BF028FE01208DF83C000220AD
:2035F0008DF83D0003208DF83E0004208DF83F00814800788DF8380001210FAA002007F03B
:203610009FFF012001210DF13D0207F099FF022001210DF13E0207F093FF032001210DF19F
:203630003F0207F08DFF042001210EAA07F088FF724814F047F87249724A10200AF0AAFFF3
:2036500046480178502011F00FFA6F49024610200AF0A0FF41480178502011F005FA6B49EA
:20367000024610200AF096FF69491020FB2240F648030AF08FFF674910200AF08BFF664918
:20369000102004220AF086FF64494FA0086063484FF6FF72002111F0F3F836485F49006845
:2036B000032200230FF04EFC5D480FF0EFFF5D4910200AF06FFF5C4813F0E8FB02A815F060
:2036D0004DF804208DF808003220ADF80A0000208DF80C0002A9002009F0BCFE53490860B0
:2036F00004A815F0F5FC059840F6B831B0FBF1F0401E0A904D480A99006815F042F94B4865
:203710004B490068012210F0AFFC06A815F026F804208DF818003220ADF81A0000208DF887
:203730001C0006A9022009F095FE4249086008A815F0CEFC099842F21071B0FBF1F0401E4E
:203750000B903C480B99006815F01BF939483A490068012210F088FC10E0C0468028002044
:203770008428002088280020502800206C26002089820100280F0020BD8401102D480068C1
:2037900010F098FC2D4910200C220AF003FF0FF03BFA002010F00CFF294811F01FFB0C902E
:2037B00000200DF03FFB0120012107F01FFB0220002107F01BFBFF208DF834000DA814F06D
:2037D00069FE11B000BDC04659752773204C6162205065726970686572616C0054100020A7
:2037F000E812002006110020AD030100154D0000F9720100757701007FA001002C1300207D
:203810006979010068120020518801103181011021B10010F5FA0000317F0100580F002065
:203830005D840100C5AB001028130020FC28002081800100002900206980010081B30010FE
:2038500080841E002DE9FE43BF4C0F460646F80B80F05081B80880F03D81E07ADFF8F4924A
:20387000B90F80F0B680607A002840F096803809C0F09580A07A20B10020A072052012F038
:2038900031FE00254FF001086570284684F8078009F09FF9AD4904F174002A4615F0E2F8F7
:2038B000207901281AD16079C0B9DFF8A482D8F8000000284CD048460068006B80476169F6
:2038D0004346401A000BA0611968E2698018B0EBC11F98BFE0613BD9E56101E084F8048037
:2038F000DFF87482A8F115000068000A30D340F60900A08694F8410000F0F00040F0010085
:2039100084F84100E58694F8400000F0F00084F84000A56315F09EF808F6FF7211686FF01D
:20393000020321F00201116004F13401C8F8FB3F8A4AC8F8EB1F11688908FCD3C8F8FB3F58
:20395000D8F8FF1F41F00201C8F8FF1F15F0BCFB656111F045FF82480560022012F0C2FD7E
:20397000112009F0D5FD307C10B90E2009F0D0FDE5712572A07818B906F1380015F07CF854
:20399000784814F0E5FE78490878F8B10D7004F1D000042115F078F818E0380914D2B80BC8
:2039B000C0F0C98004F1240015F062F8061C08D0706830B17568F068B6F91C10002220235E
:2039D000A84727F40057B6E00020607227F00807B1E020B1042012F085FD0020E072B16833
:2039F000088840F602054FF0000885420AD0B0F5C15F07D00A8B4FF61F60104040F43470E5
:203A1000088306E00A8A4FF61F60104040F4347008826069E0B1D9F8540001680420884740
:203A3000B0B1D9F80000006B80476169814226BF401A401E401A000BF060708AF168401888
:203A500040F6C411F06081422CBFB0F5FA7FF16094F8410010F00F0F0BD1708CED1D85424A
:203A700007D1B56930466FF4807142464FF00073A8473E4904F17400424614F0F3FF607906
:203A900058B10220ADF80000684613F0AFFB84F80580BDF80800A4F8700001206070E078D8
:203AB000401CE07004F1200084F8068014F0E0FF002808BF47F0020702D0192014F0D0FF43
:203AD0007569414630464FF080630A46A84727F0005730E004F12C05284614F0C9FF08F0C4
:203AF0002DF8284614F0C4FF27F0020708B147F0020720E014F0AEFF014604F1280014F02A
:203B1000B7FF0646B569A80810D27EB125EA0500B061084615F0D8FA706850B12A46F068C9
:203B3000B6F91C1075680023A84702E0084615F0CBFA27F4804727B104F1D000394614F0AF
:203B5000A3FFBDE8FE83C046200500201D730100C02800208C01001015000440101004404F
:203B70000000046045BC0000BC28002021B000002DE9F04F09AFADF13C0D08900A92388813
:203B900009911E46ADF81800101C08BF002000F07581017800274FF0010B401C4FF0FF39A3
:203BB000B846DA460A9061E1252940F056810178401C0A902D2918BFADF8068004D1017891
:203BD000ADF806B0401C0A9030291CBF4246434604D10178401C5A465B460A902A29CDF8A2
:203BF00000804D4617D1049330680A9BCDF80890C01C20F00300001D306050F8044C1978C4
:203C1000002C009403F101000A9018D5ADF806A06442009413E044460AE0600000EBC4005D
:203C30004018A0F130040A9801780094401C0A90302901DB3A29F0DBCDF8089004932E2904
:203C500029D10178401C2A290A9011D13168CDF80880C91C21F00301091D316051F8045C76
:203C7000002D48BF454601782B46401C0A9011E0454643460AE0680000EBC5004018A0F1A5
:203C900030050A9801782B46401C0A90302901DB3A29F0DB02930AB1224604926C2904D043
:203CB0004C2918BFADF8048004D10178ADF804A0401C0A900BA8CDF80C800FAB0790642910
:203CD000059300F0828069297FD0BDF818C075296DD0782969D06F2965D070294ED0632917
:203CF0003ED0732922D00A98401E0A90099801281AD966490C68B5F1FF3F03D0A84288BFB6
:203D10006D1C05D86FF00041814294BF0D1C099D029508A80AA932466B46A04709993F18A5
:203D3000091A0398099165E0454617E03068C01C20F00300001D306050F8040CBCF1010F0B
:203D5000014608B94FA00146079114F021FB0390B5F1FF3F4FD0A8424DD9039528464AE087
:203D70003068C01C20F00300001D306010F8040C8DF82C005D46039558463CE0082035687C
:203D90000490E81C20F00300001D306050F8041C082210230FA80DF049FD401E07904021A6
:203DB0000170079823E0082302E0102300E00A233068C01C20F00300001D306050F8041CF7
:203DD000AA42BCBF2A1C04920DE03068C01C20F00300001D306050F8041CAA42BCBF2A1C5A
:203DF00004926FF009030FA80DF020FD07900599081A0390009C241ABDF8065000945DB968
:203E100006E008A8202109AA12F0ACFF7F1C009C641E0094F5D50398401EB0F1FF3F0390D9
:203E30000FD1BDF8060001281CD10098401E009018D408A8202109AA12F094FF00987F1CE3
:203E5000F4E70798017809AA08A812F08BFF0798401C079003987F1CDEE708A809AA12F07E
:203E700081FF7F1C0A980178401C0A9000297FF49BAE089808B14146017038460FB0BDE8EE
:203E9000F08FC046286E756C6C2900C0BCA20100BB482DE9F84F0025BA4CB849056094F8E5
:203EB000E200002800F06581012800F02F81B64E02283CD0032840F05C8151F8250CD4F891
:203ED000B8100029A0F5C060C4F8D400B8BF49420028B8BF4042814226DA4FF08057D7F8D1
:203EF000A4014568B4F8BC0030214FF47F42082300903046A847D7F8A4014568B4F8C000F6
:203F100004214FF4F802122300903046A847D7F8A401B4F8D070456820214FF440620A23A5
:203F300030460097A847012584F8D8501CE151F8258C14F02BFC2F4600B901273946934FD2
:203F500038680028FCD0B146012609F10409D9F82CA03E6009B114F01FFCCAF30720C4F8E4
:203F7000BC0014F013FCAA4600B9B2463B68002BFCD0D9F800B0BAF1000F3E6001D014F079
:203F90000BFCCBF38440C4F8C00014F0FFFBAA4600B9B2463B68002BFCD0D9F81C90BAF1AB
:203FB000000F3E6001D014F0F7FBC9F38120C4F8D000B8F5C061C4F8B81000F09C8094F8AA
:203FD000D80068B9C4F8D410D4F8C000C4F8C800D4F8BC70C4F8C470D4F8D030C4F8CC30BC
:203FF000D4F8D410D4F8BC30002954BF02206FF0010004F1C802176801EB41014018411076
:2040100000EB917107EBA1001060D4F8C810C4F8C43000291CDD1E293CDDD4F8CC0030B949
:204030003429B4BF15391E21C4F8C81025E02A29BABFD4F8C8000B381E20C4F8C800D4F849
:20405000C4003F28B4BF401C3F20C4F8C4001FE0D4F8CC00032812D011F10B0FC6BFD4F866
:20407000C8000B30301CC4F8C800D4F8C4000028C4BF401E051CC4F8C450032508E011F1C1
:20409000150FC6BFD4F8C8001530301CC4F8C800C4F8CC504FF08057D7F8A401B4F8C430BC
:2040B00030214FF47F424568374800930823A847D7F8A40104214FF4003211234568324859
:2040D0000096A847B4F8C860D7F8A40104214FF4F802122345682C480096A847D7F8A40152
:2040F00020214FF440620A23B4F8CC60456826480096A84701E084F8D85040F2FF5040455A
:2041100002D8801C40452FD2082030E051F8251C1F4F4BF2F5204843060A3868C0F3814062
:2041300001280CD11B4800680068804711F03AFB14F038FB3111C010484306EBE03694F8D2
:20415000E50030B91448006820F07F408019460801E084F8E5501148310C066001274160B0
:204170000F4D8760287808B90B2000E0052084F8E40004F0B9FDBDE8F88FC0462D400C4066
:204190002C500C40280B002000A00C4000800C40B43F0050EC010010102009403C600C409B
:2041B00066A101002DE9F04F0D46E80789B00BD514F0EAF928B100218160AE48006800B166
:2041D000804785F0010052E1A80710D500200690002104900023029000900591039301915D
:2041F00001223C2014F06CFF85F002003FE11E246807DFF88482A14F40F19B8000200790A9
:2042100082469F498878FF2804BF002013F0BAFA386890F8A00014F057F806463868C07ADC
:2042300096F82EB1022818BF032806F5947906D108F10D0014F040FF08B908F1070A494653
:20425000584614F035FF88B33868807A002818BF012804D14146484612F098FB04E04A4688
:20427000594640460EF040F8FF283DD06043834608EB0B0406224946E01D13F0A5FE18F8C7
:204290000B0040F0020BE01D079006223868817E01F0010186F82E1104F10109386800F12B
:2042B000140106F5947013F08FFE1DE04946584613F02CFFC0B14A46594640460EF014F8C2
:2042D000FF2811D04443444404F10D0014F0F4FE40B904F10D0014F0EFFE002804BF607F09
:2042F000012801D14BF0020B06F12C005B4601780691418909090591728C079904920122CE
:20431000C088029140080390CDF804A0CDF800900020B17914F0D4FED6F89C015949884222
:20433000B0790CBF002101210BF06CFF85F004009DE0280610D50020069000210490002339
:204350000290009005910393019101223B2014F0B7FE85F080008AE0E8043CD508F10701D9
:2043700008F10D0014F0A0FE38684179012923D1017A012918BF04291ED1C17A022918BF38
:20439000032919D1817E00F1140240460DF0ACFFFF2811D04443444404F10D0014F08CFE1C
:2043B00050B9E11D04F10D0014F07EFE38680622E11D143013F008FE334934484A6800782F
:2043D0004FF4805110F038FA10B18E2014F068FE85F480504BE0A80505D514F0D7F92C496A
:2043F00001200860FEE7690504D508F072FF85F480603CE0680405D5812014F051FE85F467
:20441000804034E0A80431D5224C206810B1002013F0B8F94FF0FF3020600EF049FA1E4CE2
:20443000216851F8202F684690471C48C16A026B2468009101920021029100F134014A688E
:2044500009781368806A03938DF81010ADF812006B46D4F80080124A12491348C047134902
:20447000086004F09DFA85F4005000E0002009B0BDE8F08F204F002058170020104F0020F6
:20449000684E0020C1300100784E00206E4F0020FC002043044F0020F04E0020E00D002044
:2044B000242600202811002088490020EC4E00202DE9F04FB64D686885B0019020B905B062
:2044D000BDE8F04F14F0E8BD0178DFF8C882B24EDFF8C892DFF8C8A201291CBF02290429D6
:2044F00046F2A81741F64C5B05D0402918BF802900F09A8043E114F091F90028FAD00198D2
:20451000007806F02DFA0090446814B9002013F039F99AF80100002860D002F0C1FA13F0FD
:20453000D3FE02900168009801914F680DF0FAFA022827D000990A78012ADBD1994B196855
:204550000A7A19F80230337018B914F0A1FD5844A0602069C17E01F0EF01C1762069C17E2A
:2045700041F08001C1762069C17E01F0F00141F00201C1768C48B96841182069C161012112
:204590000098A0E001980178802913D10822874832700178012903D09AF80100012803DDA7
:2045B00078690121C17213E0D8F828107A690878D0720DE07D49072030700A787869012A0D
:2045D00002D10123C37203E0D8F828104A78C2720298817901988AF80210CBE00098002892
:2045F00088D00199009A0078914205D101281CBF002013F0C7F815E0012840F0C0806948D9
:2046100001680A7A19F80200307014F041FD3918A06814F039FD18B914F03AFD5844A0606D
:204630000120A8700098A5E09AF8010000287DD002F036FA13F048FE04462068029047688E
:204650009AF8020013F040FE039014F0EDF810F0070F3DD0A87806F083F901904168019871
:20467000009102990DF05EFA022831D001990A78012A2AD14B4B19680A7A19F802303370BB
:2046900028B914F005FD83440098C0F808B000990869C17E01F0EF01C17600980069C17EB3
:2046B00041F08001C17600980069C17E01F0F00141F00201C176009AB9683B484118106964
:2046D000C16101210198A97054E0002013F05AF80398A04228D002980178802913D10822EC
:2046F000324832700178012903D09AF80100012803DD78690121C17213E0D8F828107A6968
:204710000878D0720DE02949072030700A787869012A02D10123C37203E0D8F828104A783A
:20473000C272A0798AF80200029823E014F07CF810F0070F29D0A87806F012F90446207871
:20475000D4F80480012820D116490A68107A19F80010317014F09CFC3918D8F8080014F0F9
:2047700093FC20B914F094FC5844C8F808000120A870204605B0BDE8F04F08F059B905B0D2
:20479000BDE8F04F002012F0FDBF05B0BDE8F08F5C28002000A301006F4F0020289A011075
:2047B000684E0020104F0020F0D8FFFF734F002000B5ADF12C0D8DF80400F6E04FF441700D
:2047D00002A900F073FE9DF808008DF810009DF809008DF811009DF80A008DF81200002001
:2047F0008DF8140000208DF813009DF80D008DF817009DF80C008DF816009DF80B008DF8B9
:204810001500082104AA002002F056FC02A80BF057FB03468D480078001DC1B28A480068E1
:20483000002212F0E0FA89480078C01CC1B286480068002268A312F0D6FACAE083480078B0
:20485000C01CC1B280480068002266A312F0CBFABFE000208DF81C007D49102009F09AFEF0
:204870008DF81C007B499DF81C2002AB1020521E09F090FED8B99DF81C0000907348007819
:20489000C01CC1B270480068002259A312F0ABFA0DF10A000BF014FB03466C480078401CF1
:2048B000C1B269480068002212F09DFA1BE040F2153008A900F0FAFD64480078C01CC1B224
:2048D0006148006800224EA312F08DFA08A80BF0F7FA03465D480078401CC1B25A48006840
:2048F000002212F080FA5C484FF6FF7100220FF0C7FF6EE055480078C01CC1B25248006816
:20491000002242A312F06FFA63E0142009F044FB4E480078C01CC1B24B480068002241A308
:2049300012F061FA4C4800214FF6FF720FF0A8FF4648017845480078801CC2B242480068EB
:2049500013F000FF45E0142009F026FB3F4801783D480068002237A312F045FA3E48002101
:204970004FF6FF720FF08CFF38480078401CC1B236480078801CC2B23348006813F0E2FE54
:2049900027E0324801783048006800222CA312F02AFA1EE02D4801782C480078801CC2B22E
:2049B0002948006813F0CEFE13E09DF80400401E3FF404AF401E3FF441AF801EA5D0401E7D
:2049D000C1D0401E3FF445AF401E93D0401ED8D0E0E70BB000BDC046496E697469616C6972
:2049F0007A6564004164766572746973696E67004E756D20436F6E6E733A20256400C046AA
:204A1000436F6E6E656374656400C046436F6E6E6563746564204164766572746973696E21
:204A30006700C046446973636F6E6E656374656400C046C054696D6564204F757400C0460F
:204A50004572726F7200C046280F002028290020F17F0110097F0110580F00202DE9F04F78
:204A70000546A64CA878216AADF11C0D801F00F03E81C01E00F02981401E78D0401E56D087
:204A9000C01E4AD0401E40F03481207A617A00283FD1607800283BD0A88814F0F1FA071CD1
:204AB00000F02781A87A40080AD3787940B1E968890A05D2B91D01AA09F0BCFE0A2825D00F
:204AD000207B022802D1A87A00091FD36078AE887979C0B1607CB0B90120607405F1080266
:204AF000304604F019FC002840F00381206A002800F0FF804368002B00F0FB800021304652
:204B10000A469847F5E00521304603E0032100E00521A88814F0B0FAEBE0002900F0E980AD
:204B30004B68002B00F0E5806A780221CBE013F033FD002800F0DD80276A0FB1386868B9C8
:204B5000286900280CBFE0690120698914F090FA002800F0CE8068890121DBE7286900907B
:204B70003C6869892A7B6B7BE81CA047C1E068784FF00008002840F09580A8794008C0F0CB
:204B90009180606A002840F08D8001A841460E2213F084FFA88814F073FA061C00F0A98003
:204BB0006869002859D0814641460622113013F0C3F8C24628B348464146062213F0BCF877
:204BD000D8B999F8100009F1110B474605907F1C5846FFB28BF8007012F06CF80A280BDA01
:204BF000474B059A0101A1EB400158188079824202D1002FEBD100E01FB947464FF0010A2B
:204C10006F61BAF1000F09D109F1110101A8062213F0DAF999F810008DF80A00BAF1010F82
:204C30001BD06F69CFB1387C07F1110106228DF80A0001A813F0C8F906F10C00B11D062246
:204C500013F0C2F9B01D07F11101062213F0BCF9387C40F00200707107E07079B11D062242
:204C70008DF80A0001A813F0AFF9A9799DF81120C1F3800010438DF81100080905D39DF8BE
:204C9000110040F008008DF8110001A8294602F0C5FE28B92078022107F046FC404629E0F4
:204CB0004FF0150813F0F0FD206A10B3436803B3A8886A7801219847B8F1000F19D0206AAC
:204CD000032142464368A8881BE7E878291D002209F0B0FD0A280CDA410001EB800005F112
:204CF0000C0225300421C0B212F026FE01E00EF00DFA012007B0BDE8F08FC046580700201D
:204D10004A0800207CB5A34D144602460026A2F58062192A1BD8DFE812F032012B0123012D
:204D30001A0112010D010501FE00F400E800E000D800C600BA001A001A00970081007A0049
:204D500065005C00520047003A0030002500282880F29B80022940F09880218814F084F9E0
:204D7000064615E1012940F012812178284601750121C17413F0C6FA0AE1012940F0078190
:204D9000002C00F0048128461230024614E0102940F0FD80002C00F0FA8028465C301022CE
:204DB000214613F011F9F3E0012940F0F080002C00F0ED802A46921D21781046E5E0262927
:204DD00040F0E580002C00F0E280284626226C30E6E7012940F0DB80002C00F0D8802846FA
:204DF000401D9DE0602900D144B9012940F0CF80002C00F0CC8028460D3091E005F19200BD
:204E10002146602213F0E0F801206873C0E0012940F0BD80207814F023F9B9E0012940F0E0
:204E3000B6802178022900F3B280284600F10C0211702178022918BF301C02D11021C17237
:204E5000012014F009F9A3E0072940F0A080611C6846062212F0DEFE20786946324609F02F
:204E7000E9FC04460A2C10DA14F0F2F840B9204605F00AFE502012F079FF0EF083FB87E0BC
:204E9000284601212C30015582E0022680E001297DD12A462178907B0028917378D120783D
:204EB000012875D1E9E72846027B01296FD1022A04D02178072901DB102904DD022A66D12C
:204ED0002178102963D1C17262E001295FD121780A295CDA2846093057E0012957D1217822
:204EF000022954DA284608304FE000294FD114F0AFF810B913F015F9BCE7284601210F3034
:204F100043E0042943D12168234888423FD328461C3001603CE0012939D12B4603F10A0073
:204F3000217832E0012932D1217802292FDA2846C01D2AE010292AD128464C302FE7012909
:204F500025D12178022922DA2846001D1DE001291DD1217804291ADC2846C01C02462CE78A
:204F7000012914D12178022911DA2846821C24E702290CD1218828461630018008E0012954
:204F900005D12178022902DC0448017000E0182630467CBD580700203F420F005907002070
:204FB0002DE9F04F9E4C20780E46F10BADF11C0DC9036ED1B0085ED2606AA16A720807D2D8
:204FD000F00828BF86F0040680F02581002023E1858861B904F11800924A00904FF6FF71D3
:204FF0000223012014F030F80146A16221B304A800900027019702230293FF220392228BF9
:2050100028460DF1120301F03DFB58B99DF813009DF81220A16A12EB002204D04989284618
:205030000EF07EFDA16A228B08463B464FF6FF7114F006F80146A162206A00291CBF0121AF
:2050500086F001061FD168B14368616A5BB18888002201219847206A676A4368B88803219B
:2050700000229847616A888813F056F912F08CFD86F00106CFE00020014602F0CFFC30B136
:20509000012186F00206207807F04EFAC3E00221F7E70CF093FB5FEA000800F0BA80054695
:2050B00028784FF0010AB03812D0401E03D01F3800F0A580A7E02879002840F0A480B8F83B
:2050D0000200B8F80610B8F808200EF029FD9DE02879401E41D0083803D0743800F08280BE
:2050F00087E068781A2879D06888814613F0C6FB801E18D0401E7CD1288901280AD168897C
:20511000032807D1E9688A78484604210EF098FE024600E01822206A00286AD04368002BBE
:2051300067D0042116E02989688852460129814609D16989032906D1E9688F781FB91021B2
:205150000EF07EFE0246206A002852D04368002B4FD00521484698474BE02B7A688805F16B
:205170000807082B814639D113F088FB801E12D0401E33D1287B0A2818BF122205D16889FD
:20519000042100220EF05CFE0246206A30B3436823B3042120E07888102100220EF050FE66
:2051B000237D834693B1484613F06AFF70B11E490B784BB94179831D524601F001010846F6
:2051D000194612F092FD01E05046E074206A28B143681BB105215A4678889847688813F092
:2051F0009BF806E06A8813F049FB014610460FF06BF8297905F1080013F01EFF03E04046C5
:20521000FFF72CFC8246BAF1000F02D0284612F0F9FA86F40046B0B207B0BDE8F08FC046A6
:2052300058070020C4A201005A4F00202DE9FC41884C894A2678894F894D8A490D2E3046E5
:205250004FF4A0534CD8DFE816F003010E000E000E000E00FB00FB006800FB00A700A70034
:20527000D800D800DF008049176041F204464C887E4FB4421CBFB1F81AE0B6450BD0B1F83E
:205290003280B0451CBF41F20A46B44203D0B64518BFB04502D12E80176076E0022C744E2B
:2052B0002C8035D94FF48067E41B1AD0241F012C1DD94FF47F77E41B1BD04FF44067E41B9F
:2052D0000FD0A41E012C0CD9241F0AD0641E012C0DD940F2F937E41B012C19D9241F08D0BE
:2052F000AEE0022814BF2B80624E16604DE0624EFBE762480468257A012D05D141F2024055
:20531000488048834886F0E74B804B834B86ECE7002012F037FA832096E059488178FF29DA
:205330001ED01C2041435748176040F204460068841C645A2C80A41B012C534D10D94FF4F3
:205350007F76A41B15D00A3C012C14D940F6F636A41B032C84BF641F012C0ED9A41E012C2B
:2053700076D940F2FD36A41B07D0641E012C02D905E041F20143801C4352156005E0002042
:2053900012F000FA852013F0D3FEBDE8FC413F480078012107F0C8B84A882A8040F2044319
:2053B000D21A55D040F6FC73D21A15D0083A4FD04FF47F73D21A22D1354C364A25683648D5
:2053D00000680023CDE9002355F8086F334B0222B047334908803BE0092810D131490A68DF
:2053F000508960B1304908780EF048F80021002013F01EFE002020702AE0488828800020CA
:2054100012F0C0F985201FE04A882A80022A0DD940F20440121A1BD040F6FC70121A05D05F
:20543000083A15D04FF47F70121AE8D1887B801CC0B2B528A8BF662088730020488007E079
:20545000002012F09FF98420BDE8F64113F070BEBDE8F3816F4F0020204F00202F8A010091
:20547000504F002078270020204A00203920000041B300007DD90000755B0110104F002011
:20549000684E0020D8280020856400006E4F0020F04E002002000080EC4E00208154010030
:2054B000424F0020E0280020714F00200EB50091ADF8040000208DF80600A8E07948009999
:2054D00000780870EAE000987749102209F0C6FDE4E000987549102209F0C0FDDEE0744840
:2054F000009900680860D9E0724900980A68026089888180D2E07048009900780870CDE0A1
:205510006E48009900780870C8E06D48009900880880C3E06B4900980A786B4909F09EFD7D
:20553000BCE06A4900980A78694909F097FDB5E06848009900780870B0E067480099007895
:205550000870ABE0654900980A68026089888180A4E063480099007808709FE06148009993
:20557000007808709AE0604800990088088095E05E4800990078088090E05D480099008876
:2055900008808BE05B4800990088088086E05A4800990088088081E0584800990088088061
:2055B0007CE0574900980A6802608988818075E0544800990088088070E0534800990088BB
:2055D00008806BE0514800990088088066E0504800990078087061E04E48009900780870DF
:2055F0005CE04D4800990078087057E0BDF80400282808DA4949BDF80420102008F0CAFFC3
:20561000009908804AE002208DF8060046E0BDF80400A0F540701D28E8D802A151F820004D
:205630008746C046CD540000D7540000E3540000EF540000F9540000075500001B550000A8
:205650002555000033550000415500004B55000055550000635500006D5500007755000012
:20567000FD550000815500008B550000955500009F550000A9550000B3550000C155000018
:20569000CB550000D5550000FD550000E955000011550000DF550000F35500009DF80600A3
:2056B0000EBDC046E1270020EC270020FC270020E4270020AC28002038100020391000207B
:2056D0003A1000203C100020DC0F00203D100020FB0F0020E8270020E9270020F6120020BB
:2056F000EA270020EB2700203E100020F0110020F2110020F4110020F6110020F811002010
:20571000FC12002040100020421000204410002046100020E027002047100020F584011057
:2057300010B50B7884074CBF43F0020303F0FD0304064CBF43F0800303F07F0304074CBFFA
:2057500043F0080303F0F70384064CBF43F0200303F0DF0310F0AA0F0B7004D0107840F08E
:205770000C00107010BD18B9117801F0F301117010BDF8B50F4600263878022814461D4674
:2057900067D1786801784278069801EB022189B2002818BFB1F5285F01D00B20F2BD4FF4AC
:2057B0002850091A0AD0491E1ED0491E4BD0491E22D0491E28D0C53941D04AE0F86813F039
:2057D00071F9069B079980B2C21A8A42ACBF0846C01A80B2C118162904DA28800246F86829
:2057F000C1180DE00D2636E0F8680088022129802070000A60702EE0062028800622F96807
:20581000204612F0E1FB26E0F868B0B108212980018821700188090A61704188A170418871
:20583000090AE170818821718188090A6171C188A171C088000AE0710DE029800BE04A485A
:205850000178CA0705D401202880F8680178217001E02E8001263046F2BD2DE9F8460E465F
:20587000814630780024022817469A4678D17068017842783C4D01EB022189B24FF428503C
:20589000091A08D0491E30D0491E55D0491E3FD0C63960D064E0F06813F004F9089980B2F6
:2058B000884206D308460AEB0001162903DB0D2457E0072455E0F36852463946184412F03C
:2058D00083FB08985044ADF8200000210898F368C0F11602184413F0E1F8686800281CBF51
:2058F0000268002A3DD0002123E0089888BBBAF1020FDCD139787878F26801EB00211180EE
:20591000686800281CBF0268002A2AD0012110E00898F0B9BAF1060FC9D1F0680622394662
:2059300012F052FB686800281CBF0268002A18D003214846904714E0089850B9BAF1010FD8
:20595000B5D13878002813BF0128F1680870802407E00B2405E02878C10758BF032400D5F3
:2059700001242046BDE8F286401200202DE9F04F8246DAF800600C465FEA0208ADF11C0D42
:2059900014BF00214FF0FF3106F14800834612F04BFD002818BF0B2040F006810025657067
:2059B0008448F460B8F1010F057004D065700220F46010F0B5FE2078012840F2AB80801EFB
:2059D000012868D9801E012833D9801E012800F2DF8013F03FF806904FF0805000F5EE7729
:2059F000D0F8DC01A378466A009321782846062908BF0120019001200290A068228AE16835
:205A10006368B0478146069813F05EFBB9F1000F40F0C080B8F1000F02D012F099FA02E0C9
:205A3000504611F00FFB002800F0A4803868806A2AE013F00FF806904FF0805000F5EE77DC
:205A5000D0F8DC01012306680093A168A27860682478AC46042C08BF9C466346B0478146B3
:205A7000069813F031FBB9F1000F40F09380B8F1000F02D012F06CFA02E0504611F0E2FA06
:205A9000002877D03868406880474949C1F8B0510D6081467EE012F0DDFF06904FF0805017
:205AB00000F5EE76D0F8DC01E38A87690093E0680190208B0290A0780390207D04900121D4
:205AD000059122782846022A08BF081CE1786268A368B8478146069813F0F6FAB9F1000FC3
:205AF00058D1B8F1000F02D012F032FA02E0504611F0A8FA00283DD03068006A80475FEA53
:205B1000000947D13068C569A168E28A2369E078A847BEE712F09EFF06904FF0805000F568
:205B3000EE76D0F8DC01E38AC7680093E0680190208B0290A0780390207D2946049001209B
:205B50000590257805B9014608466268A368E178B8478146069813F0B7FAB9F1000F19D1C7
:205B7000B8F1000F02D012F0F3F902E0504611F069FA08B9142017E03068406980475FEA84
:205B9000000907D1306802692169E078904780E74FF0FF39B8F1010F02D0022010F0A2FC2F
:205BB000584612F069FF484607B0BDE8F08FC04650450240252900202DE9F04FDFF80CB22F
:205BD0009BF80000002885B004D0401E032804D9801F012840F2F780EFE07D4DDFF8F48135
:205BF0002868DFF8F49103687C4E03F10807062207F1080103A812F0E7F90622B91C01A815
:205C100012F0E2F93878C0F380118DF800101E24C10900F00F02032A39D16879C0F38000B6
:205C3000814233D12969062203A811F0DBFD00282CD09DF8000001A913F03AFA002825D098
:205C5000314601A810F0A2FE0746FF2F1ED0D9F80000807A6743002818BF02280BD0012869
:205C700018BF032812D1701CF25DC119404613F0DBF910280AD0F41901AAE11D40460CF0D3
:205C9000F6FC062201A9E01D12F09EF990E000F00F00052840F097806879C0F380008142E0
:205CB000F4D12969062203A811F09CFD0028EDD09DF800003F7801A913F0FAF97F0940F285
:205CD000024A88B3314601A810F060FE8346BBF1FF0F6DD0D9F80000807A002804FB0BF101
:205CF00018BF012800910CD0022818BF03285FD10846711C325C0144404613F095F91028CE
:205D100056D0504613F08CF9009806EB000A01AA0AF1070140460CF0AAFC062201A90AF1F9
:205D3000070012F051F91CE09BF8000002283FD19DF8001001AA30460CF0D6FA8346BBF130
:205D5000FF0F35D004FB0BF03118487F012805D070BB01F10D0013F0AFF948B3504613F0AF
:205D70005FF904FB0BF4D9F80010305D88760622701C0119D9F80000143012F025F91849ED
:205D900018488A78510604D5F90758BF41F20A4101D541F204414180418341861248134A7B
:205DB00001801348134908600121107806F0BCFB29680A680020107105E0002011F0E2FC54
:205DD000862013F0B5F905B0BDE8F08F6F4F0020F44B0020CC470020104F00205817002005
:205DF000B0270020204A0020504F00206E4F002039200000204F00202DE9FE4F05467E481A
:205E1000002400680094C0090ED37C48007858B97C497B4851F8112C104040F0817041F8A3
:205E3000110C20200EF0B8FF012D40F0E080DFF80092D9F8DC00012840F0D6800220C9F8DA
:205E5000DC0011F00FFC01200EF0A6FF5FEA000805D00120C9F8DC0011F014FCC9E012F0E6
:205E70000FFEA34602906848684DC0F800B0A86A016801208847012804D158460BF0BEFEFF
:205E9000012000906248634FC0F800B03868112012F09AFC00B10124102012F095FC08B1C2
:205EB00044F002040F2012F08FFC08B144F004040B2012F089FC20B12868574E016B30880B
:205ED00088470A2012F080FC20B12868534E016B308888475248012606602868816944F071
:205EF000200088474F48066012F068FC00F001010191400814D2286A81684B4888478246E9
:205F1000BAF1040FF7D0BAF1010F04D1286A42684548032190474549086820F0030008601F
:205F3000584600F0B7FC2B683868986B8047019801280CD0BAF1010F04D1286A42683A4827
:205F5000314690473949086840F0030008603048066028684169204688470B2012F034FCAC
:205F700020B128682C4BC16A188888470A2012F02BFC20B12868294BC16A1888884728486D
:205F900006600322C9F8DC20264BC3F800B02868416B204688470128F9D1386804200EF0A7
:205FB000FBFE0446184806603868134800688009FBD30098012802D130460BF01FFE12F0EA
:205FD000EBFB08200EF0E8FE07460298C9F8DC6013F022F80CF0EEF911F054FB57EA040046
:205FF00018BF4FF0FF3804E06FF0040801E06FF001084046BDE8FE8F14100940100C00204B
:20601000FFFFFCFC150009400C400940B8010010000222432C2009407E9C01007A9C010090
:2060300028200860800104430040034024220840280B00200EB58DF801108DF800008848C6
:20605000006830B94FF0004000210CF0AFFD84490860834800680021002256A310F0C3FE32
:2060700097E07F4800680021002256A310F0BBFE7B4800680221002255A310F0B4FE97E0E4
:206090009DF8010001280ED175480068002100224CA310F0A8FE724800680221002251A3FA
:2060B00010F0A1FE84E06E4800680021002245A310F099FE6A480068022100224FA310F09C
:2060D00092FE75E066480068002100223DA310F08AFE63480068022100224DA310F083FE41
:2060F00001208DF804009DF80400002860D09DF804000028FBD15BE05948006800210022E1
:2061100030A310F070FE564800680221002244A310F069FE01208DF804009DF8040000282A
:2061300046D09DF804000028FBD141E04C4800680021002223A310F056FE49480068022116
:2061500000223CA310F04FFE01208DF804009DF8040000282CD09DF804000028FBD127E0E6
:206170003F4800680021002216A310F03CFE3C4800680221002234A310F035FE01208DF809
:2061900004009DF8040098B19DF804000028FBD10EE09DF80000801E3FF472AF801E3FF436
:2061B00060AF401E8ED0401EA6D0401EBED0D7E70EBDC0463E3E3E535441434B204153537E
:2061D000455254002A2A2A4552524F522A2A2A003E3E204F5554204F46204D454D4F5259FC
:2061F0002100C0463E3E20494E5445524E414C204657204552524F522100C0463E3E2049FC
:206210004E5445524E414C204552524F522100C03E3E204943414C4C2041424F5254210015
:206230003E3E204943414C4C2054494D454F55542100C0463E3E2057524F4E4720415049BC
:206250002043414C4C2100C03E3E2044454641554C54205350494E4C4F434B2100C046C006
:20627000280F00202DE9F84F0024774D774EDFF8E0B1DFF8E0A1DFF8E081DFF8E091D9F89C
:2062900000104A7A01231820A34060431A420AEB000709D0087A38F810203A8000201BF838
:2062B0000420BA73F87302E040F6010038800020788007F118007860387B00F0EF0040F07F
:2062D00080003873097A01290ED141F28830B860387B00F0F00040F005003873787B00F09E
:2062F000F00040F0020019E0002C0CBF0221002100F0F000084338733CB912F0C9FE00F5AF
:20631000C870CAF80800022004E00020022CB860F9D10120797B01F0F00108437873641C88
:206330003E61022C7D61AADDD9F80000017A01290EBFCAF834A00020CAF8340010F036FCFA
:206350003060474880690078C1074CBF1021002182074CBF2022002243074CBF40230023B5
:2063700000074CBF8020002011431943014341F00F01317100207071D9F80010887A00F090
:2063900003007071CA7A920002F00402104370718A7ED20002F0080242F0100210437071B9
:2063B000087A012818BF042806D10020B071F071B06001F1140216E0487FB07101F15D025F
:2063D0005078F071487F20B10B7FC3EB4313C8181E30B060507828B11278C2EB42128B1851
:2063F00003F15F001F4AF060726101F10C0030611D4BF07E727900F0E00040F08600F07672
:206410001A48F061187828B1307900F0FE0042F040023071164B987843064CBF42F020028B
:2064300002F0DF02727100202880A870E87028716871E8802881A872E872E8600868C0F8F7
:2064500004A0BDE8F18F00BFB44D0020F44B0020409A0110204A0020109A0110104F002075
:2064700000A30100D0470020784E002000204E00B02700207E488078FF2800D170472DE963
:20649000F84F11F021FF054605F217100178012908BF417800F0A28005F17400817B022955
:2064B00003D105F174020020907305F59276F18911B1307B06F038F868896E4F288105F509
:2064D0008D78B87AFB793A7BF97A7C7BB8F800C000EB030E96448E4474441FFA84FEB8F8C7
:2064F0000440641CA8F80440F444B8F80240A8F800C00419A8F802404FF01C0C3468FCB1AB
:20651000DFF8749195F806A0D9F8009009F10E0B0CFB0AFA09F10E091BF80AA034F81AB019
:20653000F34424F81AB095F806A00CFB0AFA19F80A9004EB4904B4F84AE08644A4F84AE0A3
:20655000002B08BF002904D1002A04BF797B002923D02A89E889821800202874AA81287FF2
:20657000012804BF698CE983787868B10121297705F174018878002804BF887B002803D19E
:20659000087F08B9698CE983307D80B3022804BFF87A002827D1002128E0E98338B1002045
:2065B0002874287F012807D1698CE98304E0B8F80600401CA8F80600A8892989814206D00E
:2065D0008842D1D2081A41F2AB029042CCDA287C08B1052901D0082100E03E212846BDE8ED
:2065F000F44F10F0ADBF787A08B1022131752348FA7B01682868D30708D53A69C26001F121
:206610001400A97949010022425011E001F11402A97949015258184932610A68A97902F1AC
:2066300008030CFB01F29958C1600020E8832877134841690A7890074CBFB87B812085F88F
:2066500074002846FCF73AFA01280ED0012128460AF060FC284610F06DFDFCF7A5FC01289F
:2066700003D0BDE8F14FFDF723BFBDE8F18F00BF684E00205C4D0020D8280020DC280020B5
:2066900000A301002DE9F0410C4684B00746207A0026C10690461D460BD5404612F0B8FC50
:2066B000030000F0F0800A22214638469847060050D1207802281AD160680178427801EBBC
:2066D000022189B24FF42050091A012910D9891E41D0491E16D0FD3905D0491E00F08B80F1
:2066F000491E74D0491E7BD0491E00F0A180B8E00B98002831D1E0680A9A017811800278E0
:20671000416891E00B98002827D10A9801210180E0680178297000216089401C80B212F053
:2067300073FC0A99098868B102780A9B921C51181980418969704189090AA9700278416802
:20675000E81C72E00A98091D018004220021681C12F0A4F998E00B9800286BD1E0680788CA
:206770000A98042101802F70380A68700DF10201384612F049FC04001FD0E768BDF8022029
:206790004FF6FF786B46414612F05AFC40B9237862683F48022112F033FC08B9ADF800807E
